:020000040000FA
:10000000483120206D0100007101000073010000E3
:1000100000000000000000000000000000000000E0
:10002000000000000000000000000000750100005A
:10003000000000000000000077010000D54B000028
:100040007B0100007B0100007B010000954D00005A
:100050007B0100007B0100007B0100007B010000B0
:10006000000000007B0100007B0100000000000098
:1000700000000000414D0000694D0000054D0000EA
:10008000E54B0000414C00007B0100007B010000BB
:100090007B0100007B010000000000000000000068
:1000A0007B0100007B010000000000000000000058
:1000B0007B010000000000007B0100007B010000CC
:1000C00000F002F800F042F812A030C808382418F6
:1000D0002D18AC4201D100F039F80FCCA246AB4646
:1000E0000CA730CF2D1B083F3F197C427F1E544484
:1000F0002D090426F441641EAC4201D300F026F819
:100100000126334200D0FB1A3343984754465D46DC
:10011000DFE70000BCB20000DCB20000000000001D
:100120007047000000000000002300240025002686
:10013000103A01D378C1FBD8520700D330C100D5A3
:100140000B6070471FB51FBD10B510BD00F01EFB42
:100150001146FFF7F7FF05F0EFFF00F036FB03B4A1
:10016000FFF7F2FF03BC00F087FB000006480047E2
:10017000FEE7FEE7FEE7FEE7FEE7FEE70348044989
:10018000044A054B70470000C100000048292020A8
:1001900048312020482D2020482D202001E004C097
:1001A000091F0429FBD28B0701D50280801CC907D7
:1001B00000D00270704700290BD0C30702D0027034
:1001C000401C491E022904D3830702D50280801CEB
:1001D000891EE3E70022EEE70022DFE700220309A1
:1001E0008B422CD3030A8B4211D300239C464EE052
:1001F00003460B433CD4002243088B4231D303090E
:100200008B421CD3030A8B4201D394463FE0C309BF
:100210008B4201D3CB01C01A524183098B4201D3D7
:100220008B01C01A524143098B4201D34B01C01AC2
:10023000524103098B4201D30B01C01A5241C3083A
:100240008B4201D3CB00C01A524183088B4201D3A9
:100250008B00C01A524143088B4201D34B00C01A95
:100260005241411A00D201465241104670475DE0AA
:10027000CA0F00D04942031000D3404253409C466D
:10028000002203098B422DD3030A8B4212D389012A
:10029000FC2212BA030A8B420CD3890192118B42C1
:1002A00008D3890192118B4204D389013AD092116B
:1002B00000E08909C3098B4201D3CB01C01A524126
:1002C00083098B4201D38B01C01A524143098B42EF
:1002D00001D34B01C01A524103098B4201D30B01D8
:1002E000C01A5241C3088B4201D3CB00C01A5241FD
:1002F00083088B4201D38B00C01A5241D9D24308E4
:100300008B4201D34B00C01A5241411A00D2014620
:100310005241104663465B1001D34042002B00D58A
:100320004942704763465B1000D3404201B505491E
:10033000002802DC491C084000E00846C046C046D0
:1003400002BD00BFFFFFFF7F70477047704700008E
:100350000121C9050123411842001B06D3185B0E79
:100360000AD0C1100722D206891840075242D14252
:1003700001D5520089187047090208D50146002AA4
:1003800003D0C10FC90700207047104670474202D2
:1003900002D0002002497047072109050143F4E714
:1003A0000000F87FF0B5FF252D04C609C209FF271C
:1003B00004462E400137CB093E4348402A402B409B
:1003C0000746002A6BD0002B69D0AA4267D0AB4207
:1003D00065D0002800DA32460125ED0529432C437B
:1003E00009022002090AD21A4B0C7F24E31A434C5B
:1003F000000A7C44E35C7D242404121914145B007D
:10040000A218884201D3521C00E0400049420C4629
:100410005C4324115C43DB016415E318040A5C436C
:10042000C502200D0C4644436419250A5D4323038D
:10043000EC0C0D46654300030019EB184C42A34237
:1004400001D35B18401CD4052018002B07D05B009B
:10045000C91804D3401C002901D1400840003F21A5
:1004600089048A4209D3002A08DC1106090F04D046
:10047000032149074018C00FC007F0BD0122410009
:10048000120689187F2252069142F6D205214907A9
:10049000C84201D59010F0BDFF20C005F0BD002F6F
:1004A00000DA32461648AA4207D2AB4205D21902F8
:1004B000090E17D0F80FC007F0BDFF2563002D0609
:1004C000AB42F9D84900A942F6D8AB4201D1A942C2
:1004D000F2D0A94201D1002101E061004908D00514
:1004E0000843F0BD1102090EFBD0FF200243D005E6
:1004F000F0BD0A460146104654E70000F29D000098
:100500000000C07F10B501469E240002CA15A30753
:10051000002A02D01843002A04DBA21A002A0CDDAC
:10052000D04010BD1206120E01D140004008A21AA0
:1005300003D4D04040420028F3DDFF2248001206D9
:10054000904201D9002010BDC817C043584010BDCB
:100550001F22030C02D10F2200041CD0030E01D174
:100560000002083A030F01D10001121F830F01D1CD
:100570008000921E002801DB4000521ED205511857
:10058000021251181922904004D3491C002801D1AD
:100590004908490008467047C10FC90700D04042CA
:1005A000012292071143D3E701218907D0E710B553
:1005B00000F0B2F8006810BD10B5044600F0ACF8C9
:1005C000046010BDC10D10B50906090E2ED0FF291B
:1005D00031D07E292DD319D0962916D202467539ED
:1005E0008A4005D0002402468A4003D3012302E05A
:1005F0000124F8E700230222CA41511E8843002B40
:1006000003D08018002C00D0904310BD012142027D
:1006100001D1012200E00022C00FC0070029F4D060
:10062000002AF2D17F21C905084310BDC00FC007C1
:1006300010BD0021EFE74102FAD0014810BD0000D3
:100640000000C07F10B5FF22C30D134009D05A40EF
:1006500007D0914205DA5C42A14202DDC9050818C3
:1006600010BDC40FE407002B06D0002A06D00029D5
:1006700002DBFF20C0050443204610BD4102FCD030
:10068000004810BD0000C07F30B5C30D1906214AD7
:10069000090E31D0FF292FD000283ADB0102500289
:1006A000014301207D33C34000D249080120800767
:1006B0001724091A2406490882102343FF252D0612
:1006C0004C00211A04D4891A02D45400201800E0E6
:1006D000214652085B19F3D51A220446944007D3E9
:1006E00082068A4203D180218030884300E0803036
:1006F000C009D905081830BDFF2904D04100FAD03F
:10070000C00FC00730BD410201D0104630BD0028E7
:10071000FCDAFAE70000C07F004870473803202069
:1007200010B5FF231B0644009C421DD84C009C4280
:100730001AD80346124A0B4307D4401A02D3EFF3E8
:10074000008010BDEFF3008010BD081A03D3EFF353
:100750000080904305E0EFF3008001219043C9073A
:10076000084380F3008810BD0D231B041A4204D0F7
:100770001146002000F031F810BD00F045F810BD22
:100780000000009000487047380320207546FFF7AE
:10079000F9FFAE46050069465346C008C0008546CD
:1007A00018B020B5FFF7EAFC60BCB646002600276B
:1007B000C0C5C0C5C0C5C0C5C0C5C0C5C0C5C0C511
:1007C000403D490849008D46704710B50446C04673
:1007D000C0462046FFF7C3FC10BDC80212D548032F
:1007E000400F002804D0C803C0430121884070474F
:1007F000EFF300800001000903210907084380F39B
:10080000008870470020704710B5024800F004F8D7
:1008100010BD00000000C07F10B50C461107090F85
:10082000092904D00A290AD008290CD104E011466C
:100830000820FFF7D2FF06E0510606D501E0510679
:1008400001D50120C007214610BDD10607D5010101
:100850000909CC084907000E0006044309E0410FCE
:1008600020024907000A0143200E00061D22D14143
:1008700001430846E7E7000001491820ABBEFEE748
:1008800026000200704730B58C180278401C130710
:100890001B0F01D10378401C120906D10278401CBD
:1008A00003E00578401C0D70491C5B1EF9D101E086
:1008B0000B70491C521EFBD1A142E6D3002030BD73
:1008C00080B584B0224800F053F8014602A80170B8
:1008D0000078552804D1FFE703A90020087017E02D
:1008E0001B480190552100F071F8019800F040F884
:1008F000014602A801700078552804D1FFE703A93A
:100900000020087004E0FFE703A901200870FFE75A
:1009100003A8007804B080BD80B582B001A9002092
:100920000880FFE701A80088094988420EDCFFE73C
:1009300001A80088FF2100F049F80A2004F053FEC6
:10094000FFE70198401C01A90880EBE702B080BDD9
:10095000FF07000080B502F0FFF8FFE7FFF7B0FFE8
:10096000002804D0FFE7142004F03DFEF6E780BD28
:1009700080B586B005A90191088004A903910020E3
:100980000290087003F060FC0598C009FE21084041
:10099000A030C0B203F016FC03F08CFC0198007884
:1009A00003F010FC03F086FC03F04EFCA12003F0E2
:1009B00009FC03F07FFC029803F0BEFB039908706A
:1009C00003F05EFC0398007806B080BD80B584B06B
:1009D00003AA0092108002A80190017003F034FC79
:1009E0000398C009FE210840A030C0B203F0EAFB22
:1009F00003F060FC0098007803F0E4FB03F05AFC7D
:100A00000198007803F0DEFB03F054FC03F038FC9F
:100A1000052004F0E8FD04B080BD000010B594B0DE
:100A2000002010900F900E90DA4800784100DA48CC
:100A3000405A002836D1FFE704F02EFDE14964203A
:100A400048617F20C005886101230A938B70DE48CE
:100A50000880D849D84888600A68109249680F9180
:100A60000E90109811900F9812900E981390139A60
:100A700012991198009301F0E9FF0A99C54802788C
:100A80005300C54AD15201788B00C44A0021D1508D
:100A900002789300C54AD15000788200C049C8202E
:100AA000885074E1BB4800784100BB48405A012897
:100AB00000D099E004F0F0FCB64800788100BB4813
:100AC0004058062822D3FFE7B24908784300B24ACB
:100AD0000320D05208788300B04A0020D0500A7812
:100AE0009300AF4AD05009788A00B0498850B14885
:100AF0000168119140681290AF481390139A1299AF
:100B000011980123009301F0A1FF40E1A148099051
:100B100000788100A54840580021052204F029FDF5
:100B2000014609980DAA1180007881009C48405820
:100B3000002808D0FFE79748007882009849885835
:100B4000401E8850FFE79348007881009448405841
:100B5000002848D1FFE70DA803900088810097483E
:100B60000590405E9649049100220892895E401AE1
:100B7000FFF712FD039A0499034605981093128813
:100B80009200801802220792805E895E401AFFF769
:100B900003FD0F90F8480E90864806900068109963
:100BA00009F092F901460698119140680F9909F0F1
:100BB0008BF912900E981390139A129911980123A1
:100BC000009301F043FF079A089872490B785C0084
:100BD000714B1A530A789300704AD05009788A00F2
:100BE0006F498850FFE7D1E06A48007841006A48C1
:100BF000405A02286CD1FFE704F04EFC65480078AB
:100C0000810066484058022820D8FFE76548DD4942
:100C1000CA684168006807F0F0FB0C900C986449C2
:100C200008F01AFD002808D1FFE75A480078820032
:100C30005A498858401C885007E05648007882007E
:100C40005649885840088850FFE716E05148017817
:100C50004B00514A0121D15201788B004F4A0021AB
:100C6000D15001788B004E4A6421D1500078820027
:100C70004E498858401C8850FFE74648007881005C
:100C80004A484058062822D3FFE7424908784300E3
:100C9000414A0320D05208788300FB4A0020D050FC
:100CA0000A7893003E4AD05009788A003F4988501C
:100CB000F9480168119140681290AF481390139A57
:100CC000129911980123009301F0C0FE5FE05CE0EF
:100CD000304800784100EB48405A03283AD1FFE7FA
:100CE00004F0DAFB2B4800788100E74840580428DC
:100CF0001ED8FFE72B484168006807F06BFB0B909C
:100D00000B98294908F0A8FC002808D1FFE72148E2
:100D100000788200DC498858401C885007E01D4854
:100D200000788200D849885840088850FFE710E0D2
:100D3000184908784300D34AD05A401CD05208784A
:100D40008300D14A0020D05009788A001449885085
:100D5000FFE719E00F4800784100CA48405A0428CC
:100D60000ED1FFE782492822002002908854886132
:100D700001F046FE029902207E4A01F039FD02E0B0
:100D800004F08AFBFFE7FFE7FFE7FFE7FFE714B0A8
:100D900010BDC046000020202E1D20209C1B2020BE
:100DA000B01A2020000520200000A040641C202054
:100DB0000000A0412C1A202000003443C0A90000EC
:100DC000CAB30000542020201027000080B584B052
:100DD000039066480078002809D1FFE702F0B2FCD2
:100DE00005F06AF8AB480068A8494860BBE0039882
:100DF000002140560290202800D9A8E002988100E6
:100E000001A040588746C0468D0E0000930E00009A
:100E1000990E00009F0E0000A50E0000AB0E000012
:100E2000C30E0000C90E0000E50E0000EB0E00002E
:100E3000F10E0000F30E0000F50E0000F70E0000AA
:100E4000F90E0000FB0E0000FD0E0000FF0E00007A
:100E5000010F0000030F0000050F0000070F000046
:100E6000090F00000B0F00000D0F00000F0F000016
:100E7000110F0000130F0000150F0000170F0000E6
:100E8000190F00001B0F0000330F000004F0DCFB03
:100E900069E004F051FC66E004F0CEFC63E004F08D
:100EA000D3FD60E004F04EFF5DE0354800F06CF8E3
:100EB000012805D1FFE703990878401C0870FFE777
:100EC00051E002F0C9F94EE02B4800F05DF801282E
:100ED00007D1FFE72948028803990878801808702D
:100EE000FFE740E0FFF79AFD3DE004F0D5FA3AE075
:100EF000FFE7FFE7FFE7FFE7FFE7FFE7FFE7FFE7C2
:100F0000FFE7FFE7FFE7FFE7FFE7FFE7FFE7FFE7B1
:100F1000FFE7FFE7FFE7FFE7FFE715480022026171
:100F200042612821425482611046114601F060FC62
:100F300019E00020019001F063FD01990C4828227E
:100F40008154816102200B4A01F052FC0BE00848F9
:100F500000220261426128214254826110461146FA
:100F600001F046FCFFE704B080BDC046042220200B
:100F7000080420200000F0C1000034433403202086
:100F8000000016434C05202080B588B0069004F080
:100F900083FA3B48007841003A48405A002823D160
:100FA000FFE73C494A683C4802608A684260096839
:100FB000816001680391416804918068069908F096
:100FC00083FF0590059A04990398012302930093E7
:100FD00001F03CFD02982A4909784A0029498852C3
:100FE00007A90020087047E02548007841002548FF
:100FF000405A01283BD1FFE7214800788100224870
:101000004058000918282ED8FFE72048C068002162
:1010100008F02DFB002804D1FFE71C48C0680190B0
:1010200006E01A48C0680121C90748400190FFE75F
:101030000198174908F010FB002808D1FFE7104875
:101040000078820010498858401C885007E00C48FE
:10105000007882000C49885840088850FFE707A9AB
:101060000020087008E007A90120087004E0FFE7ED
:1010700007A900200870FFE707A8007808B080BD26
:10108000010020202E1D20209C1B20204C0520200C
:1010900000002041F02320202C1A202080B584B0AD
:1010A000039003980088012805DBFFE7039908886F
:1010B000401E088005E00399C868096900F074F9CA
:1010C000FFE703980088002805D1FFE70398007D1B
:1010D000012835D1FFE703990889401C088103994D
:1010E0000A89052050434988884204DBFFE70399B9
:1010F00000200881FFE703980190018905204843FB
:10110000FFF74AFA0146019802914088FFF744FA36
:101110000199496808F09CFF0146029808F09CFA82
:10112000002806D1FFE70399C868096900F05CFA56
:1011300005E00399C868096900F036F9FFE7FFE7A1
:1011400004B080BD70B586B00C4605460D980C996C
:101150000B990A990595049403AC2280029301AA85
:1011600011806946087004980521FFF737F8059942
:10117000088003980599488002980599486001986D
:10118000059908810B980599C8600C980599086124
:1011900000980599087506B070BD000080B584B050
:1011A000014603A80180008800280AD1FFE7134800
:1011B000FFF774FF1248FFF771FF1248FFF76EFF49
:1011C00017E003A80088032812D1FFE7012001904F
:1011D00081060948029000F0E7F801990298C906D3
:1011E00000F0E2F801990298890500F0DDF8FFE7C8
:1011F000FFE704B080BDC04600200A404C04202018
:101200007C0420206404202084B0009101460098D2
:10121000039102A90870019203980A78825C0B4836
:101220000270039B0A78D21852784270039B0A78A6
:10123000D21892788270039A09788918C978C17097
:1012400000680199086004B07047C046440420203B
:1012500083B002900191009202980199084300998D
:1012600008430549086003B07047C046024800685B
:10127000072108407047C0460013404082B00190EB
:101280000199881E001F00BFFCD2009002B0704779
:1012900084B0039002910192039800680090009836
:1012A00001998843009000980299019A11400843DF
:1012B0000399086004B0704784B0039002910192D2
:1012C0000398006800900098019988430090009866
:1012D0000299019A114008430399086004B07047CD
:1012E00084B00390029101920398006800900098E6
:1012F00001998843009000980299019A114008438F
:101300000399086004B0704784B003900291019281
:101310000398006800900098019988430090009815
:101320000299019A114008430399086004B070477C
:1013300084B0039002910192039800680090009895
:1013400001998843009000980299019A114008433E
:101350000399086004B0704784B003900291019231
:1013600003980068009000980199884300900098C5
:101370000299019A114008430399086004B070472C
:1013800082B00190009100980199952252018850F5
:1013900002B0704782B001900091009801999522A7
:1013A0005201885002B0704782B0019000910098BD
:1013B000019995225201885002B0704782B0019085
:1013C00000910098019995225201885002B070470F
:1013D00082B00190009100980199952252018850A5
:1013E00002B0704781B0009000988100694A885827
:1013F00001235B061843885001B0704781B000900C
:1014000000988100634A885801235B06184388507E
:1014100001B0704782B00190009100980199074A8D
:10142000885002B07047C04682B001900091009889
:101430000199024A885002B07047C046D01200009D
:1014400081B0009000990120C202DA48885001B0B2
:101450007047C04681B00090009881004D4A1848FE
:10146000885001B07047C04610B584B0069C039008
:101470000291019200930298019908430099084350
:10148000069908430E49084303998900414A885048
:1014900004B010BD10B584B0069C03900291019277
:1014A000009302980199084300990843069908435C
:1014B0000349084303998900364A885004B010BD97
:1014C0008100040081B0009000988100314A8120A1
:1014D000885001B07047C04681B0009000988100EC
:1014E0002C4A8120885001B07047C04610B584B0A6
:1014F000069C03900291019200930298019908437F
:1015000000990843069908438121084303998900FB
:10151000204A885004B010BD81B00090009881002E
:101520001C4A0020885001B07047C04682B001902C
:10153000009100981049084301998900154A885084
:1015400002B0704710B584B0079C069C03900291CE
:101550000192009302980199084300990843069963
:101560000843079908430449084303998900094A35
:10157000885004B010BDC0468000040082B00190C5
:10158000009100988021084301998900014A885000
:1015900002B070470480424082B0019000910198EF
:1015A0002721C90140580099084002B07047000047
:1015B00081B000900099A14AA148885001B07047BD
:1015C00082B001900091009801991B4A885002B0A6
:1015D0007047C04682B00190009100980199164A68
:1015E000885002B07047C04682B0019000910098C8
:1015F0000199114A885002B07047C04682B00190EC
:101600000091009801990C4A885002B07047C0467A
:1016100082B00190009100980199074A885002B069
:101620007047C04682B00190009100980199024A2B
:10163000885002B07047C0469012000082B00190FE
:10164000009100980199024A885002B07047C04644
:10165000B012000081B00090009909204202885821
:1016600001231B021843885001B0704781B00090DD
:101670000099084A885801231843885001B07047E0
:1016800081B000900099034A885804231843885079
:1016900001B070472812000081B00090009901202D
:1016A000C2024448885001B07047C04681B00090E3
:1016B0000099624A6248885001B0704781B000903A
:1016C0000099024A0020885001B0704714120000AF
:1016D00080B584B0019101460198039102A9088068
:1016E0000398092252028018098803225202FFF748
:1016F00033FE04B080BD000080B582B0019000913F
:10170000019861494018009909780C22FFF7C0FD43
:101710000198012109034018009949780722FFF731
:10172000B7FD02B080BDC04680B584B001910146CE
:101730000198039102A9088003980D4A801809882E
:1017400007221202FFF708FE04B080BD80B584B006
:10175000019101460198039102A908700398044A77
:10176000801809780722FFF7F7FD04B080BDC04656
:101770003812000082B0019068460170007801992B
:10178000014A885002B070472412000081B00090D6
:1017900000991A4A885801231843885001B07047AD
:1017A00081B0009000990120C2020248885001B027
:1017B0007047C0460100002680B582B001900091BC
:1017C0000198112109024018009A11895388194380
:1017D00092791143084AFFF76FFD019807494018B5
:1017E000009A9188D3791943127811435D229200AF
:1017F000FFF762FD02B080BD7F33000004110000DE
:1018000081B0009000980349405810210840000919
:1018100001B070471011000081B00090009802499B
:101820004058C0B201B070473011000081B0009044
:101830000099024A0248885001B07047040800002D
:10184000030000B180B582B0019000910198044975
:1018500040180099034AFFF77FFD02B080BDC046E3
:1018600008110000FF03000082B001900091009871
:1018700000780199044A8850009840780199012223
:101880001203885002B070470410000080B584B085
:1018900000920A4601460098039102A90A7001AA23
:1018A00010700398044BC0180978127811433F2236
:1018B000FFF752FD04B080BD0C11000082B0019012
:1018C000684601700078019945229201885002B063
:1018D0007047000080B586B0059000F083F8FFE700
:1018E00000F0A8F8012189030840884201D0FFE7F1
:1018F000F6E70598417E2B48029001220392FFF7FC
:1019000017FD05982021415C274801900322FFF72D
:101910000FFDFFF7ABFC0146039804910021042260
:10192000FFF796FC01980599496A09681F4A1160FA
:101930000599496A49681E4A116004991D4A116057
:101940000599C9694906490C7F221202FFF7F0FC8C
:101950000298059A11680907090B53681B039BB28B
:10196000C91893681B071B0DC918D368194313695D
:10197000194353691943127E11430F4AFFF7D8FCEC
:10198000039A5D490868120210430860FFE700F0FF
:1019900051F8012149020840884201D0FFE7F6E7EB
:1019A00006B080BD20010B4024010B4028010B40F4
:1019B0002C010B400013404072FF0F005B49086888
:1019C00001221207904308607047C0464A490868E0
:1019D00001229043086070474749086801229043FC
:1019E0000860704744490868012212029043086069
:1019F0007047C046404908680122120290430860BF
:101A00007047C04649490868012212071043086020
:101A10007047C046734908680122120310430860EA
:101A20007047C0460249086810221043086070479A
:101A30003C010B40034800687047C04601480068FD
:101A40007047C04604020B4081B0014668460170F1
:101A500000780249086001B07047C04608030B4097
:101A600080B582B0014601A8018001880F200202E2
:101A70005C48FFF771FC02B080BDC04680B582B003
:101A8000014601A80170007801030F2002033548C8
:101A9000FFF762FC02B080BD80B586B005AB019354
:101AA0001880049103A802900270FFF78FFF01983D
:101AB000008800F023F8049800F02EF802980E4AEF
:101AC00011680123194311600078C00700280DD068
:101AD000FFE7FFF797FFFFE7FFF7ACFF01210902E0
:101AE0000840884201D0FFE7F6E702E0FFF766FF13
:101AF000FFE706B080BDC04608010B4080B582B04C
:101B0000014601A801800188032002030748FFF76E
:101B10000FFC02B080BDC04680B582B00190019933
:101B20000248FF22FFF704FC02B080BD10010B4009
:101B300081B001466846017000780249086001B032
:101B40007047C0460C010B4080B582B0014601A829
:101B500001800188012042020248FFF7FDFB02B02C
:101B600080BDC04638010B4080B582B0014601A857
:101B70000170017802480322FFF7EEFB02B080BD3E
:101B800000010B4080B582B0014601A801700178C8
:101B900014483022FFF7E0FB02B080BD80B582B070
:101BA000014601A801700078FFF7C2FFFFE7FFF7C9
:101BB00041FF012149050840884201D0FFE7F6E7CF
:101BC000084908680122120410430860FFE7FFF784
:101BD00031FF10210840102801D0FFE7F7E702B0DD
:101BE00080BDC04604010B4080B58CB00B900A91BB
:101BF0000A984079C00700285CD0FFE70A9800796E
:101C00000790002804D0FFE7079820280CD018E0A0
:101C10000B9888210691022200F0B8F906990B98DA
:101C2000032200F0B3F919E00B9821210901059175
:101C3000022200F0ABF905990B98032200F0A6F9F7
:101C40000CE00B980521C9010491022200F09EF9D5
:101C500004990B98032200F099F9FFE70B980022F2
:101C6000029202230193114600F0AAF9029A0B98FE
:101C700003230393114600F0A3F90199029B0B98EB
:101C8000009119461A4600F0D3F9029B03990B986C
:101C9000009119461A4600F0CBF9019B029A0B9865
:101CA000114600F0ABF9029A039B0B98114600F025
:101CB000A5F9FFE70A98006808900A98007908A932
:101CC00008710A98807948710B9800F031F80CB0CF
:101CD00080BD000081B000900099024A0120885028
:101CE00001B070470811000082B001900091009B84
:101CF0000199034A88581843885002B07047C0467B
:101D00002810000081B0009000990120C202024812
:101D1000885001B07047C0460100002681B0009095
:101D20000098812149014058C0B201B070470000BD
:101D300080B58AB00990089108980079079000282A
:101D400004D0FFE70798202812D029E009980899C5
:101D50000968491E00F0C8F90998882106910022F7
:101D600000F014F906990998012200F00FF92AE011
:101D7000099808990968491E00F0B6F909982D4993
:101D80000491002200F002F90499099801220592B9
:101D900000F0FCF805990998490700F097F912E05E
:101DA000099808990968490800F09EF909980521E1
:101DB000C9010391002200F0E9F803990998012272
:101DC00000F0E4F8FFE709980023019319461A464A
:101DD00000F0F6F8019A099801230293114600F0E9
:101DE000EFF8019B0998009319461A4600F020F974
:101DF000019B02990998009119461A4600F018F9BA
:101E0000019B099819461A4600F0F8F8019A029BBE
:101E10000998114600F0F2F80998BE494018089A4E
:101E200011795279114302221143034AFFF758FAFC
:101E30000AB080BD01040000BFFF003080B584B04F
:101E40000390029103980299496800F04DF90298B5
:101E500000780190222856D80198810001A04058AE
:101E60008746C046FD1E0000071F0000FD1E000043
:101E7000071F0000071F0000071F0000071F0000CA
:101E8000071F0000071F0000071F0000071F0000BA
:101E9000071F0000071F0000071F0000071F0000AA
:101EA000071F0000F11E0000071F0000F11E0000C8
:101EB000071F0000071F0000071F0000071F00008A
:101EC000071F0000071F0000071F0000071F00007A
:101ED000071F0000071F0000071F0000071F00006A
:101EE000071F0000F11E0000071F0000F11E000088
:101EF00003980121490700F0E9F805E00398002163
:101F000000F0E4F800E0FFE703980299098A002254
:101F1000009200F0ADF8009B03980299C9681A4638
:101F200000F04EF802990878097A08430399794A33
:101F3000885004B080BDC04681B000900099C04A6E
:101F4000C048885001B0704782B00190009100985D
:101F5000019911221202885002B0704780B584B0F6
:101F60000390029101A802700399224A89180091F6
:101F70000178009889004018009000980299072283
:101F80009204FFF7ADF904B080BDC04680B584B0BF
:101F90000390029101A802700399074A89180091E1
:101FA0000178009889004018009000980299034A2F
:101FB000FFF796F904B080BD70180000DBB6C1FFD2
:101FC00010B586B005900491039202A8037005999C
:101FD000084A8918019101780198890040180190F8
:101FE00001980499039A1143034AFFF779F906B05F
:101FF00010BDC046301800007777020010B586B0DB
:1020000005900491039202A8037005993122D20130
:102010008918019101780198890040180190019870
:102020000499039A11438F22FFF75AF906B010BDA5
:1020300010B587B000910446009809990694059060
:102040000492039302A801700699084A8918019125
:102050000178019889004018019005980499084377
:10206000039908430199086007B010BD501800009B
:1020700084B00390029101A802700399064A89185E
:10208000009101780098890040180090029800990A
:10209000086004B07047C0461018000082B001907C
:1020A0000091009800780199824A88500098407801
:1020B0000199012212038850009880780199024A00
:1020C000885002B07047C0460C11000080B582B045
:1020D0000190009101980F494018009903221207BE
:1020E000FFF7FEF802B080BD82B001900091009829
:1020F0000199024A885002B07047C0460818000093
:1021000081B000900099034A8858012318438850F1
:1021100001B070470418000082B00190009100984F
:102120000199024A885002B07047C046481000002A
:1021300081B0009000991120020288580123984331
:10214000885001B0704781B00090009911200202C0
:10215000885801231843885001B0704782B001901D
:102160000091009B0199034A88581843885002B097
:102170007047C0462810000081B0009000990120EF
:10218000C2020248885001B07047C04601000026D4
:1021900082B001900091019802494058009908408E
:1021A00002B070473810000081B000900098812183
:1021B00049014058C0B201B07047000080B582B0FC
:1021C000019000910198FFF7B3FF019811210902D6
:1021D0004018009A11889378194392881143084A4D
:1021E000FFF792F801982A494018009A9179D3791B
:1021F0001943127A11437E22FFF786F802B080BDA0
:102200001867020081B00090009803494058C0B29E
:10221000C00901B07047C0460811000081B00090AD
:10222000009802494058C0B201B070472411000024
:1022300081B000900099024A0248885001B070476E
:1022400004080000030000B180B584B0039002913F
:10225000019203980B49401802990B4AFFF77CF84A
:1022600003980A49401801993F22FFF775F803992E
:10227000074A8818895801221140FFF76DF804B009
:1022800080BDC04610110000FFFF000014110000C7
:102290000411000082B0019000910098007801992B
:1022A000044A88500098407801990122120388500E
:1022B00002B070470810000080B582B00190009114
:1022C000019811210902401800990322D203FFF757
:1022D00043F802B080BD82B001906846017000787A
:1022E000019989225201885002B0704780B582B0AE
:1022F000019068460170FFE70198FFF783FF00280F
:1023000001D0FFE7F8E7019869460978FFF7E3FF96
:1023100002B080BD80B582B00190019803F063F9EE
:1023200002B080BD80B58AB00991089007921E481E
:10233000049008980121C907039148400690099824
:1023400005900698484019490191FEF72BF8184965
:10235000496B07F07DFE07F07DFB1649029107F0FF
:1023600077FE0199079A10600598FEF71BF807F0B1
:1023700071FB029907F06CFE039B07994860079870
:10238000049A11465940006803F0B2F8039B07997C
:1023900008600798049A11465940406803F0A8F86D
:1023A000079948600AB080BD0000F041902A75444A
:1023B000D0222020E12E654280B584B00020039019
:1023C00001A90870FFE701A80078072826DCFFE7CD
:1023D00001A801780020009001F021F9009802A9DD
:1023E0000870FFE702A800787F2811DCFFE7039957
:1023F000481C03900A48405C01F066F97D2080008B
:1024000003F0F9F8FFE70298401C02A90870E9E719
:10241000FFE70198401C01A90870D4E704B080BD13
:10242000C0A5000080B58EB00C900B910B980021D8
:1024300007F0FCF8002828D0FFE70C98002107F0EF
:10244000F5F8002805D0FFE70020069006980D90CB
:10245000E4E0744806900C98002107F008F9002881
:1024600003D1FFE706980D90D8E00C98002107F003
:10247000E8F8002808D1FFE706980121C90748407D
:10248000069006980D90C9E0FFE7002105910C9891
:1024900008900B980790089807F0D3F8002806D109
:1024A000FFE708980121C90748400890FFE707980F
:1024B000002107F0C6F8002806D1FFE707980121A0
:1024C000C90748400790FFE70898079907F0CFF839
:1024D000002809D1FFE707980A90089807900A9802
:1024E000089002200590FFE708980799FDF75AFF2A
:1024F0000A900A984C4907F0BAF800281AD1FFE769
:102500000A980490494907F0A3FD494907F0DCFC0B
:10251000049907F0D9FC08900A98464907F0D4FCC2
:10252000079008980799FDF73DFF0A900598401C11
:102530000590FFE70A9809900998002107F081F8B3
:10254000002806D1FFE709980121C90748400990F2
:10255000FFE70998384907F074F8002803D1FFE72E
:102560000A9806902BE00A99084607F071FD099039
:1025700009980190314907F06BFD314907F0A4FC3F
:10258000019907F065FD0890099802902D4907F020
:102590009BFC029907F05CFD2B4907F095FC079026
:1025A00008980799FDF7FEFE069006980A99039190
:1025B00007F04EFD039907F087FC0690FFE70598AA
:1025C000022806DBFFE706980121C907484006906C
:1025D000FFE7069805998A001C49895807F074FCA2
:1025E00006900B98002107F02CF8002806D1FFE791
:1025F0000699174807F090FD0690FFE70C98002118
:1026000007F01FF8002806D1FFE706980121C90747
:1026100048400690FFE706980D90FFE70D980EB032
:1026200080BDC046DB0FC93FA330893EAF673B3F4B
:10263000000080BFD7B3DD3FF304B539AE5338BFD8
:10264000A854B8BF3C1298407E3F8A40B0A5000015
:10265000DB0F494080B590B00F900F98614907F0AB
:10266000F7FC7D21C90507F02FFC0C900C98FDF7B5
:1026700049FF08900C98002106F0E3FF002804D1E0
:10268000FFE70898401E0890FFE70C980090089814
:10269000FDF782FF0146009807F03EFD0C900C9874
:1026A0001121890607F0D4FC07900798FDF72AFF4F
:1026B00001464D4801400BA8029001800799019105
:1026C0000088FDF771FF0146019807F025FD0146DE
:1026D00002980D9101888A0044498A580A9200881C
:1026E00080004018406809900D9903917F20C00533
:1026F00007F012FD0146039805910A990491099982
:1027000007F0A6FC049902460598069207F0A0FC83
:10271000069907F0D9FB0E900E9810B080BDC04608
:1027200080B590B00F900F982E4907F091FC0C9057
:102730000C98FDF7E7FE08900F98002106F081FF46
:10274000002804D1FFE70898401E0890FFE70C9886
:1027500000900898FDF720FF0146009807F0DCFC88
:102760000C900C981121890607F072FC07900798CD
:10277000FDF7C8FE01461C4801400BA802900180ED
:10278000079901910088FDF70FFF0146019807F0B6
:10279000C3FC014602980D9101888A0013498A58AA
:1027A0000A92008880004018406809900D990391B2
:1027B0007F20C00507F0B0FC0146039805910A99F7
:1027C0000491099907F044FC049902460598069281
:1027D00007F03EFC069907F077FB0E900E9810B0BC
:1027E00080BDC04683F9223EFF01000094AA00008C
:1027F00080B588B007AB1870069105922448049004
:1028000003F008FC04988068224907F021FC224963
:1028100006F03AFF002801D1FFE7FFE707A800789C
:102820000390002808D0FFE70398012811D0FFE7A4
:10283000039802281CD01FE0C5480168C3480290D5
:102840008160174901F0DCF80298006B1349886039
:1028500012E00699BD4801904160BD490968816058
:102860000F4901F0CDF80198006B0C49886003E036
:1028700005980A498860FFE7084800908068094980
:10288000094A02F035FE0099886008B080BDC04654
:10289000141A20206F12833ACCCC4C3DF821202012
:1028A0000AD7A33B0000FAC30000FA4310B583B077
:1028B00002900191684602701D480121890701605C
:1028C0000078002819D1FFE70298016818480160D4
:1028D0000278019B69460C781A554278019C0B7866
:1028E0001B195A708278019C0B781B199A70C0785A
:1028F000019A09788918C87018E0029801680C4894
:102900000160C278019B69460C781A558278019C57
:102910000B781B195A704278019C0B781B199A701E
:102920000078019A09788918C870FFE703B010BDD4
:102930004404202010B588B0864803904C3005A987
:1029400005F078FD0398059901660699C165079918
:102950004166C06D2949029107F07AFBFFF7E0FE5E
:102960000299024603988262C06D07F071FBFFF77F
:1029700071FE0299024603984263006E07F068FBFD
:10298000FFF7CEFE0299024603984262006E07F0FE
:102990005FFBFFF75FFE0299024603980263406EF9
:1029A00007F056FBFFF7BCFE029902460398C2628D
:1029B000406E07F04DFBFFF74DFE01460398816323
:1029C000634B0493426E996858680092CD2292003E
:1029D0009A186724E4001B1903F0D8FA0398049BA3
:1029E000426E5969186900920D2292019A18D124F9
:1029F000A4001B1903F0CAFA08B010BD35FA8E3CCA
:102A000080B582B001A908700E480078012805D071
:102A1000FFE701A8007801280AD1FFE74C48426887
:102A200049490A6080684860064900200870FFE74D
:102A300000F0A0FE04484168006800F0FBFE02B010
:102A400080BDC0460700202018052020B0B58EB0FC
:102A500006910446069812990D940C900B920AA8C0
:102A6000037009AA1170007800284BD1FFE709A86C
:102A700000780590002804D0FFE70598012826D0AB
:102A80003FE00020089007903248426E0C990D9864
:102A9000009208AA07AB03F03BFA2D480490406867
:102AA000089907F011FA01460498274A0392116029
:102AB0008068079907F008FA039A01460498516064
:102AC00000680B9907F000FA2049486019E0204897
:102AD000029040680D9907F0F7F9014602981A4AEA
:102AE0000192116080680C9907F0EEF9019A014695
:102AF0000298516000680B9907F0E6F913494860A5
:102B0000FFE71EE00AA80078012819D1FFE709A80D
:102B10000078012809D1FFE70D980B4908600C984F
:102B200048600B980949486009E009484168064A2D
:102B3000116081685160006804494860FFE7FFE761
:102B4000FFE70EB0B0BDC046080520204C05202090
:102B5000F0232020D022202080B582B00220FEF772
:102B60004DFC01200090C1071F480190FEF746FD73
:102B7000009901980907FEF741FD02B080BDC046EB
:102B800010B53F4918484860012082048A604870A7
:102B90008870164A4A620B46203344058C6258708E
:102BA00098704A640B46403304038C6458709870E4
:102BB0004A660B46603304028C66587098700B4668
:102BC00080335A6044029C60587098700B46A03362
:102BD0005A6084029C6058709870C0314A60C2028A
:102BE0008A604870887010BD00000A4000200A40CA
:102BF00080B582B00146684601700078012804D192
:102C0000FFE701A90020087035E01D480078012881
:102C100013D1FFE71B480188491E01800021405E57
:102C2000002804D5FFE7174905200880FFE714496D
:102C30000020087000F090FCFFE711482021405C64
:102C4000012814D1FFE70F480188491C01800021A9
:102C5000405E062804DBFFE70A4900200880FFE702
:102C6000074920220020885400F076FCFFE701A9E4
:102C700001200870FFE701A8007802B080BDC046BF
:102C8000241920204405202080B586B0034605A8DD
:102C9000037004AB197003A90A700399203901AAC3
:102CA000117000787F2808DBFFE705A90020087075
:102CB0000498401C04A90870FFE705A8007804A93F
:102CC000097800F0ACFC02A900200870FFE702A818
:102CD0000078052811DCFFE701A8007806214143B0
:102CE0003248401802A90978405C00F0EDFCFFE78B
:102CF0000298401C02A90870E9E706B080BDC046F2
:102D000080B586B005AB187004A80170039202A9C3
:102D10000020087001A9087069460870FFE7039851
:102D200069460978405C00283DD0FFE70398694672
:102D30000978405C203802A9087005A800787F282F
:102D400008DBFFE705A9002008700498401C04A9CF
:102D50000870FFE705A8007804A9097800F05FFC77
:102D600001A900200870FFE701A80078052811DC00
:102D7000FFE702A80078062141430C48401801A94A
:102D80000978405C00F0A0FCFFE70198401C01A915
:102D90000870E9E70598801D05A908700098401C97
:102DA00069460870BBE706B080BDC04688A3000036
:102DB00080B584B003AA0092107002A8019001703F
:102DC0000298B030C0B200F045FC012000F042FC97
:102DD000102000F03FFC009801990078097800F07D
:102DE0001EFCFFE703A800787F2809DCFFE700202E
:102DF00000F06AFCFFE70398401C03A90870F1E7A4
:102E000004B080BD10B58EB00DA90870F6480078EA
:102E1000002815D1FFE70DA80078F5490978884208
:102E20000ED1FFE7F14803F0F5F8FC4901200870E6
:102E30000D98F0490870FD494868401C4860EAE177
:102E4000F6480078012812D1FFE70DA80078F44970
:102E5000497888420BD1FFE7F049022008700D98AD
:102E6000F4494870F1494868401C4860D2E1EB4899
:102E70000078022810D1FFE70DA80078F0280BDCBD
:102E8000FFE7E649032008700D98EA498870E74992
:102E90004868401C4860BCE1E0480078032816D12F
:102EA000FFE70DA80078632811DCFFE7DB49042069
:102EB00008700D98DF49C8700D98DA490870DC4930
:102EC00000200870D9494868401C4860A0E1D348F8
:102ED000007804281ED1FFE7D2480078012819DBCA
:102EE000FFE7D0480178491E01700D99D04C227837
:102EF000531C2370CF4BD21811710078002804D1D5
:102F0000FFE7C64905200870FFE7C8494868401C2C
:102F100048607CE1C1480078052810D1FFE7BF492F
:102F2000062008700D98C24B19784A1C1A70C14AC5
:102F300089180871BD494868401C486066E1B74877
:102F40000078062817D1FFE70DA80078B649097860
:102F5000884210D1FFE7B149072008700D98B44BA3
:102F600019784A1C1A70B34A89180871AF49486821
:102F7000401C486049E1A9480078072800D03BE19F
:102F80000DA80078A8494978884200D034E1A349C7
:102F9000002008700D9AA6490B78A64C1B191A71CF
:102FA0000978491D0CAA11800BA908700AA908709C
:102FB000FFE70AA800780CA90988C91E88420EDA22
:102FC000FFE70AA801789B48415C0B9848400BA991
:102FD0000870FFE70A98401C0AA90870E9E70BA8E7
:102FE00000780CA90A8893498918C91E0978884273
:102FF00001D0FFE70FE18F480078894909788842BE
:1030000007D1FFE78B48407885494978884201D04D
:10301000FFE700E10CA8018886484018801E007870
:103020008149097888420BD1FFE70CA801888148C3
:103030004018401E00787C494978884201D0FFE75B
:10304000E9E07C488078182800D0A5E07A48049010
:10305000021D784809900421FEF7D6F8049A0998D1
:1030600008320821FEF7D0F8049A09980C21FEF7DF
:10307000CBF8049A099810321021FEF7C5F8049A8B
:10308000099811460C31039114321421FEF7BCF853
:10309000039A09981821FEF7B7F8049A09981C3288
:1030A0001C21FEF7B1F8049A0998114618310591D0
:1030B00020322021FEF7A8F8059A09982421FEF76E
:1030C000A3F809985D4A079268322821FEF79CF818
:1030D000079A09986C322C21FEF796F8079A0998FE
:1030E00070323021FEF790F809993420085C000214
:1030F00000B23522895C4018FDF74EFA504906911E
:1031000006F0A6FF079A0999D0643620085C0002F1
:1031100000B23722895C4018FDF73EFA069906F0A6
:1031200097FF079A0999106538200890085C0002FB
:1031300000B23922895C4018FDF72EFA069906F094
:1031400087FF079A099950653A20085C000200B28F
:103150003B22895C4018FDF71FFA069906F078FFBC
:10316000079B089A0146099899653C21415C2124F6
:10317000E40019553D21415C324B442419553E2150
:10318000415C314B19703F21435CE7492A240B55C0
:103190004023C05C8854FFE72C480090103002F0B8
:1031A00039FF00994869496806F0B6FF2849086068
:1031B00005F010F81D4801904168491C4160016804
:1031C000491C0160016844204843FDF7EDF90146C0
:1031D000019802914068FDF7E7F901460298FDF772
:1031E000E1F81C4908600FE0FA0420207C1B202035
:1031F00004002020960420200849002008700B4974
:103200004868401C4860FFE7FFE7FFE7FFE7FFE78C
:10321000FFE7FFE7FFE70EB010BDC046FA0420202D
:103220000400202095042020020020209C20202043
:103230009404202096042020F0232020D022202057
:1032400017B7D138541A2020042220207C1B2020BC
:10325000781B2020A420202080B590B000200C9066
:103260000B900A90AE4800784100AE48405A0028C2
:103270002FD1FFE702F010F905F0BCFBB449B548C7
:1032800088600A680C9249680B910A900C980D901E
:103290000B980E900A980F900F9A0E990D98012393
:1032A00007930093FFF7D2FB07999D4802785300DC
:1032B0009C4AD15201788B009D4A0021D15002785E
:1032C00093009D4AD150007882009A49C8208850C6
:1032D00023E19348007841009248405A012800D0E9
:1032E0009AE002F0D9F88E48007881009148405861
:1032F000002808D0FFE78A48007882008D49885866
:10330000401E8850FFE78648007881008948405871
:10331000002800D07FE0824800788100864840582D
:103320001C2814D3FFE77E49087843007D4A032018
:10333000D052087883007E4A0020D0500A7893004B
:103340007C4AD05009788A007B498850E5E074486F
:10335000007881007848405800211B2202F009F9CA
:10336000014609A8018001887748405C012849D1BD
:10337000FFE709A8039000880C210491414373489A
:1033800005904058FDF708F9039A049903460598FB
:103390000C931288514340184068FDF7FDF8039ADA
:1033A0000499034605980B9312885143401880688E
:1033B000FDF7F2F80A906648069000680C9906F04E
:1033C00083FD014606980D9140680B9906F07CFD3F
:1033D0000E900A980F900F9A0E990D980123009362
:1033E000FFF734FB4E49087843004E4A0220D05282
:1033F000087883004E4A0020D05009788A004D4951
:10340000885007E04648007882004B498858401CA5
:103410008850FFE7FFE77FE04148007841004148DE
:10342000405A02285DD1FFE702F036F83C480078A8
:1034300081003F484058042820D8FFE73F484049D2
:10344000CA684168006804F0D8FF089008983D49B0
:1034500006F002F9002808D1FFE731480078820021
:1034600033498858401C885007E02D480078820076
:103470002F49885840088850FFE715E02848017810
:103480004B00284A0121D15201788B00284A0021A3
:10349000D15002789300274AD15000788200264903
:1034A0008858401C8850FFE71D480078810022485A
:1034B00040581C2814D3FFE7194908784300194ADB
:1034C0000320D05208788300194A0020D0500A788F
:1034D0009300184AD05009788A0017498850FFE7AE
:1034E00019E00F48007841000E48405A03280ED1D9
:1034F000FFE70D4928220020029088548861FFF7D9
:103500007FFA02990220094AFFF772F902E001F0FE
:10351000C3FFFFE7FFE7FFE7FFE710B080BDC0464E
:10352000060020202E1D2020080420200000F0C1CD
:103530009C1B2020B01A2020641C20200005202085
:103540004C0520200000204138272020A8202020E2
:103550002C1A20200000164380B582B001A900205B
:103560000870FFE701A80078072823DCFFE701982F
:10357000B030C0B200F06EF8012000F06BF81020FF
:1035800000F068F8694600200870FFE76846007898
:103590007F2809DCFFE7002000F096F8FFE700989D
:1035A000401C69460870F1E7FFE70198401C01A93B
:1035B0000870D7E702B080BD80B584B003A9087059
:1035C00002A900200870FFE702A80078072824DC81
:1035D000FFE70298B030C0B200F03CF8012000F0E4
:1035E00039F8102000F036F801A900200870FFE734
:1035F00001A800787F280ADCFFE703A8007800F024
:1036000063F8FFE70198401C01A90870F0E7FFE7A5
:103610000298401C02A90870D6E704B080BD80B5AE
:1036200084B003AA0192107002A801700298B03011
:10363000C0B200F00FF8019800780009103000F0D7
:1036400009F80398012108430F21084000F002F80F
:1036500004B080BD82B001A90870694600200870DE
:1036600001225204354B1A600870FFE76846007863
:10367000072822DCFFE7012040042F49086001A849
:1036800000780006002805D5FFE70120C00329497E
:10369000086004E00120C00328490860FFE701201A
:1036A0004004274908600198400001A90870FFE71D
:1036B0000098401C69460870D8E7012040041D4965
:1036C000086002B07047C04682B001A90870694620
:1036D0000020087001225204164B1A600870FFE7A0
:1036E00068460078072822DCFFE7012040041249E1
:1036F000086001A800780006002805D5FFE7012032
:10370000C0030C49086004E00120C0030B490860B5
:10371000FFE7012040040A4908600198400001A920
:103720000870FFE70098401C69460870D8E702B0AF
:103730007047C04690320A40A0120A40A0320A40A8
:1037400090120A40A94900200860486007490860B3
:103750004860A3494B68334A136089685160044A42
:10376000012111709C4908604860704710052020B5
:103770000700202080B588B029480188491C0180B5
:103780000088042849DBFFE7264802900068944936
:103790000191496806F0C0FC019902460298224B4B
:1037A00005931A604068896806F0B6FC01460598E2
:1037B00041608C49C43104914A690121CB070393CC
:1037C00011465940006801F093FE039B049902469C
:1037D000059802604A6911465940406801F088FE28
:1037E0000599024604984A60406A0690096806F006
:1037F0002FFC0599024606980792496806F028FCB6
:1038000001460798094A526E0092094A131D02F0B8
:10381000BDFB034900200880FFE708B080BDC0461B
:10382000FC0420200805202000052020D022202094
:103830001805202010B590B00F910E9063480D90A0
:1038400002F0E8FB0D988068614906F001FC6149CF
:1038500005F01AFF002801D1FFE7FFE70E985E4947
:1038600008600F9848605D480188491C0180008805
:10387000022800DAA7E05949002008805648019044
:1038800000685749CF22920089180091496806F0D4
:1038900043FC54493122D200891808914A69012118
:1038A000CB070A931146594001F022FE00990246C7
:1038B00001984D4B06931A604068896806F02CFC0D
:1038C00008990A9B4A691146594001F011FE069970
:1038D000024608984A60806A0968444A059212685C
:1038E000029206F0B5FB029906F0EEFA059A0699E7
:1038F000034608981360806A49685268039206F08C
:10390000A7FB039906F0E0FA08990A9B024605987E
:1039100042600A6A11465940006801F0E9FD0899C1
:103920000A9B0246059802600A6A1146594040689F
:1039300001F0DEFD059A0699034608985360126867
:103940000492406A096806F083FB049906F0BCFA09
:10395000059A069903460898254C099423605268F5
:103960000792406A496806F073FB079906F0ACFAC3
:1039700008990A9B0246099842608A6B1146594091
:10398000406801F0B5FD08990A9B024609985A4023
:10399000184C0B9462608A6B11465940006801F024
:1039A000A7FD0A9A01460B985140016041680068E2
:1039B000114A0C92FEF7B6FC0C9802680F490A6196
:1039C00040684861FFE710B010BDC04608222020C3
:1039D0006F12833ACCCCCC3D2C0520202005202032
:1039E000F02320204C052020240520203405202011
:1039F0003C0520200C1A2020241A20200804202016
:103A000080B592B010900F9100200E901098B430B5
:103A100002F000FB1098BC2140588A49FCF7C2FC18
:103A20000E900E980D900F98874906F011FB0146F5
:103A30000D9805F011FE002813D1FFE70E980C90A9
:103A40000F98824906F004FB01460C9805F01CFE15
:103A5000002806D1FFE70E9801F078FC002803D07B
:103A6000FFE70F980E90FFE70E98794905F0E9FD02
:103A7000002803D1FFE700201190DFE01099C8680B
:103A8000086110990B914868896806F045FB0B990D
:103A9000C86010980078C00700281FD0FFE7109971
:103AA000C868496905F0F0FD002804D1FFE71099C6
:103AB0004869C860FFE71099C86849690122D207C0
:103AC000514005F0C9FD002807D1FFE7109948696A
:103AD0000122D2075040C860FFE7FFE71098007846
:103AE0004007C00F00282ED0FFE71098C0680021C3
:103AF00005F0BDFD002804D1FFE71098C0680A90CA
:103B000006E01098C0680121C90748400A90FFE705
:103B10000A981099896905F09FFD002812D1FFE7E6
:103B200010990991886AC96806F092FA099A0E9963
:103B3000D269089206F08CFA089906F0C5F909993D
:103B4000C861FFE711E010990791886AC96806F01B
:103B50007FFA079A0E99D269069206F079FA0699C9
:103B600006F0B2F90799C861FFE71098007880075E
:103B7000C00F00281FD0FFE71099C869096A05F037
:103B800083FD002804D1FFE71099086AC861FFE7A8
:103B90001099C869096A0122D207514005F05CFDFD
:103BA000002807D1FFE71099086A0122D207504088
:103BB000C861FFE7FFE71099086B4863109A059208
:103BC000506AD1680291D269019206F041FA0199D6
:103BD00006F07AF90599024602980492CA6A03929D
:103BE000096906F099FA0146039806F031FA04993A
:103BF00006F06AF9059908631099086B896B05F05E
:103C000043FD002804D1FFE71099886B0863FFE7A4
:103C10001099086B896B0122D207514005F01CFDF9
:103C2000002807D1FFE71099886B0122D207504086
:103C30000863FFE71098006B1190FFE7119812B02E
:103C400080BDC04600007A446666863F3333733FCA
:103C500017B7D13870B586B0059004A801900170EF
:103C600000785021029141434B4803904058FCF7A3
:103C700049FC019A029905460398059C2378012680
:103C80003540FE2633405B192370127851434018AB
:103C90004068FCF737FC019A029905460398059C99
:103CA0002378ED07AD0FFD2633405B1923701278A2
:103CB000514340188068FCF725FC019A029905469B
:103CC0000398059C2378ED076D0FFB2633405B19A5
:103CD000237014780B466343C318DB68059C63604C
:103CE00014780B466343C3181B69059CA3601478C2
:103CF0000B466343C3185B69059CE36014780B466D
:103D00006343C3189B69059C236114780B46634386
:103D1000C318DB69059C636114780B466343C318C1
:103D20001B6A059CA36114780B466343C3185B6A46
:103D3000059CE36114780B466343C3189B6A059C9A
:103D4000236214780B466343C318DB6A059C6362E5
:103D500014780B466343C3181B6B059CA36214784D
:103D60000B466343C3185B6B059CE36214780B46F8
:103D70006343C3189B6B059C236314780B46634312
:103D8000C318DB6B059C6363127851434018006CC9
:103D90000599886306B070BD48A2000070B588B070
:103DA000002004900390154C019400900125A80573
:103DB000029013483F210B06079312490591C82230
:103DC0000692FDF7BFF904980599069A079B0390A0
:103DD000AE060296019400900B48FDF7B3F90498E3
:103DE0000599069A079B0390ED06029501940090B1
:103DF0000648FDF7A7F908B070BDC04600200A408C
:103E00004C042020B80B00007C04202064042020F7
:103E100080B584B001910246019803A90A800290FE
:103E2000029809888900012201F004F904B080BDDC
:103E300080B582B001A900200880FFE701A80088B2
:103E400006280DDCFFE701A800884101054840185D
:103E500000F00AF8FFE70198401C01A90880EDE78F
:103E600002B080BD2419202080B582B00190019855
:103E700080680121890488420AD1FFE701994868D6
:103E80008968FDF789FB414248410199487009E082
:103E9000019948688968FDF77FFB411E88410199B7
:103EA0004870FFE701984078002838D1FFE7019873
:103EB000807800280CD0FFE702F0A4F90199C860CF
:103EC00002F0A0F90199486101990020886125E07C
:103ED00002F098F90199C968401A4249884201D311
:103EE000FFE71AE002F08EF901994969401AFB28B0
:103EF00012D3FFE702F086F9019948610199032086
:103F0000087001980078032805D1FFE701998869B6
:103F1000401C8861FFE7FFE7FFE7FFE742E0019809
:103F2000807800283DD1FFE702F06CF90199086123
:103F300001990869C968401A2A4988420DD3FFE7E8
:103F400001980422027001990020C8617D20C00000
:103F50003F21090601F0B6FA22E001990869C96813
:103F6000401A214988420ED3FFE7019902200870C8
:103F700001990020C8617D20C0003F21090601226F
:103F800001F0A0FA0BE001980122027001990020D3
:103F9000C8613F200106642001F094FAFFE7FFE7C3
:103FA000FFE7FFE7019948788870019800780228B8
:103FB00005D0FFE701980078012811D1FFE70199AA
:103FC000C869401CC8610198C06980084B2806D3A5
:103FD000FFE70199002008700199C861FFE7FFE73A
:103FE00002B080BD89130000E903000010B5FFB0E6
:103FF000CBB05520C10002A8C82201F01BF801A9CE
:1040000000200880FFE701A80088C7281FDCFFE721
:1040100001A80088810002A8405801F0AFF90028EB
:1040200008D1FFE701A80088820002A8805809494A
:10403000885006E001A800888200064900208850C8
:10404000FFE7FFE70198401C01A90880DBE77FB08C
:104050004BB010BD1400202080B582B0002001902C
:104060000090592001A9FFF7D3FE019801F07AF9D9
:10407000002806D1FFE70198FCF744FA0D490870C3
:10408000FFE774206946FFF7C3FE009801F06AF964
:10409000002806D1FFE70098FCF734FA06490880AB
:1040A00003E07F20C0050090FFE7FFF79FFF02B00D
:1040B00080BDC046460520203403202080B584B052
:1040C00001200090C007039098490291086000F019
:1040D0003FF900980299000708600220019001F062
:1040E0008AFA019803998F4A116001F084FA0299C3
:1040F0000398086004B080BD80B586B001200190AF
:10410000C007059089490491086000F021F90198E1
:1041100000078449029108600220039001F06BFAC5
:10412000029A03980599116001F065FA04990598BF
:10413000086006B080BDC04680B586B005A908708D
:1041400003A900200290087000F0F2F8029804A978
:104150000870FFE704A80078072823DCFFE70120A8
:10416000C007019071490860022001F044FA0198EB
:104170006C4908600398400003A908706A48006809
:10418000C000002805D5FFE70398401C03A908706C
:10419000FFE7012001F02FFAFFE70498401C04A973
:1041A0000870D7E705A80078002803D1FFE7FFF7DC
:1041B000A3FF02E0FFF782FFFFE703A8007806B045
:1041C00080BDC04680B584B003A9087000F0C0F877
:1041D0000120C0075549086002A900200870FFE7C8
:1041E00002A8007807282CDCFFE703A80078C009A4
:1041F000002805D0FFE7012000074A49086004E0D5
:104200000120000749490860FFE70398400003A91F
:1042100008700220019001F0EEF901980121C90710
:104220000091404A116001F0E6F9009901983F4A77
:10423000116001F0E0F9FFE70298401C02A9087044
:10424000CEE704B080BDC04680B584B000F080F8F1
:1042500001200207009233490A60C00703900860FA
:104260000420019001F0C7F9009901982F4A0292A9
:10427000116001F0C0F902990398086004B080BD94
:1042800080B584B000F064F80120C207019227498C
:104290000A600007029008600420039001F0ABF967
:1042A000019B029903981F4A1360116001F0A3F962
:1042B00004B080BD80B584B002A90020087000F071
:1042C00037F8012001900107164A0092116001F0B1
:1042D00092F9009A0198C107116001F08CF9FFE78B
:1042E00011480068C00000280FD5FFE70298411C64
:1042F00002A801700078FB2806DBFFE7FFF7C0FF8C
:1043000003A90120087008E0EAE70120C007074977
:10431000086003A900200870FFE703A8007804B034
:1043200080BDC04690120A4080130A40A0120A4085
:1043300080B582B000230093012042040220019046
:104340001946FDF7A7F80198FDF758F802B080BDAF
:1043500080B50220FDF7C0F8012001078C48FDF769
:1043600063F880BD80B58CB00920FDF7D5F80A2030
:10437000FDF7D2F81E2007210291FDF7FFF801207A
:104380000990810381480B90FDF744F809980421B6
:104390000391FDF7F3F87E480A9002210691FDF79C
:1043A00039F8029805210591FDF7E8F80A980821E7
:1043B000FDF730F805993620FDF7E0F809990A98DD
:1043C0004906FDF727F805992420FDF7D7F8099944
:1043D0000A98C903FDF71EF805992520FDF7CEF8C8
:1043E00009990A980904FDF715F802993420FDF798
:1043F000C5F809990A98C905FDF70CF80399062034
:10440000FDF7BCF803990A98FDF704F8039806999C
:1044100000230893019300931A46FDF793F8069939
:10442000089B01930093032004901A46FDF78AF835
:104430000398FCF7D7FF0498FCF7D4FF06991420E3
:10444000FDF79CF806991520FDF770F806991220E3
:10445000FDF794F806991320FDF768F806992D20CA
:10446000FDF78CF806992E20FDF760F806990E20CE
:10447000FDF784F806990F20FDF758F804992120DC
:10448000FDF77CF804992320FDF778F804992220A1
:10449000FDF74CF80898FDF715F82720FCF7DAFF30
:1044A000089B099800934204079230201946FCF7B4
:1044B000DBFF0598FDF706F80698FDF703F83820AE
:1044C000FDF700F83920FCF7FDFF3120FCF7FAFF7B
:1044D0002C20FCF7F7FF2B20FCF7F4FF2620FCF73D
:1044E000F1FF3B20FCF7EEFF1F20FCF7EBFF079AE4
:1044F000089B009318201946FCF7B6FF079A089B03
:10450000009319201946FCF7AFFF079A089B009308
:104510001A201946FCF7A8FF079A089B00931B2056
:104520001946FCF7A1FF079A089B00931C20194627
:10453000FCF79AFF079A089B009337201946FCF76F
:10454000D5FF2F20FCF7BEFF2020FCF7BBFF2A2061
:10455000FCF7B8FF09990A98C906FCF711FF0A98F9
:104560000C49FDF72DF80A980B49FCF753FF0B98FF
:104570000A49FCF705FF0B980949FDF721F80B984C
:104580000849FCF747FF0CB080BDC04600200A4038
:1045900000000A40010002900100029800005F0C38
:1045A0000080000200805F0E80B582B0124913487F
:1045B0000190FDF7A1F8019803214902FDF788F861
:1045C0000198FDF747F80198FDF778F80198272141
:1045D000FDF7D0F8019800210091FDF7B7F8009998
:1045E0000198FDF7A1F80198FDF74AF80198FDF749
:1045F0003DF802B080BDC046D8A9000000200F40A1
:1046000080B586B02E492F480590FDF747FD0598E7
:104610002D49FDF7E9FA0598002203921146FDF7AE
:1046200027FD039B0598009319461A46FDF700FDE8
:10463000039A05981146FDF791FC0399059801220C
:104640000192FDF715FD0199039B0598009119460C
:104650001A46FDF7EDFC019A03990598FDF77EFCDB
:104660000399059802220292FDF702FD0299039B2D
:104670000598009119461A46FDF7DAFC029A03994B
:104680000598FDF76BFC0399059803220492FDF74A
:10469000EFFC039B04990598009119461A46FDF713
:1046A000C7FC0399049A0598FDF758FC0598FDF797
:1046B00011FB05980F21FDF747FC06B080BDC046F1
:1046C000DAA9000000008640E0A9000080B584B0AF
:1046D0001B491C480390FDF7E1FC03981A49FDF7BC
:1046E00083FA0398002201921146FDF7C1FC019B59
:1046F0000398009319461A46FDF79AFC019A03980D
:104700001146FDF72BFC0199039801220292FDF757
:10471000AFFC019B02990398009119461A46FDF7D8
:1047200087FC0199029A0398FDF718FC0398FDF79E
:10473000D1FA03980321FDF707FC04B080BDC04601
:10474000E8A9000000208640ECA9000080B584B0F4
:104750001B491C480390FDF7A1FC03981A49FDF77B
:10476000E7FA0398002201921146FDF781FC019BB4
:104770000398009319461A46FDF75AFC019A0398CC
:104780001146FDF7EBFB0199039801220292FDF718
:104790006FFC019B02990398009119461A46FDF798
:1047A00047FC0199029A0398FDF7D8FB0398FDF79F
:1047B00091FA03980321FDF7C7FB04B080BDC04602
:1047C000F4A9000000A08640F8A9000080B582B0DE
:1047D0000B49EB480190FDF747F801980949FCF7B0
:1047E000EBFF01980121FDF72DF80198102102221D
:1047F000FDF74CF80198FCF7C9FF02B080BDC04638
:1048000000AA000002AA000080B5FFE7FDF716F934
:1048100003490840884201D0FFE7F7E780BDC04662
:104820000003200080B582B000200190FDF70CF954
:10483000012000900002FDF713F90198FDF794F9AB
:10484000FDF7CAF8FDF7D6F8009A032000031421FB
:10485000FDF722F90A48FDF73DF81020FDF792F91F
:104860000920FDF70BF9FDF7D5F8FDF7DBF8009807
:104870004002FDF769F90198FDF790F902B080BD9B
:104880000CAA000080B5024800F07CF980BDC0464B
:104890008038010080B582B00A49E3480190FDF7F5
:1048A000FDFB01980849FDF7C9FA01980121FDF7C0
:1048B0001BFA1020022100F0ADFD0198FDF70AFA65
:1048C00002B080BD34AA000038AA000080B582B0D2
:1048D0000A49E2480190FDF7E1FB01980849FDF71C
:1048E000ADFA01980121FDF7FFF91120022100F036
:1048F00091FD0198FDF7EEF902B080BD4CAA0000D1
:1049000050AA000080B582B010499A480190FDF786
:10491000C1FC01980E49FDF751FC01980021FDF7FB
:10492000CBFC019802212022FDF78EFC0198012189
:1049300000918902FDF712FC00990F2000F06AFD3A
:104940000198FDF700FC02B080BDC04664AA0000DB
:1049500066AA000080B582B00D4987480190FDF736
:1049600099FC01980B49FDF729FC01980021FDF7FE
:10497000A3FC019815212D22FDF766FC0198012169
:104980008902FDF7EBFB0198FDF7DDFB02B080BD6E
:1049900070AA000072AA000080B582B00D49774865
:1049A0000190FDF777FC01980B49FDF707FC019892
:1049B0000021FDF781FC019815212D22FDF744FC13
:1049C000019801218902FDF7C9FB0198FDF7BBFBA6
:1049D00002B080BD7CAA00007EAA000080B582B033
:1049E0000D49F5480190FDF755FC01980B49FDF77D
:1049F000E5FB01980021FDF75FFC01982B211A22AD
:104A0000FDF722FC019801218902FDF7A7FB01981F
:104A1000FDF799FB02B080BD88AA00008AAA0000B9
:104A200080B500F03DF8FFF79DFCFFF7FBFEFFF7B8
:104A3000E7FDFFF74BFEFFF789FEFFF72BFFFFF7C0
:104A400045FFFFF7B1FDFFF75DFFFFF783FFFFF7BE
:104A5000A3FFFFF7C3FFFFF7B9FEFFF713FFFFF751
:104A6000D3FE0949B82200208854084988540849CF
:104A7000742288540749885407492C2288540749CE
:104A80002422885480BDC046941D2020501E202022
:104A90000C1F2020AC1F202024202020841F202039
:104AA00080B58EB065480190FCF782FDF548029014
:104AB000FCF77EFD2B480390FDF73EFA2A48049050
:104AC000FDF73AFA29480590FDF736FA5648069060
:104AD000FDF732FA61480790FDF72EFA2448089056
:104AE000FCF7E4FDA9480990FDF7A2FB9D480A9058
:104AF000FDF79EFBA6480B90FDF79AFBAE480C9085
:104B0000FDF796FB1E480D90FCF790FE0198FCF710
:104B100097FC0298FCF794FC0398FDF7F3F80498CF
:104B2000FDF7F0F80598FDF7EDF80698FDF7EAF8BF
:104B30000798FDF7E7F80898FCF7AEFD0998FDF730
:104B40001BFB0A98FDF718FB0B98FDF715FB0C985B
:104B5000FDF712FB0D98FCF723FE1020FCF78EFBEF
:104B60000EB080BD000086400020864000A0864038
:104B700000200F4000801040000010400020104036
:104B80000080464080B584B002900298401E000E1E
:104B9000002803D0FFE70120039011E00298401E97
:104BA0000949086000200190C043032100F032FC55
:104BB000019806490860064A072111600390FFE743
:104BC000039804B080BDC04614E000E018E000E0A7
:104BD00010E000E002490868401C08607047C046C9
:104BE000A422202080B51048FDF798F8012818D19C
:104BF000FFE70E4801F00EFA01F0C6FA0C48016812
:104C0000491C016001680B4848430121C8410A4919
:104C1000884205D8FFE709480121FCF70FFDFFE7AF
:104C200000E0FFE780BDC04600400840A8222020E9
:104C300048052020295C8FC251B81E0500000A409B
:104C400080B50648FDF76AF8012804D1FFE704485B
:104C500001F0E0F900E0FFE780BDC046008086403B
:104C6000B822202080B584B01B4801900021FEF7B7
:104C7000F1FF0198C4300121FEF7ECFF01983121CA
:104C80000091C90040180221FEF7E4FF019893212A
:104C90008900401803210291FEF7DCFF009A019879
:104CA000029912018018FEF7D5FF0C4A0C480D49F5
:104CB00003F0BCFC0C4A0D4803900D4903F0B6FC10
:104CC00003980C4A0C4903F0B1FC03980B4A0C49B9
:104CD00003F0ACFC04B080BD4C052020EC03202088
:104CE0000000C84200002041D003202000004843BB
:104CF0000000A040980320200000A041B403202021
:104D00000000704180B584B00120810202911F48EB
:104D1000FDF73EFA0299884210D1FFE71B48019047
:104D2000FDF77CFA014603A801700078FEF76AF8E7
:104D3000019801218902FDF7EFF9FFE704B080BD7A
:104D400080B582B00748FDF72FFA0B2806D1FFE7A0
:104D50000448FDF763FA01A9087000E0FFE702B01C
:104D600080BDC0460000104080B582B00748FDF706
:104D70001BFA0B2806D1FFE70548FDF74FFA01A9FA
:104D8000087000E0FFE702B080BDC0460080104020
:104D90000020104080B582B00748FDF705FA0B28C7
:104DA00006D1FFE70448FDF739FA01A9087000E0D1
:104DB000FFE702B080BDC0460000504080B584B01F
:104DC000039003980003039000F0B6F800F090F809
:104DD000012041060191B6480290FCF7F9FA202023
:104DE00003F0A4FC03A80090807803F09FFC0098D7
:104DF000407803F09BFC0098007803F097FC019941
:104E00000298FCF70FFC00F073F804B080BDC046B8
:104E100080B586B00590049103A802800120410668
:104E2000A348FCF7D5FA032003F080FC04A8019006
:104E3000807803F07BFC0198407803F077FC0198C0
:104E4000007803F073FC02A900200880FFE702A8A5
:104E5000008803A9098888420DDAFFE7FF2003F0E4
:104E600065FC059902AA12888854FFE70298401C45
:104E700002A90880EBE7012041068D48FCF7D2FB30
:104E800006B080BD00200A4010B586B005A9049187
:104E90000020009008800120410602918448039080
:104EA000FCF796FA902003F041FC009803F03EFCDA
:104EB000009803F03BFC009803F038FCFF200190C1
:104EC00003F034FC049A014601980B02059919433A
:104ED000118003F02BFC0299049B04460398059A69
:104EE00022431A80FCF79EFB0498008806B010BD90
:104EF00080B584B003A900200870FFE701204106B7
:104F000001916B480290FCF763FA052003F00EFC58
:104F1000FF2003F00BFC01990246029803AB1A70C4
:104F2000FCF780FBFFE703A80078C0070028E5D165
:104F3000FFE704B080BDC04680B582B001204106C5
:104F400000915B480190FCF743FA062003F0EEFB6A
:104F500000990198FCF766FB02B080BD80B586B071
:104F60000590049103A80280FFF7E6FF01204106A7
:104F70004F48FCF72DFA022003F0D8FB04A801905B
:104F8000807803F0D3FB0198407803F0CFFB0198C1
:104F9000007803F0CBFB02A900200880FFE702A8FD
:104FA000008803A9098888420CDAFFE7059802A95E
:104FB0000988405C03F0BAFBFFE70298401C02A995
:104FC0000880ECE7012041063948FCF72BFBFFF78E
:104FD0008FFF06B080BDC04680B582B0FFF7ACFF42
:104FE000FFF786FF01204106009131480190FCF750
:104FF000EFF9C72003F09AFB00990198FCF712FB28
:10500000FFF776FF02B080BD80B582B00120410677
:10501000009127480190FCF7DBF9B92003F086FBEB
:1050200000990198FCF7FEFA032000F0E4FA02B0C0
:1050300080BDC04680B586B005900491039201A959
:10504000002008800880FFE701A8008803998842B3
:1050500015D2FFE7049801A909888900411802A820
:105060000422FFF7D5FE0298059908600598001DF7
:105070000590FFE70198401C01A90880E4E706B00D
:1050800080BD000080B582B0012041060091084833
:105090000190FCF79DF9AB2003F048FB00990198C3
:1050A000FCF7C0FA032000F0A6FA02B080BDC046AB
:1050B00000200A4080B588B00790069105A80280BC
:1050C0004E4900910699090B049106994C4A1140EA
:1050D00003AA1180039A012109038A1A02A90A80EE
:1050E00000880988884204DCFFE7059802A9088047
:1050F000FFE7FFE700980499090301221203FFF775
:1051000087FE01A900200880FFE701A8008802A906
:105110000988884211DAFFE7009803A9098801AAE3
:1051200012888918405CFF2801D0FFE705E0FFE7FF
:105130000198401C01A90880E7E701A8008802A99E
:105140000988884225DAFFE70498FFF737FE01A9AE
:1051500000200880FFE701A8008802A9098888428A
:105160000FDAFFE7079801A90A88805C009903AB72
:105170001B88D2188854FFE70198401C01A90880B9
:10518000E9E70098049909030122120300F03CF8B2
:1051900006E00798069902AA128800F035F8FFE7A2
:1051A00005A8008802A90988884201D1FFE723E009
:1051B0000498401C049003A90020088002A80288DB
:1051C0000799891807910188069840180690029956
:1051D0000598411A05A8018000880A49884205DB24
:1051E000FFE70120000302A9088003E0059802A957
:1051F0000880FFE7FFE77DE708B080BD2009202099
:10520000FF0F00000110000080B586B005900491EA
:1052100003A8028004A90A78012109028A1A02A9B6
:105220000A8000880988884204DCFFE7039802A905
:105230000880FFE7FFE70598049902AA0192128807
:10524000FFF78CFE019903A800880988884201D1E4
:10525000FFE71EE002A802880599891805910188D8
:1052600004984018049002990398411A03A80180F9
:105270000088FF210231884205DBFFE701200002A0
:1052800002A9088003E0039802A90880FFE7FFE76E
:10529000D1E706B080BD80B586B005900491039239
:1052A00001A9002008800880FFE701A80088039971
:1052B000884215D2FFE7059800680290049801A97A
:1052C00009888900411802A80422FFF7F3FE059817
:1052D000001D0590FFE70198401C01A90880E4E744
:1052E00006B080BD80B584B001910246019803A943
:1052F0000A800290029A044802600988890001220B
:10530000FFF7C9FF04B080BDA41A202084B0039128
:105310000290039802994A1E914108430190019915
:105320000120C00781430248401AC00F04B07047F3
:105330000000F07F81B0009000990120C0078143F8
:10534000FF20C005401AC00F01B0704781B0009027
:1053500000990120C0078143FF20C005401AC00FFB
:1053600001B0704781B0009000990120C0078143CF
:10537000FF20C005401AC00F01B0704781B00090F7
:1053800000990120C0078143FF20C005401AC00FCB
:1053900001B0704781B00146684601700021405657
:1053A000002809D4FFE7684601781F20014001204A
:1053B000884002490860FFE701B0704780E200E0E2
:1053C00081B001466846017000214056002809D48A
:1053D000FFE7684601781F200140012088400C4902
:1053E0000860FFE701B0704781B001466846017070
:1053F00000214056002809D4FFE7684601781F20A5
:1054000001400120884002490860FFE701B0704771
:1054100000E100E070B582B0024601A80270009180
:1054200000214056002816D4FFE7002401A90857A0
:105430000322D3431840174A805809578C07E50EBA
:10544000FF24AC40A043009CA401E4B2AC40204344
:10545000194088501AE001A908780F242040083824
:105460000322D34318400A4A8058002549578D0724
:10547000EE0EFF25B540A843009DAD01EDB2B5404D
:1054800028432140083919408850FFE702B070BD19
:105490001CED00E000E400E080B582B00020019047
:1054A000FDF7AEFA019AE048282142548261104685
:1054B0001146FDF79DF902B080BDC04680B5FBF7EF
:1054C00049FA80BD80B584B00390029101A80280A2
:1054D00003980521FAF782FE044948610298886121
:1054E000012088700198088004B080BD381A2020FF
:1054F00080B586B00490039102920020002806D166
:10550000FFE70498FFF716FF002808D111E0049880
:10551000FAF71EFFFFF7FAFE00280AD0FFE703980C
:10552000029904F0D1FC3F21090604F091FD059099
:105530001CE00498039904F084F8002803D1FFE7E5
:10554000039801900FE00498029904F090F8002865
:1055500003D1FFE70298009002E004980090FFE773
:1055600000980190FFE701980590FFE7059806B0C5
:1055700080BD85B0049003910292049803998842FB
:1055800003DAFFE7039801900DE00498029988423E
:1055900003DDFFE70298009002E004980090FFE727
:1055A00000980190FFE7019805B0704780B582B080
:1055B000019001997D20C000484300F002F802B03C
:1055C00080BD80B582B0019000F0FEFD0090FFE745
:1055D00000F0FAFD0099401A0199884201D2FFE7D4
:1055E000F6E702B080BD80B582B001900198FFF768
:1055F000DDFF02B080BD80B582B001900198FFF759
:10560000E0FF02B080BD80B584B00B46014603A820
:10561000017002A90B70019200780978019A03F0D9
:105620009DFA04B080BD80B584B00B46014603A846
:10563000017002A90B70019200780978019AFDF7B8
:105640005FFB04B080BD000080B586B038480078AC
:105650004100F948405A002828D1FFE772490591D6
:105660002822022088542922012088543148886148
:1056700000200490FDF7C4F9049A10461146FDF786
:10568000B7F805983821405C01280ED1FFE728487B
:1056900000784200E849885A401C88526249292211
:1056A0000020885438228854FFE73FE020480078E3
:1056B0004100E148405A01281DD1FFE75A490391B2
:1056C000282202208854002002908861FDF798F972
:1056D000029A10461146FDF78BF803982A21405C88
:1056E000012807D1FFE7124800784200D249022082
:1056F0008852FFE719E00E4800784100CE48405A32
:1057000002280ED1FFE74849282200200190885442
:105710008861FDF775F901990220444AFDF768F8A0
:1057200002E0FFF7B9FEFFE7FFE7FFE706B080BD45
:105730002C1D20200000B44280B586B03948007886
:105740004100BD48405A00282AD1FFE7364905915B
:105750002822042088542922012088543448886152
:105760003448086300200490FDF74AF9049A104673
:105770001146FDF73DF805983821405C01280ED10F
:10578000FFE7284800784200AB49885A401C8852FD
:10579000254929220020885438228854FFE73FE019
:1057A000204800784100A448405A01281DD1FFE755
:1057B0001D4903912822042088540020029088610A
:1057C000FDF71EF9029A10461146FDF711F80398ED
:1057D0002A21405C012807D1FFE7124800784200E7
:1057E000954902208852FFE719E00E4800784100F1
:1057F0009148405A02280ED1FFE70B492822002089
:10580000019088548861FDF7FBF801990220074A4E
:10581000FCF7EEFF02E0FFF73FFEFFE7FFE7FFE7E1
:1058200006B080BD08002020080420200000F0C140
:10583000000020411027000080B582B07D4800782C
:1058400041007D48405A002816D1FFE7FFF724FEAB
:10585000784801784B00784A0121D15200788200C3
:1058600076497D2000018850002300937549184631
:105870001A46FDF7EBF8DBE06E48007841006E4811
:10588000405A01282FD1FFE7FFF706FE694800784C
:1058900081006A484058002808D0FFE76548007832
:1058A000820066498858401E8850FFE761480078AA
:1058B000810062484058002814D1FFE75D48017814
:1058C0004B005D4A0221D152007882005B497D2065
:1058D00000018850002300935A4819461A46FDF7E4
:1058E000B5F8FFE7A3E05348007841005248405A1A
:1058F00002282FD1FFE7FFF7CFFD4E480078810047
:105900004E484058002808D0FFE74A4800788200F7
:105910004A498858401E8850FFE746480078810071
:1059200046484058002814D1FFE7424801784B0010
:10593000414A0321D15200788200FE497D200001B6
:105940008850002300933E4918461A46FDF77EF81A
:10595000FFE76BE0374800784100F548405A0328DC
:105960002FD1FFE7FFF798FD324800788100F1481A
:105970004058002808D0FFE72E4800788200ED4903
:105980008858401E8850FFE72A4800788100E9487F
:105990004058002814D1FFE7264801784B00E44A1C
:1059A0000421D15200788200E2497D200001885014
:1059B00000230093224819461A46FDF747F8FFE7EF
:1059C00033E01C4800784100D948405A042828D1C7
:1059D000FFE7FFF761FD174800788100D548405880
:1059E000002808D0FFE7134800788200D149885882
:1059F000401E8850FFE70F4800788100CD4840588E
:105A000000280DD1FFE70B4801784B00C84A05215B
:105A1000D15200788200C7497D2000018850FFE7FD
:105A200002E0FFF739FDFFE7FFE7FFE7FFE7FFE7EA
:105A300002B080BD090020202E1D2020B01A202099
:105A40000000C8C20000C84210B58CB00020089009
:105A500007900690B54800784100B548405A0028A4
:105A600038D1FFE7FFF718FDB5494A68B2480490FE
:105A700002608A68426009688160AC490A78540013
:105A8000AB4B012205921A5309788B00A94A7D215C
:105A90000901D15000210891A84A07920691006897
:105AA000089904F011FA0146049809914068079991
:105AB00004F00AFA014604980A918068069904F0F5
:105AC00003FA059B0B900B9A0A9909980093FCF72F
:105AD000BDFF28E1954800784100EF48405A012871
:105AE00049D1FFE7FFF7D8FC904800788100EB48E8
:105AF0004058002808D0FFE78C4800788200E7492A
:105B00008858401E8850FFE7884800788100FD488B
:105B1000405800282ED1FFE7844801784B00F84A0E
:105B20000221D15200788200F6497D200001885080
:105B300082480890079000200690D948039000689A
:105B4000089904F0C1F90146039809914068079942
:105B500004F0BAF9014603980A918068069904F0A6
:105B6000B3F90B900B9A0A99099801230093FCF75B
:105B70006DFFFFE7D6E06D4800784100E048405AED
:105B8000022849D1FFE7FFF787FC684800788100C9
:105B9000DC484058002808D0FFE7644800788200BD
:105BA000D8498858401E8850FFE760480078810037
:105BB000D448405800282ED1FFE75C4801784B00BC
:105BC000CF4A0321D15200788200CE497D200001C6
:105BD00088505A480890002007900690B0480290DC
:105BE0000068089904F070F901460298099140682C
:105BF000079904F069F9014602980A9180680699AC
:105C000004F062F90B900B9A0A990998012300930A
:105C1000FCF71CFFFFE784E0444800784100B848E7
:105C2000405A032848D1FFE7FFF736FC3F48007889
:105C30008100B4484058002808D0FFE73B4800786E
:105C40008200B0498858401E8850FFE737480078E6
:105C50008100AC48405800282DD1FFE73348017837
:105C60004B00A74A0421D15200788200A5497D202B
:105C70000001885000200890079006908848019005
:105C80000068089904F020F90146019809914068DC
:105C9000079904F019F9014601980A91806806995C
:105CA00004F012F90B900B9A0A99099801230093BA
:105CB000FCF7CCFEFFE733E01C4800784100904839
:105CC000405A042828D1FFE7FFF7E6FB1748007881
:105CD00081008C484058002808D0FFE7134800781E
:105CE000820088498858401E8850FFE70F48007896
:105CF00081008448405800280DD1FFE70B48017807
:105D00004B007F4A0521D152007882007D497D20D9
:105D100000018850FFE702E0FFF7BEFBFFE7FFE767
:105D2000FFE7FFE7FFE70CB010BDC0460A002020E8
:105D30002E1D2020B01A20202C1A20200000C8423E
:105D4000F023202080B58AB0FFF7A6FB51480078E9
:105D500041006B48405A00283AD1FFE753494A684E
:105D60004F48049002608A6842600968816049492E
:105D7000059109788B00634A3421D1500068494964
:105D8000096804F0A1F80146049807914068464963
:105D9000096804F099F80146049808918068099010
:105DA000099A08990798012306930093FCF74EFE81
:105DB0000599069809784A00514988523C498870EB
:105DC0003C480880282048613F20000688615EE04A
:105DD0003048007841004A48405A3C284FDCFFE7F1
:105DE0002C480078810047484058002808D0FFE739
:105DF00028480078820043498858401E8850FFE7B1
:105E00002448007881003F484058002836D1FFE7F9
:105E100020490291087883003A4A3420D050204823
:105E20000190006809784A0035490391895A8A002F
:105E30001C49895804F048F8029A039903460198CE
:105E40000793406812785200895A8A001649895887
:105E500004F03AF801460198089180680990099A7F
:105E60000899079801230093FCF7F0FD0298039925
:105E700000784200885A401C8852FFE706E0054837
:105E8000007842001E4901208852FFE7FFE70AB070
:105E900080BDC0460B0020202E1D2020B01A2020DF
:105EA0002C1A2020582720204C282020F0232020A6
:105EB0005420202050C3000081B069460020088093
:105EC000FFE768460088312818DCFFE76946088844
:105ED00043000B4A0020D0520A889300094AD05050
:105EE0000A889300084AD05009888A0007498850D8
:105EF000FFE70098401C69460880E2E701B0704760
:105F00002E1D2020B01A20209C1B2020641C202045
:105F100010B58EB0109C0D900C910B920A931098B6
:105F20003B49019104F094F8FCF794FB0199099026
:105F3000109804F08DF8FCF7F3FB08900D9803908F
:105F4000099802900C98089904F082F80299024688
:105F50000398049204F07CF8049904F0DDF80B999E
:105F600008600D980690089805900C98099904F01F
:105F70006FF8059902460698079204F069F80799A8
:105F800003F0A2FF0A9908600EB010BD10B58EB0E4
:105F9000109C0D900C910B920A9310981C49019142
:105FA00004F056F8FCF756FB01990990109804F09C
:105FB0004FF8FCF7B5FB08900D980121C907484040
:105FC0000390099802900C98089904F041F80299FE
:105FD00002460398049204F03BF8049904F09CF8FC
:105FE0000B9908600D980690089805900C980999EF
:105FF00004F02EF8059902460698079204F028F856
:106000000146079804F088F80A9908600EB010BDA0
:1060100035FA8E3C80B582B00190019840680199B4
:10602000086000F0D1F8FAF7BFFA0C49FAF7BAF9AC
:1060300001994860019840680199096804F06CF87A
:1060400001998860019880683F21090603F03CFFB0
:10605000FAF758FA0199888102B080BD00007A44AD
:1060600080B584B003900398807801280AD1FFE7B7
:10607000039900208870039988800399C880039948
:106080000872FFE70399C8880988884204D1FFE7AE
:1060900003990120087234E003998888401C8880A5
:1060A000039801908088FAF777FA014601980291E7
:1060B0004069FAF779FA0199896903F0C9FF014645
:1060C000029803F0BEFA002806D1FFE70399C868DA
:1060D0000969FBF79DFA14E00399888849698842A9
:1060E00006D2FFE70399C8680969FBF767F907E07B
:1060F0000399002088800399C888401CC880FFE766
:10610000FFE704B080BD000080B582B001200090A0
:10611000810650480190FBF747F900990198C9069C
:10612000FBF742F9009901988905FBF73DF9FDF766
:1061300035FE02B080BDC04680B582B0002001901F
:1061400002F01EFCFEF76CFC02F0F2FB00F062F8BD
:10615000FFF7B4F902F0E6FCFDF77EFF02F034FA37
:10616000FFF7D2FFFCF70CFDFEF77CFD02F0C4FB4D
:10617000FFE70448FFF74EFF0020FCF739FD00F071
:106180006BF8F6E78C20202080B5FCF7D3FB0A489B
:10619000FAF71CFE02F046F8FDF74AFE0020FAF777
:1061A000FDFF0648FFF75CFF0548FFF759FF05486C
:1061B000FFF756FF80BDC046460520205420202012
:1061C00070202020381A202080B582B00A48019023
:1061D0000A4802687D20C0000146514300910199A0
:1061E000074A1268891A48430199F9F7F7FF0146EF
:1061F0000098401802B080BD80380100A422202001
:1062000018E000E080B5FFF7DFFF7D21C900F9F756
:10621000E5FF80BD80B584B00120019001050D48E7
:106220000290FBF7B7F80199029809040391FBF774
:10623000B1F86420FFF7D7F902980399FBF7CAF980
:10624000022002F095FAFCF7B7F80020FDF7B4F948
:1062500004B080BD00200A40B0B5F4B000210B4866
:10626000405E6B90042801D901F063FF6B988100B8
:1062700001A040588746C046916200007367000045
:10628000F16D000081740000ED7A000044052020CB
:1062900000216A910846FCF78BFD6A99EE488268F6
:1062A000084602F0A7FE6A99EC4A1E20FFF7BBF9E8
:1062B0006A99EB484056FAF76FF96A990246372017
:1062C000FFF7A1F96A99E74A4B20FFF7ACF96A9901
:1062D000E548405EFAF760F96A9902466920FFF7DF
:1062E00092F96A99E148405E401CFAF755F96A99BB
:1062F00002467320FFF787F96A9801216891FCF73D
:1063000057FD68996A98DA4AFFF78DF96899D94874
:106310006990426E0F20FFF776F969986A99006FCD
:1063200003F08FF9002806D1FFE7D34A3720012177
:10633000FFF779F905E0D14A37200121FFF773F91A
:10634000FFE7CC48006F002103F091F9002804D149
:10635000FFE7C848006F679006E0C648006F01215C
:10636000C90748406790FFE7679A3F200121639182
:10637000FFF749F9BF4865902121C900405CFAF751
:1063800013F9639902466920FFF73DF900206690F2
:1063900002216491FCF70CFD64996698B84AFFF7F6
:1063A00042F964996598C26D0F20FFF72CF9659842
:1063B0006699C06E03F045F9002806D1FFE7AE4AA2
:1063C00037200221FFF72FF905E0AC4A37200221E0
:1063D000FFF729F9FFE7A748C06E002103F047F94E
:1063E000002804D1FFE7A348C06E629006E0A148F0
:1063F000C06E0121C90748406290FFE7629A3F20C2
:1064000002215E91FFF7FFF89E484421405CFAF7B5
:10641000CBF85E9902466920FFF7F5F800206190FD
:1064200003215F91FCF7C4FC5F996198964AFFF7DE
:10643000FAF85F998F486090026E0F20FFF7E3F83B
:1064400060986199806E03F0FCF8002806D1FFE7A0
:10645000894A37200321FFF7E6F805E0874A37200D
:106460000321FFF7E0F8FFE78248806E002103F088
:10647000FEF8002804D1FFE77E48806E5D9006E0BC
:106480007C48806E0121C90748405D90FFE75D9A16
:106490003F2003215491FFF7B6F87C480078FAF7C3
:1064A00083F8549902466920FFF7ADF800205A900E
:1064B00004215591FCF77CFC55995A98744AFFF7D2
:1064C000B2F8559973485B9042681E20579002F0CD
:1064D00091FD55995B9802693C20589002F08AFD25
:1064E0005A9805215691FCF763FC56995A986A4AC6
:1064F000FFF799F8569957985B9A926802F07AFDDF
:10650000569958985B9A526902F074FD5A98062180
:106510005991FCF74DFC59995A98604AFFF783F856
:10652000579859995B9A126802F064FD58985999E6
:106530005B9AD26802F05EFD5A9807215C91FCF7E5
:1065400037FC5A985C99564AFFF76DF85B985C994E
:10655000C269142002F04EFD5B985C99026A3720F4
:1065600002F048FD5B985C9982695A2002F042FD76
:106570004C486021405C01282BD1FFE7494860224C
:106580000021815436480278521C0270405621285E
:1065900004DBFFE7324900200870FFE730480021A4
:1065A00053914056F9F7F8FF01465920FEF79AFE3D
:1065B000539803900121890502913B490191009074
:1065C0003A487D2189003F2213063222FAF7BAFDAC
:1065D000FFE734484021405C01282BD1FFE73148D8
:1065E0004022002181541E480278521E02704056FB
:1065F000002804D5FFE71A4920200870FFE7184853
:10660000002152914056F9F7C7FF01465920FEF785
:1066100069FE529803900121890502912249019156
:10662000009022487D2189003F2213063222FAF78A
:1066300089FDFFE71B48A021405C012857D1FFE7F7
:106640001848A0220021815407480288521C028069
:10665000405E062830DB2BE0A82220201FB300007C
:10666000460520201AB300003403202044052020D2
:1066700039B30000D0222020ADB20000ABB2000040
:1066800024B30000541A202027B300000422202045
:106690002AB30000F02320202FB3000034B3000001
:1066A00016B300002419202000200A404C042020AA
:1066B000FA4900200880FFE7F84800215191405E28
:1066C000F9F76AFF01467420FEF70CFE519803901B
:1066D000012189050291F24901910090F1487D2143
:1066E00089003F2213063222FAF72CFDFFE7EE481D
:1066F0008021405C01282BD1FFE7EB48802200215C
:106700008154E6480288521E0280405E002804D56B
:10671000FFE7E24905200880FFE7E04800215091AB
:10672000405EF9F739FF01467420FEF7DBFD509813
:106730000390012189050291D94901910090D9481E
:106740007D2189003F2213063222FAF7FBFCFFE786
:10675000D548C021405C022809D1FFE7D249C022B8
:1067600000208854FAF7D8F802F0D4F9FFE701F0D6
:1067700014FD73A94C9132200880002149910846EC
:10678000FCF716FB4999C94A0846FEF74CFF4999A0
:10679000C748405E401CF9F7FFFE49990246732046
:1067A00002F0DCF9499801214391FCF701FB439980
:1067B0004998C04AFEF737FF43994C9800888200F9
:1067C000BD484D90825819204A9002F0C7F943996C
:1067D0004C984D9A00888000801842683C204B906D
:1067E00002F0BCF943994C984D9A008880008018BB
:1067F00082685F204E9002F0B1F9499802214491DD
:10680000FCF7D6FA44994998AC4AFEF70CFF449934
:106810004A984C9A4D9B12889200D218D26802F086
:106820009DF944994B984C9A4D9B12889200D2182E
:10683000126902F093F944994C9A4D9B4E98128834
:106840009200D218526902F089F9499803214591C2
:10685000FCF7AEFA45994998994AFEF7E4FE459946
:106860004A984C9A4D9B12889200D218926902F075
:1068700075F945994B984C9A4D9B12889200D21805
:10688000D26902F06BF945994C9A4D9B4E9812884B
:106890009200D218126A02F061F9499804214691D7
:1068A000FCF786FA46994998864AFEF7BCFE469957
:1068B0004A984C9A4D9B12889200D218526A02F064
:1068C0004DF946994B984C9A4D9B12889200D218DC
:1068D000926A02F043F946994C9A4D9B4E98128861
:1068E0009200D218D26A02F039F9499805214791ED
:1068F000FCF75EFA47994998734AFEF794FE479968
:106900004A984C9A4D9B12889200D218126B02F052
:1069100025F947994B984C9A4D9B12889200D218B2
:10692000526B02F01BF947994C9A4D9B4E98128876
:106930009200D218926B02F011F949980621489101
:10694000FCF736FA48994998604AFEF76CFE489978
:106950004A984C9A4D9B12889200D218D26B02F042
:10696000FDF848994B984C9A4D9B12889200D2188A
:10697000126C02F0F3F848994C9A4D9B4E9812888D
:106980009200D218526C02F0E9F8499807214F9111
:10699000FCF70EFA49984F994D4AFEF744FE4A9883
:1069A0004C9A4D9B4F9912889200D218926C02F02B
:1069B000D5F84B984C9A4D9B4F9912889200D2185B
:1069C000D26C02F0CBF84C9A4D9B4E984F9912889E
:1069D0009200D218126D02F0C1F83E4800880128DA
:1069E00006D1FFE73C4A12200121FEF71CFE17E00A
:1069F00038480088022806D1FFE7374A35200121B0
:106A0000FEF711FE0BE033480088032806D1FFE7AC
:106A1000314A58200121FEF706FEFFE7FFE7FFE7B6
:106A20002C480088042806D1FFE72B4A12200221B7
:106A3000FEF7F9FD17E027480088052806D1FFE793
:106A4000254A35200221FEF7EEFD0BE021480088A3
:106A5000062806D1FFE7204A58200221FEF7E3FD71
:106A6000FFE7FFE7FFE71B480088072806D1FFE79D
:106A7000194A12200321FEF7D6FD37E01548008899
:106A8000082806D1FFE7144A35200321FEF7CBFD85
:106A90002BE010480088092826D11FE0340320206D
:106AA00000200A404C04202024192020A0B300001C
:106AB00044052020BFB2000014002020CAB200000C
:106AC000D5B20000E0B20000EBB20000F6B2000068
:106AD00001B300000C002020A9B20000BB4A5820DE
:106AE0000321FEF7A0FDFFE7FFE7FFE7B8480088B6
:106AF0000A2806D1FFE7B54A12200421FEF793FDCC
:106B000017E0B34800880B2806D1FFE7AF4A3520CD
:106B10000421FEF788FD0BE0AD4800880C2806D163
:106B2000FFE7AA4A58200421FEF77DFDFFE7FFE7B3
:106B3000FFE7A74800880D2806D1FFE7A34A1220E7
:106B40000521FEF770FD17E0A14800880E2806D148
:106B5000FFE79E4A35200521FEF765FD0BE09C48C6
:106B600000880F2806D1FFE7984A58200521FEF734
:106B70005AFDFFE7FFE7FFE795480088102806D198
:106B8000FFE7924A12200621FEF74DFD17E09048DC
:106B90000088112806D1FFE78C4A35200621FEF730
:106BA00042FD0BE08A480088122806D1FFE7874A99
:106BB00058200621FEF737FDFFE7FFE7FFE784488F
:106BC0000088132806D1FFE7804A12200721FEF72C
:106BD0002AFD17E07E480088142806D1FFE77B4A8B
:106BE00035200721FEF71FFD0BE0794800881528A6
:106BF00006D1FFE7754A58200721FEF714FDFFE78D
:106C0000FFE7FFE773484021405C012821D1FFE7FF
:106C100070494022002088546D480188491E018037
:106C20000088002804DCFFE7694915200880FFE799
:106C30000020039068490191009001208005029096
:106C400066487D2189003F2213063222FAF77AFA3C
:106C5000FFE760486021405C012821D1FFE75D49E2
:106C60006022002088545A480188491C018000880D
:106C7000162804DBFFE7564901200880FFE70020C3
:106C800003905549019100900120800502905348DE
:106C90007D2189003F2213063222FAF753FAFFE7DB
:106CA0004C488021405C012815D1FFE749498022EA
:106CB0000020885473A8008845490988401880003E
:106CC00047494018001F42900068464903F0FCF80D
:106CD00042990860FFE73F48A021405C012816D197
:106CE000FFE73C49A0220020885473A80088384957
:106CF0000988401880003A494018001F41900068F8
:106D00007F21C90503F0E0F841990860FFE73148A9
:106D10008021405C022815D1FFE72E498022002007
:106D2000885473A800882A490988401880002C4993
:106D30004018001F409000682B4903F0C5F84099A7
:106D40000860FFE72348A021405C022815D1FFE737
:106D50002049A0220020885473A800881C49098873
:106D6000401880001E494018001F3F9000681F49CE
:106D700003F0AAF83F990860FFE71648C021405C7D
:106D8000022820D1FFE71349C0220020885472A9AD
:106D90000880FFE772A80088142813DCFFE773A8B7
:106DA000008872A9098841180846AA308A000C494F
:106DB000895880B2FEF796FAFFE77298401C72A9D4
:106DC0000880E7E7FFE701F0E8F9C046A9B2000054
:106DD0000C0020202419202000200A404C042020F0
:106DE00014002020000080BF000048C2000048427C
:106DF00071A93B9147200880002138910846FBF794
:106E0000D7FF3899F94A0846FEF70DFC3899F8483B
:106E1000405E401CF9F7C0FB38990246732001F030
:106E20009DFE389801213291FBF7C2FF32993898C4
:106E3000F04AFEF7F8FB32993B9800888200EE4852
:106E40003C9082581920399001F088FE32993B9885
:106E50003C9A00888000801842683C203A9001F0FB
:106E60007DFE32993B983C9A0088800080188268A9
:106E70005F203D9001F072FE389802213391FBF7BC
:106E800097FF33993898DD4AFEF7CDFB339939984F
:106E90003B9A3C9B12889200D218D26801F05EFEA9
:106EA00033993A983B9A3C9B12889200D218126907
:106EB00001F054FE33993B9A3C9B3D981288920016
:106EC000D218526901F04AFE389803213491FBF739
:106ED0006FFF34993898CA4AFEF7A5FB3499399860
:106EE0003B9A3C9B12889200D218926901F036FEC0
:106EF00034993A983B9A3C9B12889200D218D269F6
:106F000001F02CFE34993B9A3C9B3D9812889200EC
:106F1000D218126A01F022FE389804213591FBF74D
:106F200047FF35993898B74AFEF77DFB3599399870
:106F30003B9A3C9B12889200D218526A01F00EFED6
:106F400035993A983B9A3C9B12889200D218926AE3
:106F500001F004FE35993B9A3C9B3D9812889200C3
:106F6000D218D26A01F0FAFD389805213691FBF764
:106F70001FFF36993898A44AFEF755FB3699399881
:106F80003B9A3C9B12889200D218126B01F0E6FDEE
:106F900036993A983B9A3C9B12889200D218526BD1
:106FA00001F0DCFD36993B9A3C9B3D98128892009B
:106FB000D218926B01F0D2FD389806213791FBF779
:106FC000F7FE37993898914AFEF72DFB3799399893
:106FD0003B9A3C9B12889200D218D26B01F0BEFD06
:106FE00037993A983B9A3C9B12889200D218126CBF
:106FF00001F0B4FD37993B9A3C9B3D981288920072
:10700000D218526C01F0AAFD389807213E91FBF787
:10701000CFFE38983E997E4AFEF705FB39983B9A99
:107020003C9B3E9912889200D218926C01F096FD1A
:107030003A983B9A3C9B3E9912889200D218D26CA7
:1070400001F08CFD3B9A3C9B3D983E991288920042
:10705000D218126D01F082FD6E480088012806D119
:10706000FFE76D4A12200121FEF7DDFA17E06948BB
:107070000088022806D1FFE7674A35200121FEF784
:10708000D2FA0BE063480088032806D1FFE7624A82
:1070900058200121FEF7C7FAFFE7FFE7FFE75D4849
:1070A0000088042806D1FFE75B4A12200221FEF780
:1070B000BAFA17E057480088052806D1FFE7564A74
:1070C00035200221FEF7AFFA0BE05248008806286F
:1070D00006D1FFE7504A58200221FEF7A4FAFFE745
:1070E000FFE7FFE74B480088072806D1FFE74A4A39
:1070F00012200321FEF797FA17E046480088082877
:1071000006D1FFE7444A35200321FEF78CFA0BE055
:1071100040480088092806D1FFE73F4A582003214C
:10712000FEF781FAFFE7FFE7FFE73A4800880A2801
:1071300006D1FFE7384A12200421FEF774FA17E05F
:10714000344800880B2806D1FFE7334A3520042154
:10715000FEF769FA0BE02F4800880C2806D1FFE7FC
:107160002D4A58200421FEF75EFAFFE7FFE7FFE70C
:10717000284800880D2806D1FFE7274A122005215C
:10718000FEF751FA17E0234800880E2806D1FFE7E2
:10719000214A35200521FEF746FA0BE01D480088FC
:1071A0000F2806D1FFE71C4A58200521FEF73BFABD
:1071B000FFE7FFE7FFE717480088102806D1FFE741
:1071C000154A12200621FEF72EFA2FE011480088FA
:1071D000112806D1FFE7104A35200621FEF723FAD1
:1071E00023E00C48008812281ED117E08BB3000062
:1071F000440520200CB300001400202013B300002D
:10720000AFB20000B7B20000C2B20000CDB20000C1
:10721000D8B200000E002020A9B200008E4A5820EB
:107220000621FEF700FAFFE7FFE7FFE78B4800883B
:10723000132806D1FFE7884A12200721FEF7F3F949
:1072400017E086480088142806D1FFE7824A3520D7
:107250000721FEF7E8F90BE080480088152806D1E1
:10726000FFE77D4A58200721FEF7DDF9FFE7FFE73A
:10727000FFE77B484021405C012830D1FFE7784997
:1072800040220020885475480188491E01800088EA
:10729000002804DCFFE7714915200880FFE7002083
:1072A0002E9003906F4C019400900120850502956B
:1072B0006D482F907D21890030913F2213063222A4
:1072C0003192F9F73FFF2E9B2F983099319A039313
:1072D000029501940093654BF9F734FFFFE760488E
:1072E0006021405C012821D1FFE75D496022002038
:1072F00088545A480188491C01800088162804DBFC
:10730000FFE7564901200880FFE700200390554918
:107310000191009001208005029053487D21890051
:107320003F2213063222F9F70DFFFFE74C48802178
:10733000405C012815D1FFE749498022002088548C
:1073400071A80088454909884018800048494018BC
:10735000001F2D900068474902F0B6FD2D99086086
:10736000FFE73F48A021405C012816D1FFE73C49D8
:10737000A0220020885471A8008838490988401844
:1073800080003B494018001F2C9000687F21C905F0
:1073900002F09AFD2C990860FFE731488021405C9B
:1073A000022815D1FFE72E4980220020885471A8B9
:1073B00000882A490988401880002D494018001F7C
:1073C0002B9000682C4902F07FFD2B990860FFE7A5
:1073D0002348A021405C022815D1FFE72049A022C4
:1073E0000020885471A800881C4909884018800032
:1073F0001F494018001F2A900068204902F064FDD0
:107400002A990860FFE71648C021405C022820D175
:10741000FFE71349C0220020885470A90880FFE7C5
:1074200070A80088142813DCFFE771A8008870A9F1
:10743000098841180846AA308A000D49895880B247
:10744000FDF750FFFFE77098401C70A90880E7E740
:10745000FFE700F0A2FEC046A9B200000E00202007
:107460002419202000200A404C042020CDCC4C3E82
:1074700014002020000080BF000048C200004842E5
:107480006FA926915C200880002123910846FBF714
:107490008FFC2399F94A0846FEF7C5F82399F84866
:1074A000405E401CF9F778F823990246732001F0FA
:1074B00055FB239801211D91FBF77AFC1D99239818
:1074C000F04AFEF7B0F81D99269800888200EE4831
:1074D000279082581920249001F040FB1D9926988E
:1074E000279A00888000801842683C20259001F08F
:1074F00035FB1D992698279A00888000801882689D
:107500005F20289001F02AFB239802211E91FBF7AF
:107510004FFC1E992398DD4AFEF785F81E992498A2
:10752000269A279B12889200D218D26801F016FB87
:107530001E992598269A279B12889200D2181269C4
:1075400001F00CFB1E99269A279B2898128892001E
:10755000D218526901F002FB239803211F91FBF717
:1075600027FC1F992398CA4AFEF75DF81F992498B3
:10757000269A279B12889200D218926901F0EEFA9F
:107580001F992598269A279B12889200D218D269B3
:1075900001F0E4FA1F99269A279B289812889200F6
:1075A000D218126A01F0DAFA239804212091FBF72D
:1075B000FFFB20992398B74AFEF735F820992498C5
:1075C000269A279B12889200D218526A01F0C6FAB6
:1075D00020992598269A279B12889200D218926AA1
:1075E00001F0BCFA2099269A279B289812889200CD
:1075F000D218D26A01F0B2FA239805212191FBF743
:10760000D7FB21992398A44AFEF70DF821992498D5
:10761000269A279B12889200D218126B01F09EFACC
:1076200021992598269A279B12889200D218526B8E
:1076300001F094FA2199269A279B289812889200A3
:10764000D218926B01F08AFA239806212291FBF757
:10765000AFFB22992398914AFDF7E5FF22992498E0
:10766000269A279B12889200D218D26B01F076FAE4
:1076700022992598269A279B12889200D218126C7C
:1076800001F06CFA2299269A279B2898128892007A
:10769000D218526C01F062FA239807212991FBF766
:1076A00087FB239829997E4AFDF7BDFF2498269AE7
:1076B000279B299912889200D218926C01F04EFAF9
:1076C0002598269A279B299912889200D218D26C65
:1076D00001F044FA269A279B28982999128892004B
:1076E000D218126D01F03AFA6E480088012806D1CE
:1076F000FFE76D4A12200121FDF795FF17E0694869
:107700000088022806D1FFE7674A35200121FDF7EE
:107710008AFF0BE063480088032806D1FFE7624A2E
:1077200058200121FDF77FFFFFE7FFE7FFE75D48F6
:107730000088042806D1FFE75B4A12200221FDF7EA
:1077400072FF17E057480088052806D1FFE7564A20
:1077500035200221FDF767FF0BE05248008806281C
:1077600006D1FFE7504A58200221FDF75CFFFFE7F2
:10777000FFE7FFE74B480088072806D1FFE74A4AA2
:1077800012200321FDF74FFF17E046480088082824
:1077900006D1FFE7444A35200321FDF744FF0BE003
:1077A00040480088092806D1FFE73F4A58200321B6
:1077B000FDF739FFFFE7FFE7FFE73A4800880A28AF
:1077C00006D1FFE7384A12200421FDF72CFF17E00D
:1077D000344800880B2806D1FFE7334A35200421BE
:1077E000FDF721FF0BE02F4800880C2806D1FFE7AA
:1077F0002D4A58200421FDF716FFFFE7FFE7FFE7BA
:10780000284800880D2806D1FFE7274A12200521C5
:10781000FDF709FF17E0234800880E2806D1FFE78F
:10782000214A35200521FDF7FEFE0BE01D480088AA
:107830000F2806D1FFE71C4A58200521FDF7F3FE6B
:10784000FFE7FFE7FFE717480088102806D1FFE7AA
:10785000154A12200621FDF7E6FE2FE011480088A8
:10786000112806D1FFE7104A35200621FDF7DBFE7F
:1078700023E00C48008812281ED117E075B30000E1
:1078800044052020E3B2000014002020EEB20000E6
:10789000F9B2000004B300000FB30000B3B200005F
:1078A000BBB2000010002020A9B20000864A582078
:1078B0000621FDF7B8FEFFE7FFE7FFE783480088F2
:1078C000132806D1FFE7804A12200721FDF7ABFEFF
:1078D00017E07E480088142806D1FFE77A4A352051
:1078E0000721FDF7A0FE0BE078480088152806D197
:1078F000FFE7754A58200721FDF795FEFFE7FFE7F0
:10790000FFE773484021405C012821D1FFE770491F
:107910004022002088546D480188491E018000885B
:10792000002804DCFFE7694915200880FFE70020F4
:1079300003906849019100900120800502906648FB
:107940007D2189003F2213063222F9F7FBFBFFE776
:107950005F486021405C012821D1FFE75C4960223B
:107960000020885459480188491C01800088162845
:1079700004DBFFE7554901200880FFE70020039062
:1079800054490191009001208005029052487D21C8
:1079900089003F2213063222F9F7D4FBFFE74C4857
:1079A0008021405C012815D1FFE749498022002051
:1079B00088546FA8008845490988401880004749C5
:1079C0004018001F1C900068454902F07DFA1C9980
:1079D0000860FFE73E48A021405C012816D1FFE780
:1079E0003B49A022002088546FA8008837490988A5
:1079F0004018800039494018001F1B9000687F2103
:107A0000C90502F061FA1B990860FFE73048802140
:107A1000405C022815D1FFE72D49802200208854C0
:107A20006FA8008829490988401880002B49401810
:107A3000001F1A9000682B4902F046FA1A99086054
:107A4000FFE72348A021405C022815D1FFE7204929
:107A5000A022002088546FA800881C49098840187B
:107A600080001E494018001F199000681E4902F04E
:107A70002BFA19990860FFE71548C021405C0228DD
:107A800020D1FFE71249C022002088546EA9088047
:107A9000FFE76EA80088142813DCFFE76FA80088B2
:107AA0006EA9098841180846AA308A000B498958EE
:107AB00080B2FDF717FCFFE76E98401C6EA90880A6
:107AC000E7E7FFE769E3C046A9B200001000202005
:107AD0002419202000200A404C04202014002020DB
:107AE000000080BF000048C2000048426DA9159107
:107AF00071200880002112910846FBF759F912996C
:107B0000F94A0846FDF78FFD1299F848405E401C7F
:107B1000F8F742FD12990246732001F01FF81298FF
:107B200001210C91FBF744F90C991298F04AFDF7EA
:107B30007AFD0C99159800888200EE4816908258BC
:107B40001920139001F00AF80C991598169A0088DC
:107B50008000801842683C20149000F0FFFF0C99D0
:107B60001598169A00888000801882685F20179008
:107B700000F0F4FF129802210D91FBF719F90D990D
:107B80001298DD4AFDF74FFD0D991398159A169B33
:107B900012889200D218D26800F0E0FF0D99149874
:107BA000159A169B12889200D218126900F0D6FF1F
:107BB0000D99159A169B179812889200D21852693F
:107BC00000F0CCFF129803210E91FBF7F1F80E990B
:107BD0001298CA4AFDF727FD0E991398159A169B1D
:107BE00012889200D218926900F0B8FF0E9914988A
:107BF000159A169B12889200D218D26900F0AEFF37
:107C00000E99159A169B179812889200D218126A2C
:107C100000F0A4FF129804210F91FBF7C9F80F9907
:107C20001298B74AFDF7FFFC0F991398159A169B07
:107C300012889200D218526A00F090FF0F9914989F
:107C4000159A169B12889200D218926A00F086FF4D
:107C50000F99159A169B179812889200D218D26A1B
:107C600000F07CFF129805211091FBF7A1F8109904
:107C70001298A44AFDF7D7FC10991398159A169BF1
:107C800012889200D218126B00F068FF10991498B5
:107C9000159A169B12889200D218526B00F05EFF64
:107CA0001099159A169B179812889200D218926B09
:107CB00000F054FF129806211191FBF779F8119901
:107CC0001298914AFDF7AFFC11991398159A169BDB
:107CD00012889200D218D26B00F040FF11991498CC
:107CE000159A169B12889200D218126C00F036FF7B
:107CF0001199159A169B179812889200D218526CF7
:107D000000F02CFF129807211891FBF751F81298F8
:107D100018997E4AFDF787FC1398159A169B1899B7
:107D200012889200D218926C00F018FF1498159ADD
:107D3000169B189912889200D218D26C00F00EFF90
:107D4000159A169B1798189912889200D218126DDE
:107D500000F004FF6E480088012806D1FFE76D4A55
:107D600012200121FDF75FFC17E069480088022816
:107D700006D1FFE7674A35200121FDF754FC0BE0EF
:107D800063480088032806D1FFE7624A5820012192
:107D9000FDF749FCFFE7FFE7FFE75D48008804289F
:107DA00006D1FFE75B4A12200221FDF73CFC17E0F9
:107DB000FD480088052806D1FFE7FC4A352002214E
:107DC000FDF731FC0BE0F8480088062806D1FFE7F4
:107DD000F64A58200221FDF726FCFFE7FFE7FFE700
:107DE000F1480088072806D1FFE7F04A1220032156
:107DF000FDF719FC17E0EC480088082806D1FFE7DA
:107E0000EA4A35200321FDF70EFC0BE0E648008826
:107E1000092806D1FFE7E54A58200321FDF703FCB6
:107E2000FFE7FFE7FFE7E04800880A2806D1FFE701
:107E3000DE4A12200421FDF7F6FB17E0DA4800883D
:107E40000B2806D1FFE7D94A35200421FDF7EBFBCB
:107E50000BE0D54800880C2806D1FFE7D34A58200C
:107E60000421FDF7E0FBFFE7FFE7FFE7CE480088CE
:107E70000D2806D1FFE7CD4A12200521FDF7D3FBDF
:107E800017E0C94800880E2806D1FFE7C74A352009
:107E90000521FDF7C8FB0BE0C34800880F2806D179
:107EA000FFE7C24A58200521FDF7BDFBFFE7FFE7CA
:107EB000FFE7BD480088102806D1FFE7BB4A122023
:107EC0000621FDF7B0FB2FE0B7480088112806D146
:107ED000FFE7B64A35200621FDF7A5FB23E0B248AF
:107EE000008812281ED117E0B4B3000044052020FA
:107EF000C6B2000014002020D1B20000DCB20000A5
:107F0000E7B20000F2B20000FDB2000008B30000CA
:107F100012002020A9B20000A44A58200621FDF733
:107F200082FBFFE7FFE7FFE79F480088132806D1A1
:107F3000FFE79E4A12200721FDF775FB17E09A48DC
:107F40000088142806D1FFE7984A35200721FDF75D
:107F50006AFB0BE094480088152806D1FFE7934A96
:107F600058200721FDF75FFBFFE7FFE7FFE7904899
:107F70004021405C012821D1FFE78D4940220020AB
:107F8000885489480188491E01800088002804DC43
:107F9000FFE7854915200880FFE7002003909F49EF
:107FA0000191009001208005029082487D21890086
:107FB0003F2213063222F9F7C5F8FFE77C4860211B
:107FC000405C012821D1FFE77949602200208854D4
:107FD00075480188491C01800088162804DBFFE7EA
:107FE000714901200880FFE7002003908B4901912F
:107FF00000900120800502906E487D2189003F227B
:1080000013063222F9F79EF8FFE769488021405CA9
:10801000012815D1FFE766498022002088546DA809
:10802000008861490988401880005E494018001F97
:108030000B900068604901F047FF0B990860FFE76B
:108040005B48A021405C012816D1FFE75849A022D7
:10805000002088546DA80088534909884018800082
:1080600050494018001F0A9000687F21C90501F09F
:108070002BFF0A990860FFE74D488021405C0228E9
:1080800015D1FFE74A498022002088546DA8008856
:10809000454909884018800042494018001F09904E
:1080A0000068464901F010FF09990860FFE7404861
:1080B000A021405C022815D1FFE73D49A022002005
:1080C00088546DA8008838490988401880003549CF
:1080D0004018001F08900068394901F0F5FE089922
:1080E0000860FFE73248C021405C022820D1FFE74A
:1080F0002F49C022002088546CA90880FFE76CA893
:108100000088142813DCFFE76DA800886CA9098893
:1081100041180846AA308A002249895880B2FDF7E2
:10812000E1F8FFE76C98401C6CA90880E7E7FFE7DF
:1081300033E0002106910846FAF73AFE0699214AF3
:108140000846FDF770FA06991548405E401CF8F79E
:1081500023FA06990246732000F000FD06980221DA
:108160000491FAF725FE04990698174AFDF75BFA81
:10817000069804210591FAF71BFE05990698134A03
:10818000FDF751FA069806210791FAF711FE0698B5
:1081900007990F4AFDF747FAFFE774B0B0BDC04634
:1081A000440520201400202012002020A9B2000045
:1081B000241920204C042020000080BF000048C269
:1081C000000048423CB3000098B2000061B30000D8
:1081D00050B3000080B586B00F480178491C01708B
:1081E0000078142815DBFFE70020059003900B4969
:1081F0000191009001208006029009487D218900AC
:108200003F2213063222F8F79DFF059802490870B5
:10821000FFE706B080BDC0461822202000200A409B
:108220007C042020F0B58DB064490869644A069248
:108230009060104608304B69D36013460C330193AD
:108240008B6913611346103302932823CB5C1370A0
:108250002923CB5C5370096B51605A490B685361F9
:108260001346143303934B689361134618330493F6
:108270008968D16111461C3105910CA9002309932D
:108280000B700BAE009633700AA908910B704E4C20
:1082900025783778791C31704C490791CD55647831
:1082A00035786F1C37704C5535786C1C3470182439
:1082B0004C553478651C35700B5513783478651C33
:1082C00035700B55527833785C1C3470CA54327850
:1082D000FAF7ECFA019807990B9A121D327032786E
:1082E000FAF7E4FA029807990B9A121D3270327865
:1082F000FAF7DCFA039807990B9A121D327032785C
:10830000FAF7D4FA049807990B9A121D3270327852
:10831000FAF7CCFA059807990B9A121D3270327849
:10832000FAF7C4FA069A079B089909980B9C241D32
:108330003470D47935786F1C37705C559479357802
:108340006F1C37705C55547935786F1C37705C55ED
:1083500012793478651C35701A550B9A121FDA7031
:108360000870FFE70AA800780BA9097888420EDA9E
:10837000FFE70AA801781548415C0C9848400CA911
:108380000870FFE70A98401C0AA90870EAE70C9AEF
:108390000BA90B78581C08700C48C2540C4A13786F
:1083A0000C78651C0D70035552780B785C1C0C70B2
:1083B000C254097800F0CEFA0DB0F0BD08042020B8
:1083C0001C222020F8212020040020203C222020F4
:1083D0000200202080B584B003900291039800F041
:1083E000BDF90190029800F0B9F90146019801F039
:1083F0006BFD01F09BFC04B080BD80B586B005909C
:1084000004910392059800F0A9F90190049800F0F6
:10841000A5F90146019801F057FD0290039800F07C
:108420009DF90146029801F04FFD01F07FFC06B076
:1084300080BD000080B59CB01B901A911B980290E3
:108440000168084601F040FD0146029804918168E8
:1084500003914168084601F037FD0299C96801F0AF
:10846000F7FD039902460498059201F0F1FD059984
:1084700001F052FE01F014F95149199101F0E8FDA3
:108480001A9908601B98069081680991084601F0C6
:108490001BFD014606980A91C168079101680846CC
:1084A00001F012FD069949680B9101F0D1FD079981
:1084B00002460A98089201F0CBFD089901F004FDEC
:1084C00001460B980E9103218907129101F0C0FD1E
:1084D000099902460A980C9201F0BAFD0B990246DE
:1084E0000C980D9201F0B4FD0D9901F015FE7F215D
:1084F000C905179101F0E8FC01460E9801F05CF9FE
:10850000199901F0A5FD1A9948601B980F904168D0
:10851000084601F0D9FC01460F981091816813912B
:108520000168084601F0D0FC0F99C968149101F068
:108530008FFD139902461098119201F089FD11994F
:1085400001F0C2FC129902461498189201F080FDC5
:1085500013991590084601F0B7FC139901F078FDC6
:10856000149902461598169201F072FD169901F0C1
:10857000D3FD179901F0A8FC01461898F9F752FFAE
:10858000199901F065FD1A9988601A988068002190
:1085900001F057F8002809D1FFE71A980190806888
:1085A000084901F091FC01998860FFE71A988068FA
:1085B0000021044AFCF79CFF1A9988601CB080BD1A
:1085C000E02E65420000B44370B5124D124EEE60CD
:1085D0000122D0042861C8236B611049A9610020E1
:1085E000A8700F4CE660960426616361A161A070DB
:1085F0000C490D4ECE60D6060E614B613F231B0623
:108600008B61AA7005232B80A27023808A7008805A
:1086100070BDC0465420202000200A40CDCC4C3EE6
:1086200070202020381A202000000A4080B58CB02D
:108630000B900A9109920B980A99F7F7B3FE0890EC
:1086400008993748F7F7AEFE01F086FB07903548EA
:1086500001F0B0FA0146084601F036FC0799049192
:1086600001F0F6FC7F21C90501F02EFC049905906C
:10867000084601F0EDFC059901F026FC06900A98E9
:10868000002100F0E9FF002801D1FFE745E007994C
:10869000084601F0DDFC0699F7F784FE09990861A8
:1086A000099800900169084601F00EFC00994861A4
:1086B00009990869886109997F20C005019048607F
:1086C0000799084601F0C4FC174901F0FDFB01467B
:1086D000084601F0F9FB0699F7F764FE09998860EE
:1086E000104801F067FA0146084601F0EDFB0799D2
:1086F000029101F0ADFC0146019801F00DFD0299D7
:108700000390084601F0A4FC039901F0DDFB0699F3
:10871000F7F748FE0999C860FFE70CB080BDC04676
:10872000DB0F4940DB0F493F000080BF80B582B0BE
:10873000014601A8017001780748F9F7BFF8FFE783
:108740000548F9F75DF8002801D0FFE7F8E702488F
:10875000F9F762F802B080BD0080464080B582B073
:1087600001900199084601F073FC02B080BD000041
:10877000F0B585B004A90391087004984B490870BE
:108780004B4D28884B4C20804B4B18884B4A10800F
:108790004B490020019008804A4908804A4E012137
:1087A00031704A4F4A4E3E804A4F3E804A4E3170A9
:1087B0004A4908708021009129802180402102913E
:1087C0001980118046490870AE2000F08BF8D52042
:1087D00000F088F8009800F085F8A82000F082F8F2
:1087E0003F2000F07FF8D32000F07CF8019800F0E3
:1087F00079F8029800F076F88D2000F073F803986D
:108800000078012804D1FFE7102000F06BF803E0A6
:10881000142000F067F8FFE7202000F063F8002044
:1088200000F060F8A12000F05DF8C82000F05AF8D0
:10883000DA2000F057F8122000F054F8812000F000
:1088400051F804A80078012804D1FFE79F2000F028
:1088500049F803E0CF2000F045F8FFE7D92000F009
:1088600041F804A80078012804D1FFE7222000F095
:1088700039F803E0F12000F035F8FFE7DB2000F0E5
:1088800031F8402000F02EF8A42000F02BF8A620AC
:1088900000F028F8A12000F025F8C82000F022F808
:1088A000AF2000F01FF805B0F0BDC046081A202028
:1088B000201920200A1A202048042020061A2020EF
:1088C000A01A2020A21A2020CC222020C82220205A
:1088D000FFFF0000CA22202040292020041A202067
:1088E000A022202080B582B0014601A80170007846
:1088F000FAF7B0FE02B080BD80B51348F9F700FC6E
:108900001248F9F7FDFB1248F9F7FAFB1020FCF7C3
:108910006BFD0548F9F7F4FB1120FCF765FD0348F2
:10892000F9F7EEFB80BDC04600400840008086405D
:1089300080B50548F9F7E4FB0448F9F7E1FB044882
:10894000F9F7DEFB80BDC04600008640002086406F
:1089500000A0864080B582B001900091FFE70098AA
:10896000411E0091002809D0FFE7019801781D48B9
:10897000F9F7BCFC0198401C0190F0E702B080BD03
:1089800080B586B00F200190FCF704FD0D20029009
:10899000FCF700FD0E200390FCF7FCFC0320049084
:1089A000FCF7F8FC0198FCF70BFD0298FCF708FDBA
:1089B0000398FCF705FD0498FCF702FD01208102F5
:1089C00005910848F9F7A8FB05990748F9F7A4FBB2
:1089D00005990648F9F7A0FB05990548F9F79CFBAE
:1089E00006B080BD00801040000010400020104004
:1089F00000005040B0B58AB043481C21F7F7EAFBAD
:108A000009A900200880FFE709A800881B2878DC56
:108A1000FFE709A801880C2048433C494018C821B9
:108A200040580021079100F001FE014607980029F7
:108A3000089021D0FFE709A801880C20484333495A
:108A40004018CC2140580021069100F0EFFD01466E
:108A50000698002908900FD0FFE709A801880C208C
:108A600048432A494018D0214058002100F0DEFD3B
:108A7000411E88410890FFE70898C007002834D1BC
:108A8000FFE709A8019003881F4A0121D1540288F9
:108A90001E4902910C25039528465043009040182A
:108AA000C8214058F7F72EFD009B01990246029815
:108AB000174C0594E25009884D432818CC214058A2
:108AC000F7F720FD019A0299034603986419636041
:108AD0001288504304904018D0214058F7F712FDF7
:108AE000049A05998918886005E009A80288064952
:108AF00000208854FFE7FFE70998401C09A9088077
:108B000082E70AB0B0BDC0463827202014002020DC
:108B1000A820202080B5FCF75FFA0020FCF74EF972
:108B200080BD000080B582B0012041060948F8F7F9
:108B300079FDFCF769FA0A200190F9F7EBFBFCF7E5
:108B4000A1FA0198F9F7E6FBFCF79EF902490880C3
:108B500002B080BD00200A405427202080B5A4B078
:108B600023AB187022A80170219220A80021017067
:108B70001CA81B90219800F064FD002815D1FFE788
:108B80001CAA2D20107023A81890007822A909781B
:108B90001278FAF779F818992398801D08702198AF
:108BA0000121C90748402190FFE72198F7F7AAFC67
:108BB0001990219817901998F7F7EEFC014617982D
:108BC00001F0AAFA1A901998FC49884216DBFFE7CF
:108BD0001998FA491591F7F70BFB1599303020AA2F
:108BE000169213781CAAD0541998F7F701FB08467F
:108BF000169919902098401C0870FFE71998F049C1
:108C0000884216DBFFE71998ED491391F7F7F0FA60
:108C10001399303020AA149213781CAAD0541998B2
:108C2000F7F7E6FA0846149919902098401C087046
:108C300013E01998E34988420EDCFFE720A800788A
:108C4000002809D0FFE720A90B781CAA3020D054B7
:108C50002098401C0870FFE7FFE71998DA4988421E
:108C600016DBFFE71998D8491191F7F7C1FA119966
:108C7000303020AA129213781CAAD0541998F7F712
:108C8000B7FA0846129919902098401C087013E012
:108C90001998CE4988420EDCFFE720A8007800280A
:108CA00009D0FFE720A90B781CAA3020D0542098C7
:108CB000401C0870FFE7FFE71998C549884216DB9A
:108CC000FFE71998C2490F91F7F792FA0F993030E0
:108CD00020AA109213781CAAD0541998F7F788FA92
:108CE0000846109919902098401C087013E01998B4
:108CF000B84988420EDCFFE720A80078002809D098
:108D0000FFE720A90B781CAA3020D0542098401CE3
:108D10000870FFE7FFE71998AF49884216DBFFE7C5
:108D20001998AD490D91F7F763FA0D99303020AAE3
:108D30000E9213781CAAD0541998F7F759FA0846DE
:108D40000E9919902098401C087013E01998A349B7
:108D500088420EDCFFE720A80078002809D0FFE752
:108D600020A90B781CAA3020D0542098401C0870F1
:108D7000FFE7FFE719989A49884216DBFFE7199841
:108D800097490B91F7F734FA0B99303020AA0C92DF
:108D900013781CAAD0541998F7F72AFA08460C99A8
:108DA00019902098401C087013E019988D4988424A
:108DB0000EDCFFE720A80078002809D0FFE720A9F3
:108DC0000B781CAA3020D0542098401C0870FFE774
:108DD000FFE719987D21C900884217DBFFE7199842
:108DE0007D21C9000991F7F703FA0999303020AACB
:108DF0000A9213781CAAD0541998F7F7F9F9084683
:108E00000A9919902098401C087013E01998764927
:108E100088420EDCFFE720A80078002809D0FFE791
:108E200020A90B781CAA3020D0542098401C087030
:108E3000FFE7FFE71998642816DBFFE7199864211C
:108E40000791F7F7D5F90799303020AA08921378DF
:108E50001CAAD0541998F7F7CBF90846089919902D
:108E60002098401C087012E0199863280EDCFFE778
:108E700020A80078002809D0FFE720A90B781CAAB9
:108E80003020D0542098401C0870FFE7FFE7199865
:108E90000A2816DBFFE719980A210591F7F7A8F9C8
:108EA0000599303020AA069213781CAAD05419983C
:108EB000F7F79EF90846069919902098401C08700B
:108EC00012E0199809280EDCFFE720A80078002896
:108ED00009D0FFE720A90B781CAA3020D054209895
:108EE000401C0870FFE7FFE71998303020A90A7886
:108EF0001CA988541A983D4900F0C6FB00284BD1A4
:108F0000FFE72098401C20A9049108700B781CAA48
:108F100002922E20D0542098401C08701A98344990
:108F200001F096F8F7F7EEFA199019986421039179
:108F3000F7F75EF9029A0399049B30301B78D054FE
:108F40001998F7F755F90846049919902098401C8C
:108F500008701998012810DBFFE719980A21019180
:108F6000F7F746F90199303020AA13781CAAD0549B
:108F70001998F7F73DF91991FFE7199800280AD4D5
:108F8000FFE72098401C20A90870199830300A7813
:108F90001CA98854FFE7FFE72098411C20A8017016
:108FA00002781CA90020885423A8007822A90978F7
:108FB0001B9AF9F7A5FE24B080BDC04600CA9A3BB3
:108FC00000E1F505FFE0F505809698007F96980092
:108FD00040420F003F420F00A08601009F86010023
:108FE000102700000F270000E703000017B7D13853
:108FF00000007A4480B5A2B021AB187020A801709F
:109000001F921EA8002101701AA819901F9800F045
:1090100018FB002815D1FFE71AAA2D20107021A8EF
:109020001690007820A909781278F9F72DFE169984
:109030002198801D08701F980121C90748401F9082
:10904000FFE71F98F7F75EFA17901F98159017988B
:10905000F7F7A2FA0146159801F05EF818901798F4
:10906000E449884216DBFFE71798E2491391F7F7C6
:10907000BFF8139930301EAA149213781AAAD0544C
:109080001798F7F7B5F80846149917901E98401CE2
:109090000870FFE71798D849884216DBFFE7179852
:1090A000D5491191F7F7A4F8119930301EAA129200
:1090B00013781AAAD0541798F7F79AF80846129915
:1090C00017901E98401C087013E01798CB498842EF
:1090D0000EDCFFE71EA80078002809D0FFE71EA9D4
:1090E0000B781AAA3020D0541E98401C0870FFE755
:1090F000FFE71798C249884216DBFFE71798C04977
:109100000F91F7F775F80F9930301EAA1092137867
:109110001AAAD0541798F7F76BF8084610991790C9
:109120001E98401C087013E01798B64988420EDC60
:10913000FFE71EA80078002809D0FFE71EA90B78DA
:109140001AAA3020D0541E98401C0870FFE7FFE791
:109150001798AD49884216DBFFE71798AA490D9189
:10916000F7F746F80D9930301EAA0E9213781AAA16
:10917000D0541798F7F73CF808460E9917901E98A8
:10918000401C087013E01798A04988420EDCFFE7E6
:109190001EA80078002809D0FFE71EA90B781AAA9C
:1091A0003020D0541E98401C0870FFE7FFE7179846
:1091B0009749884216DBFFE7179895490B91F7F717
:1091C00017F80B9930301EAA0C9213781AAAD054B3
:1091D0001798F7F70DF808460C9917901E98401C41
:1091E000087013E017988B4988420EDCFFE71EA831
:1091F0000078002809D0FFE71EA90B781AAA3020B2
:10920000D0541E98401C0870FFE7FFE7179882496A
:10921000884216DBFFE717987F490991F6F7E8FFC8
:10922000099930301EAA0A9213781AAAD0541798B6
:10923000F6F7DEFF08460A9917901E98401C087042
:1092400013E01798754988420EDCFFE71EA80078E6
:10925000002809D0FFE71EA90B781AAA3020D054A5
:109260001E98401C0870FFE7FFE717987D21C90092
:10927000884217DBFFE717987D21C9000791F6F7B1
:10928000B7FF079930301EAA089213781AAAD05453
:109290001798F6F7ADFF0846089917901E98401CDE
:1092A000087013E017985E4988420EDCFFE71EA89D
:1092B0000078002809D0FFE71EA90B781AAA3020F1
:1092C000D0541E98401C0870FFE7FFE717986428E9
:1092D00016DBFFE7179864210591F6F789FF0599DA
:1092E00030301EAA069213781AAAD0541798F6F7AF
:1092F0007FFF0846069917901E98401C087012E0E0
:10930000179863280EDCFFE71EA80078002809D014
:10931000FFE71EA90B781AAA3020D0541E98401CD3
:109320000870FFE7FFE717980A2816DBFFE7179892
:109330000A210391F6F75CFF039930301EAA0492CC
:1093400013781AAAD0541798F6F752FF08460499D2
:1093500017901E98401C087012E0179809280EDC20
:10936000FFE71EA80078002809D0FFE71EA90B78A8
:109370001AAA3020D0541E98401C0870FFE7FFE75F
:10938000179830301EA90A781AA9885418982549C8
:1093900000F07AF900281BD1FFE71E98401C1EA997
:1093A000019108700B781AAA02922E20D0541E98B0
:1093B000401C087018981C4900F04AFEF7F7A2F804
:1093C000019A029917901798303012788854FFE765
:1093D0001E98411C1EA8017002781AA9002088540A
:1093E00021A8007820A90978199AF9F789FC22B0F8
:1093F00080BDC04600CA9A3B00E1F505FFE0F505D7
:10940000809698007F96980040420F003F420F00E0
:10941000A08601009F860100102700000F27000092
:10942000E7030000CDCCCC3D00002041F0B4040C9B
:109430008BB2264682B25E430D0C1046370C584361
:10944000360480190021794116466E43370C3604E4
:109450008019794126466E438919F0BC7047410056
:10946000080200D004200A0E01D001221043090E88
:10947000FF2901D102210843012800D105207047AE
:1094800010B50121F7F7DEF810BD10B500F01CFD96
:1094900010BD10B500210846F6F784FF10BD5E210F
:1094A00010B5C9430807F7F7CDF810BDF0B50E4663
:1094B00014465100FF22120687B0914203D31116C1
:1094C000316007B0F0BD01202502C0070543E00D63
:1094D0007838C206D20E2020871A6000000E783835
:1094E000401181004D4878440B189C464358002A8F
:1094F00014D06046406893400146F84003436046FC
:10950000806891408646F840014303916046714669
:10951000C0689140F84001430F4603E0604641684F
:109520000391876818462946FFF780FF029104904F
:1095300029460398FFF77AFF03910690384629469B
:10954000FFF774FF0F460698029B3D18049A039993
:10955000BD4201D2012700E000278818C019002F62
:1095600002D0884202D903E0884201D2012100E002
:10957000002159180A4620329709C20C8906520365
:1095800040033760114301900846F7F705F8029051
:109590000198F7F709F81221C943F7F753F801903A
:1095A0002846F7F701F82521C943F7F74BF8009053
:1095B0000199029800F088FC009900F085FC0121D7
:1095C000C9024018050B2D032846029900F0A4FD9E
:1095D000019900F0A1FD009900F092FD104900F002
:1095E00037FD00900F49284600F032FD009900F049
:1095F0006BFC00900C49284600F02AFD009900F011
:1096000063FC002C00DB5CE701210907C91B31600A
:109610000121C907484007B0F0BD00003E0D000021
:10962000DB0FC92F22AAFD290000C92F10B500F0B9
:1096300091FCEFF30080400001D5012010BD002017
:1096400010BD10B500F0B0FCEFF30080800001D534
:10965000012010BD002010BD10B500F0A5FCEFF3F7
:1096600000804000800F012800D0002010BD10B500
:1096700000F0C4FCEFF300804000800F012801D00F
:10968000012010BD002010BD10B500F0B7FCEFF3B5
:109690000080800001D4012010BD002010BD00001A
:1096A000F8B504464721400049060D22411812062C
:1096B000914253D83F21490688421BD960007F213F
:1096C0004008C90500F01CFD0021C943F6F7BAFFA8
:1096D000074600F02BFB002C04DA2F4D2D4EA90776
:1096E000484001E02D4E2E4D0321890700F0B0FCCB
:1096F000044606E0002621463546084600F0A8FC50
:1097000007462849384600F0A3FC274900F0DCFB57
:10971000394600F09DFC254900F0D6FB394600F0A3
:1097200097FC234900F0D0FB394600F091FC214919
:1097300000F0CAFB00903946204600F089FC0099F1
:1097400000F086FC07462946204600F0BDFB39465E
:1097500000F0BAFB314600F0B7FBF8BD39214906ED
:10976000884208D22046FFF77AFE042801D1FFF78D
:1097700096FE2046F8BDFF210906884203D92046FF
:10978000FFF77EFEF8BD0120F6F716FFFFF781FE1A
:10979000F8BD00000000C9BF22AAFDB90000C93F02
:1097A00022AAFD3924FE1C3DC78AD83C1E67383DDD
:1097B0001B93993DAFAA2A3EF0B50C4601461D22E7
:1097C0004B00D2069F18E52605463606620087B094
:1097D0002046B7427BD21D27FF06D719B74276D263
:1097E0004F0043003E0E1A0EB21A1B2A07DD002955
:1097F00002DA854807B0F0BD844807B0F0BD1A26EC
:10980000F2422FDA002807DA002902DA804807B08E
:10981000F0BD804807B0F0BD21462846F6F7C2FDEE
:109820000646FFF71CFE042801D1FFF738FE284644
:10983000FFF715FE05462046FFF711FE04463046A9
:10984000FFF70DFE042D01D0052D08D1042C01D009
:10985000052C04D1002802D10220F6F7ADFE3046D7
:1098600007B0F0BD9F4211D9002902DA6A4F6B4E52
:1098700001E06B4F6B4E23462C461D4601220346EA
:10988000D20708465440504019460BE0002807DA3A
:10989000002902DA644F654E04E0654F654E01E031
:1098A00000263746421A012352001B069A422FD245
:1098B000484061490CD5BF2000060290384600F0B0
:1098C0002BFC07465D49304600F026FC0BE053E0D8
:1098D0003F2000060290384600F0F6FA0746574946
:1098E000304600F0F1FA06462846029900F0B0FB37
:1098F000214600F0E9FA00902146029800F0A8FB0A
:10990000294600F0FDFB0099F6F74CFD044604E003
:1099100021462846F6F746FD0446014600F098FB2E
:109920004749009000F094FB464900F0CDFA0099B9
:1099300000F08EFB444900F0C7FA009900F088FB64
:10994000424900F0C1FA009900F082FB404900F062
:10995000BBFA05462046009900F07AFB294600F044
:1099600077FB314600F0B0FA214600F0ADFA3946F7
:1099700000F0AAFA07B0F0BDFF263606B34201D8C0
:10998000B24205D901462846FFF77FFD07B0F0BD7A
:109990002F4607437F000AD0B3420CD1B2420AD10E
:1099A00001229207904391430D46044618E7FF2297
:1099B000D2051043F9E7B3420CD047000AD0B242B7
:1099C0000ED04E000CD05340F0D4002A0EDB9F2660
:1099D000F6050DE0FF22D2051143E00FC007FFE6B8
:1099E000C90FC907FF22D2051043F9E65F26F60525
:1099F0003146284600F02CFB05463146204600F053
:109A000027FB04462946EBE6DB0FC9BFDB0FC93F46
:109A1000DB0F49C0DB0F49400000C9BF22AAFDB9D6
:109A20000000C93F22AAFD39000049C022AA7DBA20
:109A30000000494022AA7D3A0060ED3EC30ACE37BD
:109A40002DAD65BD8FB8D53D0FB511BE61C84C3E7B
:109A5000A8AAAABEF8B547224100520625238A18B3
:109A60001B0604469A4270D27F22120691420CD9FC
:109A7000002C02DA414E424D01E0424E424D014679
:109A80004248F6F78FFC044601E000252E463F22AF
:109A900041005206914229D93D49002C0ADABF27DC
:109AA0003F06304600F038FB06463A49284600F0AB
:109AB00033FB09E03F273F06304600F005FA064633
:109AC0003449284600F000FA05463946204600F0A1
:109AD000BFFA7F21C90500F0F7F90090394620460A
:109AE00000F01AFB0099F6F75DFC0446014600F011
:109AF000AFFA2949009000F0ABFA284900F0E4F9E8
:109B0000009900F0A5FA264900F0DEF9009900F06E
:109B10009FFA244900F0D8F9009900F099FA2249F7
:109B200000F0D2F907462046009900F091FA394634
:109B300000F08EFA294600F0C7F9214600F0C4F97A
:109B4000314600F0C1F9F8BDFFE7392252069142D3
:109B500007D2FFF784FC042801D1FFF7A0FC2046C0
:109B6000F8BDFF221206914202D9FFF789FCF8BD29
:109B7000002C01DA0D48F8BD0D48F8BD0000C9BF42
:109B800022AAFDB90000C93F22AAFD39000080BF0A
:109B90000060ED3EC30ACE372DAD65BD8FB8D53D13
:109BA0000FB511BE61C84C3EA8AAAABEDB0FC9BF43
:109BB000DB0FC93FF0B5024604464E4B83B0400070
:109BC0006946984209D273210906884202D20020D0
:109BD000C04300E00020009030E05000464B4008B9
:109BE00098426CD24549104600F032FAF6F7EAFC8A
:109BF0000746F6F787FC8007800F009040493846FB
:109C000000F026FA01903F49384600F021FA064656
:109C10003D49384600F01CFA05463C49384600F0FC
:109C200017FA214600F06CFA294600F075FA314621
:109C300000F072FA019900F06FFA044625467F277A
:109C4000009CFF05002C3EDBE007314E294608460C
:109C50001BD000F0FDF907462E4900F0F9F92E4916
:109C600000F032F9394600F0F3F92C4900F02CF9F4
:109C7000394600F0EDF9294600F0EAF9294600F0EE
:109C800023F9A10718D503B0F0BD00F0E1F90546AE
:109C9000234900F0DDF9234900F016F9294600F0C8
:109CA000D7F9214900F010F9294600F0D1F93946D9
:109CB00000F00AF9A107E6D5704003B0F0BD1046E8
:109CC000FFF7F4FBB9E7FF2168000906884202D2DA
:109CD000384603B0F0BD884206D10120F6F76CFC8F
:109CE000FFF7D7FB03B0F0BD2846FFF7C9FB03B071
:109CF000F0BD0000B61F927E490E494683F9223F0F
:109D00001A61342C0020A23300A0FD390000C93FA5
:109D100000000080336D4CB9DA82083CA0AA2ABE4C
:109D2000B93AB2BACA9F2A3DDDFFFFBE70B50546FB
:109D3000F6F7AAFC41000446FF204908C005411A75
:109D4000C90F07D069004908401AC00F02D101208D
:109D5000F6F732FC204670BDF0B5024604464C4B87
:109D600083B040006946984209D2732109068842AF
:109D700002D20020C04300E00020009030E05000FC
:109D8000444B4008984262D24349104600F060F9C3
:109D9000F6F718FC0746F6F7B5FB8007800F009032
:109DA0003E49384600F054F901903D49384600F0EC
:109DB0004FF906463B49384600F04AF905463A490C
:109DC000384600F045F9214600F09AF9294600F09E
:109DD000A3F9314600F0A0F9019900F09DF904467D
:109DE000009D002D37DB2146084600F031F906467C
:109DF0002E4900F02DF92E4900F066F8314600F0AA
:109E000027F92C4900F060F8314600F021F92A4981
:109E100000F05AF8314600F01BF9284900F054F8D8
:109E2000314600F015F9264900F04EF8314600F0B1
:109E30000FF9214600F00CF9214600F045F8E9073A
:109E400003D001461F48F6F7ADFA03B0F0BD104647
:109E5000FFF72CFBC3E7FF2160000906884209D207
:109E60002046FFF7FCFA042801D1FFF718FB204633
:109E700003B0F0BD884206D10120F6F79DFBFFF745
:109E800008FB03B0F0BD2046FFF7FAFA03B0F0BDBF
:109E9000B61F927E490E494683F9223F1A61342C3F
:109EA0000020A23300A0FD390000C93FBCE9223CDC
:109EB0000B6D063B8A76CE3CACB5593D35A1083ECC
:109EC00029AAAA3E000080BF70B50125ED07040055
:109ED0004C4020D4441A01D2001B0919C60D4B0076
:109EE000F2B2FF2A29D01B0E2CD000020C0228430C
:109EF0002C43D31ADC40051910D2280A02D3401C87
:109F00006D0611D0761EF6058019FF2A00DA70BDA5
:109F1000C00DC00570BD694000F004F90120054383
:109F2000C541521C761CE8E764089C40C9016140A9
:109F30008900E7D10124A043E4E71B0E440200D0CE
:109F4000034870BD002AFCD1C00FC00770BD00BF20
:109F50000000C07F0123DB0502000A430DD4DA4272
:109F600003D49A4207D488427047D84214D4D942C5
:109F700012D48842704780427047DA4203D59A4231
:109F8000F9D5814270475B004200DA4204D24A00B0
:109F9000DA4201D28142704710B5024AF6F7C0FB9F
:109FA00010BD00BF090012040123DB0502000A43B3
:109FB0000DD4DA4203D49A4207D488427047D8427B
:109FC00014D4D94212D48842704780427047DA4292
:109FD00003D59A42F9D5814270475B004200DA42CC
:109FE00004D24A00DA4201D28142704710B5024AD7
:109FF000F6F796FB10BD00BF090013040123DB0533
:10A0000002000A430DD4DA4203D49A4207D48842AC
:10A010007047D84214D4D94212D488427047804243
:10A020007047DA4203D59A42F9D5814270475B0006
:10A030004200DA4204D24A00DA4201D28142704739
:10A0400010B5024AF6F76CFB10BD00BF09001604FC
:10A0500070B5420064414B005C41120E39D01B0EBA
:10A0600038D0FF2A3CD0FF2B3AD0D2187F3A40029A
:10A070004902400A490A4518ED0106004E43000A0C
:10A08000090A48430104731A4019190C4318990F1F
:10A0900004D05B08012149075B1A521CD80904D37C
:10A0A000401CF50301D19D0607D0FF2A08D2D50533
:10A0B00006D0E4072043401970BD0125A843F4E70A
:10A0C000002A01DCE00770BD2402FF202043C00508
:10A0D00070BD1B0EFF2A03D0FF2B01D0E00770BD1F
:10A0E000FF2636064500B54206D84D00B54203D8D6
:10A0F000D218FF2A00D0E7E7004870BD0000C07FFB
:10A1000070B50125ED07684004004C4002D5694058
:10A1100000F008F8FFF7DEFE70B50125ED0704003A
:10A120004C4022D4441A02D26C40001B0919C60DBF
:10A130004B00F2B2FF2A4BD01B0E50D000020C0293
:10A14000A8432C43D31ADC40051B05D5AD0019D319
:10A150006D08761E521E37D0F605280A01D28019E6
:10A1600070BD70416D0603D070BD6940FFF7B2FE4F
:10A170009C4009026140490001D0401E70BD01248D
:10A18000A04370BD6D081DD001202B0C01D12D0402
:10A1900010302B0E01D12D0208302B0F01D12D01D3
:10A1A000001DAB0F01D1AD00801CEB0F01D16D0084
:10A1B000401C361A121A6D00680AF5054019012A6A
:10A1C00002DB70BD002070BDC036300AC00770BD14
:10A1D0001B0E440201D1FF2B00D1024870BD002AA2
:10A1E000F0D070BD0000C07F81828384858687881F
:10A1F000898B8C8D8E8F919293959697999A9C9D31
:10A200009FA0A2A3A5A7A8AAACAEB0B2B3B5B7B998
:10A21000BCBEC0C2C5C7C9CCCED1D4D7D9DCDFE261
:10A22000E6E9ECF0F3F7FAFE000000006E83F9A215
:10A230002915444ED15727FCC0DD34F5999562DBD2
:10A240004190433CAB6351FE0000803F0000803FE3
:10A2500000000000000000000000000000000000FE
:10A260000000000000004843000000000000000063
:10A270000000C8420000803F000000000000000015
:10A2800000000000000000000000FA430000000091
:10A2900000000000000000000000803F0000803F40
:10A2A00000000000000000000000000000000000AE
:10A2B000000000000000C8420000704100000000E3
:10A2C000000070419A99993E0000000000000000D3
:10A2D00000000000000000000000F041000000004D
:10A2E00000000000000000000000803F0000803FF0
:10A2F000000000000000000000000000000000005E
:10A30000000000000000C8420000F0410000000012
:10A3100000004843000040400AD7A33C0000000072
:10A3200000000000000000000000E1430000000009
:10A3300000000000000000000000803F0000803F9F
:10A34000000000000000000000000000000000000D
:10A3500000000000000048420000F0410000000042
:10A360000000C8420000003F000000000000204044
:10A370000000000000000000000096430000000004
:10A3800000000000000000000000000000000000CD
:10A39000002F000000000700070000147F147F1446
:10A3A00000242A7F2A1200626408132300364955CC
:10A3B000225000000503000000001C2241000000A4
:10A3C00041221C000014083E08140008083E08083A
:10A3D000000000A060000008080808080000606095
:10A3E0000000002010080402003E5149453E0000D4
:10A3F000427F4000004261514946002141454B31B6
:10A40000001814127F10002745454539003C4A4981
:10A4100049300001710905030036494949360006F3
:10A420004949291E0000363600000000563600005B
:10A4300000081422410000141414141400004122D6
:10A44000140800020151090600324959513E007CAE
:10A450001211127C007F49494936003E4141412298
:10A46000007F4141221C007F49494941007F090981
:10A470000901003E4149497A007F0808087F000031
:10A48000417F4100002040413F01007F08142241EC
:10A49000007F40404040007F020C027F007F0408A4
:10A4A000107F003E4141413E007F09090906003E00
:10A4B0004151215E007F0919294600464949493129
:10A4C0000001017F0101003F4040403F001F20404C
:10A4D000201F003F4038403F00631408146300070A
:10A4E0000870080700615149454300007F41410061
:10A4F00000552A552A55000041417F000004020101
:10A5000002040040404040400000010204000020DE
:10A5100054545478007F484444380038444444201C
:10A5200000384444487F00385454541800087E09C9
:10A5300001020018A4A4A47C007F08040478000091
:10A54000447D4000004080847D00007F102844004E
:10A550000000417F4000007C04180478007C08045F
:10A56000047800384444443800FC2424241800189B
:10A57000242418FC007C0804040800485454542087
:10A5800000043F444020003C4040207C001C204010
:10A59000201C003C4030403C004428102844001C53
:10A5A000A0A0A07C004464544C441414141414144B
:10A5B00000000000920A063FDB0FC93F920A863F67
:10A5C000000000000000000000000000000000008B
:10A5D000000000000000000000000000000000007B
:10A5E000000000000000000000000000008080C0AB
:10A5F000E0E0F0F0F0F878783C3C3C3C1C1C1C1C83
:10A600001C1C1C1C1C181818303030606040C080A6
:10A61000000000000000000000000000000000003A
:10A62000000000000000000000000000000000002A
:10A63000000000000000000000000000000000001A
:10A64000000000000000000000000000000000000A
:10A6500000000000000000000000000000000000FA
:10A66000000000000080C0E0F8FCFEFE3F1F0F0766
:10A6700007030101000000000000000000000000CE
:10A6800000000000000000000000000000000000CA
:10A69000193C7E7E3C180000000000000000000015
:10A6A00000000000000000000000000000000000AA
:10A6B000000000000000000000000000000000009A
:10A6C000000000000000000000000000000000008A
:10A6D000000000000000000000000000000000007A
:10A6E0000080E0FCFEFFFF3F0F03010000000103BC
:10A6F000071F3F7F7F7F7F7F7F7F7F7F7F3F7F7FC2
:10A700007EFEFCFCF8F0000000000000C0F8FFFF37
:10A71000FFFFFFFFFF1F0700000000000000000018
:10A720000000000000000000000000000000000029
:10A730000000000000000000000000000000000019
:10A740000000000000000000000000000000000009
:10A7500000000000000000000000000000000000F9
:10A76000F0FFFFFFFF1F01000000000000000000DD
:10A7700000000080E0F8FEFFFFFFFF7F1F0F7EFC60
:10A78000F08001070F1F000080E0F8FFFFFFFFFFD0
:10A79000FFFF3F07000000000000F0000000000085
:10A7A00000000000000000000000000000000000A9
:10A7B0000000000000000000000000000000000099
:10A7C0000000000000000000000000000000000089
:10A7D0000000000000000000000000000000000079
:10A7E0001FFFFFFFFFC0FFF8800000000000000017
:10A7F000E0F8FEFFFFFFFFFF1F070100000000035E
:10A800001FFFF8C000C0F0FCFFFFFFFFFFFFFF1FAE
:10A810000700000000000000E0FF3F000000000013
:10A820000000000000000000000000000000000028
:10A830000000000000000000000000000000000018
:10A840000000000000000000000000000000000008
:10A8500000000000000000000000000000000000F8
:10A8600000010F3FFFFFFCEFBFFEF8F0C09034F790
:10A87000FFFFFFFFFFFFFF7C7C7C7C7C7C7C7C7C83
:10A880007C7C7D7F7F7FFFFFFFFFFFFFF3F1F0F018
:10A89000E0E0E0C0E0F0FC7F1F03000000000000EB
:10A8A00000000000000000000000000000000000A8
:10A8B0000000000000000000000000000000000098
:10A8C0000000000000000000000000000000000088
:10A8D0000000000000000000000020301018080CEC
:10A8E0000E0607070703070F1F3E7DF7EFDFBF7E4A
:10A8F000FCF8F0F0E0C0C0808080000000000000A4
:10A900000000008080C0C0C0E0E0E0707078B9BD99
:10A91000DFDF6F37170B0303070706040C08181057
:10A920000000000000000000000000000000000027
:10A930000000000000000000000000000000000017
:10A940000000000000000000000000000000000007
:10A9500000000000000000000000000000000000F7
:10A9600000000000000000000000000001010307DB
:10A97000060F0D1B1B17373F2F2F3F1F1F1E1E1EBD
:10A980001E1E1E1E1E1E1E1E0E0E0F070703030197
:10A9900001000000000000000000000000000000B6
:10A9A00000000000000000000000000000000000A7
:10A9B0000000000000000000000000000000000097
:10A9C00064009B00FF009B009A017D009A01310109
:10A9D0000E01310173003101080008070900000071
:10A9E00088130000200100000807090088130000F8
:10A9F0002000000008070900881300002000000064
:10AA00000400040000030000071000000300000021
:10AA10000000000000000000000000000000000036
:10AA20001000000000010000030000000000000012
:10AA30003400C44108000900220000001F4E00003D
:10AA400000000000000000000000000008000900F5
:10AA5000020000003F9C0000000000000000000019
:10AA60000000000008000000180000000030000096
:10AA7000080000001800000000300000080000007E
:10AA8000180000000030000008000000180000005E
:10AA90000030000000000000920E493CB10AC93CA1
:10AAA0002BC3163D2EFB483D752B7B3D04A9963DDF
:10AAB00080B6AF3D36BDC83D2FBCE13D73B2FA3D17
:10AAC00087CF093E8340163EB5AB223EA2102F3EF3
:10AAD000CF6E3B3EC2C5473E0115543E135C603EFF
:10AAE0007F9A6C3ECCCF783EC07D823E938E883E6E
:10AAF000229A8E3E32A0943E86A09A3EE59AA03ECF
:10AB0000128FA63ED47CAC3EEF63B23E2A44B83EE0
:10AB1000491DBE3E15EFC33E53B9C93ECA7BCF3E69
:10AB20004136D53E80E8DA3E4F92E03E7533E63E50
:10AB3000BBCBEB3EEA5AF13ECBE0F63E275DFC3E56
:10AB4000E4E7003F3D9C033F824B063F9BF5083FF7
:10AB50006B9A0B3FDA390E3FCDD3103F2A68133F73
:10AB6000D9F6153FC07F183FC6021B3FD17F1D3F5E
:10AB7000CBF61F3F9967223F25D2243F5636273F09
:10AB80001594293F4AEB2B3FDE3B2E3FBB85303FE0
:10AB9000C9C8323FF304353F233A373F4268393F53
:10ABA0003B8F3B3FF9AE3D3F67C73F3F70D8413FCA
:10ABB00001E2433F03E4453F65DE473F12D1493F91
:10ABC000F8BB4B3F029F4D3F207A4F3F3D4D513FD9
:10ABD0004918533F31DB543FE595563F5348583FA2
:10ABE0006AF2593F1A945B3F532D5D3F05BE5E3FAD
:10ABF0002146603F97C5613F5A3C633F59AA643F75
:10AC0000880F663FD86B673F3CBF683FA7096A3F24
:10AC10000C4B6B3F5E836C3F93B26D3F9ED86E3F93
:10AC200073F56F3F0809713F5213723F4714733F2A
:10AC3000DD0B743F0BFA743FC6DE753F07BA763FF3
:10AC4000C58B773FF853783F9812793F9DC7793F7E
:10AC500002737A3FBE147B3FCDAC7B3F283B7C3FE9
:10AC6000C9BF7C3FAC3A7D3FCCAB7D3F23137E3FD9
:10AC7000B0707E3F6DC47E3F580E7F3F6D4E7F3F6C
:10AC8000AB847F3F0FB17F3F97D37F3F43EC7F3F44
:10AC900011FB7F3F0000803F11FB7F3F43EC7F3F74
:10ACA00097D37F3F0FB17F3FAB847F3F6D4E7F3F98
:10ACB000580E7F3F6DC47E3FB0707E3F23137E3FB2
:10ACC000CCAB7D3FAC3A7D3FC9BF7C3F283B7C3F4E
:10ACD000CDAC7B3FBE147B3F02737A3F9DC7793F6B
:10ACE0009812793FF853783FC58B773F07BA763F84
:10ACF000C6DE753F0BFA743FDD0B743F4714733F9C
:10AD00005213723F0809713F73F56F3F9ED86E3F33
:10AD100093B26D3F5E836C3F0C4B6B3FA7096A3F5C
:10AD20003CBF683FD86B673F880F663F59AA643FB6
:10AD30005A3C633F97C5613F2146603F05BE5E3F79
:10AD4000532D5D3F1A945B3F6AF2593F5348583F79
:10AD5000E595563F31DB543F4918533F3D4D513F38
:10AD6000207A4F3F029F4D3FF8BB4B3F12D1493FE6
:10AD700065DE473F03E4453F01E2433F70D8413F72
:10AD800067C73F3FF9AE3D3F3B8F3B3F4268393F8E
:10AD9000233A373FF304353FC9C8323FBB85303FC4
:10ADA000DE3B2E3F4AEB2B3F1594293F5636273F7B
:10ADB00025D2243F9967223FCBF61F3FD17F1D3F0D
:10ADC000C6021B3FC07F183FD9F6153F2A68133FC4
:10ADD000CDD3103FDA390E3F6B9A0B3F9BF5083FFE
:10ADE000824B063F3D9C033FE4E7003F275DFC3E6E
:10ADF000CBE0F63EEA5AF13EBBCBEB3E7533E63E86
:10AE00004F92E03E80E8DA3E4136D53ECA7BCF3EE7
:10AE100053B9C93E15EFC33E491DBE3E2A44B83E54
:10AE2000EF63B23ED47CAC3E128FA63EE59AA03EC4
:10AE300086A09A3E32A0943E229A8E3E938E883E01
:10AE4000C07D823ECCCF783E7F9A6C3E135C603EE4
:10AE50000115543EC2C5473ECF6E3B3EA2102F3E69
:10AE6000B5AB223E8340163E87CF093E73B2FA3D12
:10AE70002FBCE13D36BDC83D80B6AF3D04A9963D2F
:10AE8000752B7B3D2EFB483D2BC3163DB10AC93CBB
:10AE9000920E493C00000000920E49BCB10AC9BCA8
:10AEA0002BC316BD2EFB48BD752B7BBD04A996BDDB
:10AEB00080B6AFBD36BDC8BD2FBCE1BD73B2FABD13
:10AEC00087CF09BE834016BEB5AB22BEA2102FBEEF
:10AED000CF6E3BBEC2C547BE011554BE135C60BEFB
:10AEE0007F9A6CBECCCF78BEC07D82BE938E88BE6A
:10AEF000229A8EBE32A094BE86A09ABEE59AA0BECB
:10AF0000128FA6BED47CACBEEF63B2BE2A44B8BEDC
:10AF1000491DBEBE15EFC3BE53B9C9BECA7BCFBE65
:10AF20004136D5BE80E8DABE4F92E0BE7533E6BE4C
:10AF3000BBCBEBBEEA5AF1BECBE0F6BE275DFCBE52
:10AF4000E4E700BF3D9C03BF824B06BF9BF508BFF3
:10AF50006B9A0BBFDA390EBFCDD310BF2A6813BF6F
:10AF6000D9F615BFC07F18BFC6021BBFD17F1DBF5A
:10AF7000CBF61FBF996722BF25D224BF563627BF05
:10AF8000159429BF4AEB2BBFDE3B2EBFBB8530BFDC
:10AF9000C9C832BFF30435BF233A37BF426839BF4F
:10AFA0003B8F3BBFF9AE3DBF67C73FBF70D841BFC6
:10AFB00001E243BF03E445BF65DE47BF12D149BF8D
:10AFC000F8BB4BBF029F4DBF207A4FBF3D4D51BFD5
:10AFD000491853BF31DB54BFE59556BF534858BF9E
:10AFE0006AF259BF1A945BBF532D5DBF05BE5EBFA9
:10AFF000214660BF97C561BF5A3C63BF59AA64BF71
:10B00000880F66BFD86B67BF3CBF68BFA7096ABF20
:10B010000C4B6BBF5E836CBF93B26DBF9ED86EBF8F
:10B0200073F56FBF080971BF521372BF471473BF26
:10B03000DD0B74BF0BFA74BFC6DE75BF07BA76BFEF
:10B04000C58B77BFF85378BF981279BF9DC779BF7A
:10B0500002737ABFBE147BBFCDAC7BBF283B7CBFE5
:10B06000C9BF7CBFAC3A7DBFCCAB7DBF23137EBFD5
:10B07000B0707EBF6DC47EBF580E7FBF6D4E7FBF68
:10B08000AB847FBF0FB17FBF97D37FBF43EC7FBF40
:10B0900011FB7FBF000080BF11FB7FBF43EC7FBF70
:10B0A00097D37FBF0FB17FBFAB847FBF6D4E7FBF94
:10B0B000580E7FBF6DC47EBFB0707EBF23137EBFAE
:10B0C000CCAB7DBFAC3A7DBFC9BF7CBF283B7CBF4A
:10B0D000CDAC7BBFBE147BBF02737ABF9DC779BF67
:10B0E000981279BFF85378BFC58B77BF07BA76BF80
:10B0F000C6DE75BF0BFA74BFDD0B74BF471473BF98
:10B10000521372BF080971BF73F56FBF9ED86EBF2F
:10B1100093B26DBF5E836CBF0C4B6BBFA7096ABF58
:10B120003CBF68BFD86B67BF880F66BF59AA64BFB2
:10B130005A3C63BF97C561BF214660BF05BE5EBF75
:10B14000532D5DBF1A945BBF6AF259BF534858BF75
:10B15000E59556BF31DB54BF491853BF3D4D51BF34
:10B16000207A4FBF029F4DBFF8BB4BBF12D149BFE2
:10B1700065DE47BF03E445BF01E243BF70D841BF6E
:10B1800067C73FBFF9AE3DBF3B8F3BBF426839BF8A
:10B19000233A37BFF30435BFC9C832BFBB8530BFC0
:10B1A000DE3B2EBF4AEB2BBF159429BF563627BF77
:10B1B00025D224BF996722BFCBF61FBFD17F1DBF09
:10B1C000C6021BBFC07F18BFD9F615BF2A6813BFC0
:10B1D000CDD310BFDA390EBF6B9A0BBF9BF508BFFA
:10B1E000824B06BF3D9C03BFE4E700BF275DFCBE6A
:10B1F000CBE0F6BEEA5AF1BEBBCBEBBE7533E6BE82
:10B200004F92E0BE80E8DABE4136D5BECA7BCFBEE3
:10B2100053B9C9BE15EFC3BE491DBEBE2A44B8BE50
:10B22000EF63B2BED47CACBE128FA6BEE59AA0BEC0
:10B2300086A09ABE32A094BE229A8EBE938E88BEFD
:10B24000C07D82BECCCF78BE7F9A6CBE135C60BEE0
:10B25000011554BEC2C547BECF6E3BBEA2102FBE65
:10B26000B5AB22BE834016BE87CF09BE73B2FABD0E
:10B270002FBCE1BD36BDC8BD80B6AFBD04A996BD2B
:10B28000752B7BBD2EFB48BD2BC316BDB10AC9BCB7
:10B29000920E49BC0000008020202020446F6E27C1
:10B2A0007420576F72727920002A002B002D0070D5
:10B2B0003130007032300070313100703231007046
:10B2C0003100703132007032320070320070313330
:10B2D000007032330070330070313400703234004B
:10B2E00070340070313500703235007035007031C7
:10B2F00036007032360070360070313700703237E9
:10B3000000703700703138007032380070380070CB
:10B3100031390070390041433A00494E433A0053F5
:10B32000444B3A00503A00523A004550563A004ECB
:10B3300050563A005550563A00593A0052657365D6
:10B34000727665642053686F7720506167653A00B4
:10B3500020202020506167652055702F446F776E44
:10B36000002020436F6E74696E756520507265739E
:10B370007320546F006E61765F706F696E743A313E
:10B38000352F323120652D6E2D75006E61765F7020
:10B390006F696E743A382F313420652D6E2D75002B
:10B3A0006E61765F706F696E743A312F3720652D4C
:10B3B0006E2D75006E61765F706F696E743A323211
:10B3C0002F323820652D6E2D7500230023000000DC
:10B3D000F0B30000000020203803000086080000C1
:10B3E00010B4000038032020102E000028010000B7
:10B3F0002E0E0BA1A2FFFC0D01020406070146015F
:10B400000001000103FFC84101FF01FF01234201C8
:04000005000000C136
:00000001FF
