Component: Arm Compiler for Embedded 6.21 Tool: armlink [5ec1fa00]

==============================================================================

Section Cross References

    dl_adc12.o(.text.DL_ADC12_setClockConfig) refers to dl_adc12.o(.text.DL_Common_updateReg) for DL_Common_updateReg
    dl_adc12.o(.ARM.exidx.text.DL_ADC12_setClockConfig) refers to dl_adc12.o(.text.DL_ADC12_setClockConfig) for [Anonymous Symbol]
    dl_adc12.o(.ARM.exidx.text.DL_Common_updateReg) refers to dl_adc12.o(.text.DL_Common_updateReg) for [Anonymous Symbol]
    dl_adc12.o(.ARM.exidx.text.DL_ADC12_getClockConfig) refers to dl_adc12.o(.text.DL_ADC12_getClockConfig) for [Anonymous Symbol]
    dl_aes.o(.text.DL_AES_setKey) refers to dl_aes.o(.text.DL_AES_checkAlignmentAndReturnPointer) for DL_AES_checkAlignmentAndReturnPointer
    dl_aes.o(.text.DL_AES_setKey) refers to dl_aes.o(.text.DL_AES_setKeyAligned) for DL_AES_setKeyAligned
    dl_aes.o(.ARM.exidx.text.DL_AES_setKey) refers to dl_aes.o(.text.DL_AES_setKey) for [Anonymous Symbol]
    dl_aes.o(.ARM.exidx.text.DL_AES_checkAlignmentAndReturnPointer) refers to dl_aes.o(.text.DL_AES_checkAlignmentAndReturnPointer) for [Anonymous Symbol]
    dl_aes.o(.text.DL_AES_setKeyAligned) refers to dl_aes.o(.text.DL_AES_loadDataWord) for DL_AES_loadDataWord
    dl_aes.o(.ARM.exidx.text.DL_AES_setKeyAligned) refers to dl_aes.o(.text.DL_AES_setKeyAligned) for [Anonymous Symbol]
    dl_aes.o(.ARM.exidx.text.DL_AES_loadDataWord) refers to dl_aes.o(.text.DL_AES_loadDataWord) for [Anonymous Symbol]
    dl_aes.o(.text.DL_AES_loadDataIn) refers to dl_aes.o(.text.DL_AES_checkAlignmentAndReturnPointer) for DL_AES_checkAlignmentAndReturnPointer
    dl_aes.o(.text.DL_AES_loadDataIn) refers to dl_aes.o(.text.DL_AES_loadDataInAligned) for DL_AES_loadDataInAligned
    dl_aes.o(.ARM.exidx.text.DL_AES_loadDataIn) refers to dl_aes.o(.text.DL_AES_loadDataIn) for [Anonymous Symbol]
    dl_aes.o(.text.DL_AES_loadDataInAligned) refers to dl_aes.o(.text.DL_AES_loadDataWord) for DL_AES_loadDataWord
    dl_aes.o(.ARM.exidx.text.DL_AES_loadDataInAligned) refers to dl_aes.o(.text.DL_AES_loadDataInAligned) for [Anonymous Symbol]
    dl_aes.o(.text.DL_AES_getDataOut) refers to dl_aes.o(.text.DL_AES_getDataOutAligned) for DL_AES_getDataOutAligned
    dl_aes.o(.ARM.exidx.text.DL_AES_getDataOut) refers to dl_aes.o(.text.DL_AES_getDataOut) for [Anonymous Symbol]
==============================================================================

Removing Unused input sections from the image.

    Removing dl_adc12.o(.text), (0 bytes).
    Removing dl_adc12.o(.text.DL_ADC12_setClockConfig), (76 bytes).
    Removing dl_adc12.o(.ARM.exidx.text.DL_ADC12_setClockConfig), (8 bytes).
    Removing dl_adc12.o(.text.DL_Common_updateReg), (40 bytes).
    Removing dl_adc12.o(.ARM.exidx.text.DL_Common_updateReg), (8 bytes).
    Removing dl_adc12.o(.text.DL_ADC12_getClockConfig), (76 bytes).
    Removing dl_adc12.o(.ARM.exidx.text.DL_ADC12_getClockConfig), (8 bytes).
    Removing dl_aes.o(.text), (0 bytes).
    Removing dl_aes.o(.text.DL_AES_setKey), (64 bytes).
    Removing dl_aes.o(.ARM.exidx.text.DL_AES_setKey), (8 bytes).
    Removing dl_aes.o(.text.DL_AES_checkAlignmentAndReturnPointer), (36 bytes).
    Removing dl_aes.o(.ARM.exidx.text.DL_AES_checkAlignmentAndReturnPointer), (8 bytes).
    Removing dl_aes.o(.text.DL_AES_setKeyAligned), (80 bytes).
    Removing dl_aes.o(.ARM.exidx.text.DL_AES_setKeyAligned), (8 bytes).
    Removing dl_aes.o(.text.DL_AES_loadDataWord), (66 bytes).
    Removing dl_aes.o(.ARM.exidx.text.DL_AES_loadDataWord), (8 bytes).
    Removing dl_aes.o(.text.DL_AES_loadDataIn), (56 bytes).
    Removing dl_aes.o(.ARM.exidx.text.DL_AES_loadDataIn), (8 bytes).
==============================================================================

Image Symbol Table

    Local Symbols

    Symbol Name                              Value     Ov Type        Size  Object(Section)

    ../clib/../cmprslib/zerorunl.c           0x00000000   Number         0  __dczerorl.o ABSOLUTE
    ../clib/angel/boardlib.s                 0x00000000   Number         0  boardinit1.o ABSOLUTE
    ../clib/angel/boardlib.s                 0x00000000   Number         0  boardinit2.o ABSOLUTE
    ../clib/angel/boardlib.s                 0x00000000   Number         0  boardinit3.o ABSOLUTE
    ../clib/angel/boardlib.s                 0x00000000   Number         0  boardshut.o ABSOLUTE
    ../clib/angel/handlers.s                 0x00000000   Number         0  __scatter_zi.o ABSOLUTE
    ../clib/angel/kernel.s                   0x00000000   Number         0  __rtentry.o ABSOLUTE
    ../clib/angel/kernel.s                   0x00000000   Number         0  __rtentry2.o ABSOLUTE
    ../clib/angel/kernel.s                   0x00000000   Number         0  __rtentry4.o ABSOLUTE
    ../clib/angel/kernel.s                   0x00000000   Number         0  rtexit.o ABSOLUTE
    ../clib/angel/kernel.s                   0x00000000   Number         0  rtexit2.o ABSOLUTE
    ../clib/angel/rt.s                       0x00000000   Number         0  aeabi_idiv0.o ABSOLUTE
    ../clib/angel/rt.s                       0x00000000   Number         0  aeabi_idiv0_sigfpe.o ABSOLUTE
    ../clib/angel/rt.s                       0x00000000   Number         0  rt_div0.o ABSOLUTE
    ../clib/angel/rt.s                       0x00000000   Number         0  rt_errno_addr.o ABSOLUTE
    ../clib/angel/rt.s                       0x00000000   Number         0  rt_errno_addr_intlibspace.o ABSOLUTE
    ../clib/angel/rt.s                       0x00000000   Number         0  rt_raise.o ABSOLUTE
    ../clib/angel/scatterp.s                 0x00000000   Number         0  __scatter.o ABSOLUTE
    ../clib/angel/startup.s                  0x00000000   Number         0  __main.o ABSOLUTE
    ../clib/angel/sys.s                      0x00000000   Number         0  libspace.o ABSOLUTE
    ../clib/angel/sys.s                      0x00000000   Number         0  sys_stackheap_outer.o ABSOLUTE
    ../clib/angel/sys.s                      0x00000000   Number         0  tempstk.o ABSOLUTE
    ../clib/angel/sys.s                      0x00000000   Number         0  use_no_semi.o ABSOLUTE
    ../clib/angel/sys.s                      0x00000000   Number         0  indicate_semi.o ABSOLUTE
    ../clib/angel/sysapp.c                   0x00000000   Number         0  sys_exit.o ABSOLUTE
    ../clib/angel/sysapp.c                   0x00000000   Number         0  sys_exit_hlt.o ABSOLUTE
    ../clib/angel/sysapp.c                   0x00000000   Number         0  sys_wrch.o ABSOLUTE
    ../clib/angel/sysapp.c                   0x00000000   Number         0  sys_wrch_hlt.o ABSOLUTE
    ../clib/angel/sysapp.c                   0x00000000   Number         0  sys_command.o ABSOLUTE
    ../clib/angel/sysapp.c                   0x00000000   Number         0  sys_command_hlt.o ABSOLUTE
    ../clib/armsys.c                         0x00000000   Number         0  argv_veneer.o ABSOLUTE
    ../clib/armsys.c                         0x00000000   Number         0  _get_argv_nomalloc.o ABSOLUTE
    ../clib/armsys.c                         0x00000000   Number         0  no_argv.o ABSOLUTE
    ../clib/division.s                       0x00000000   Number         0  aeabi_sdiv.o ABSOLUTE
    ../clib/division.s                       0x00000000   Number         0  aeabi_sdiv_div0.o ABSOLUTE
    ../clib/fenv.c                           0x00000000   Number         0  _rserrno.o ABSOLUTE
    ../clib/heapalloc.c                      0x00000000   Number         0  hrguard.o ABSOLUTE
    ../clib/heapaux.c                        0x00000000   Number         0  heapauxi.o ABSOLUTE
    ../clib/libinit.s                        0x00000000   Number         0  libinit.o ABSOLUTE
    ../clib/libinit.s                        0x00000000   Number         0  libinit2.o ABSOLUTE
    ../clib/libinit.s                        0x00000000   Number         0  libshutdown.o ABSOLUTE
    ../clib/libinit.s                        0x00000000   Number         0  libshutdown2.o ABSOLUTE
    ../clib/memcpset.c                       0x00000000   Number         0  rt_memclr.o ABSOLUTE
    ../clib/signal.c                         0x00000000   Number         0  defsig_fpe_outer.o ABSOLUTE
    ../clib/signal.c                         0x00000000   Number         0  defsig_fpe_formal.o ABSOLUTE
    ../clib/signal.c                         0x00000000   Number         0  defsig_exit.o ABSOLUTE
    ../clib/signal.c                         0x00000000   Number         0  defsig_fpe_inner.o ABSOLUTE
    ../clib/signal.c                         0x00000000   Number         0  __raise.o ABSOLUTE
    ../clib/signal.c                         0x00000000   Number         0  defsig_general.o ABSOLUTE
    ../clib/signal.c                         0x00000000   Number         0  defsig_abrt_inner.o ABSOLUTE
    ../clib/signal.c                         0x00000000   Number         0  defsig_rtred_inner.o ABSOLUTE
    ../clib/signal.c                         0x00000000   Number         0  defsig_rtmem_inner.o ABSOLUTE
    ../clib/signal.c                         0x00000000   Number         0  defsig_rtmem_outer.o ABSOLUTE
    ../clib/signal.c                         0x00000000   Number         0  defsig_rtmem_formal.o ABSOLUTE
    ../clib/signal.c                         0x00000000   Number         0  defsig_stak_inner.o ABSOLUTE
    ../clib/signal.c                         0x00000000   Number         0  defsig_pvfn_inner.o ABSOLUTE
    ../clib/signal.c                         0x00000000   Number         0  defsig_cppl_inner.o ABSOLUTE
    ../clib/signal.c                         0x00000000   Number         0  defsig_segv_inner.o ABSOLUTE
    ../clib/signal.c                         0x00000000   Number         0  defsig_other.o ABSOLUTE
    ../clib/signal.s                         0x00000000   Number         0  defsig.o ABSOLUTE
    ../clib/stdlib.c                         0x00000000   Number         0  exit.o ABSOLUTE
    ../fplib/cfplib/cmp.c                    0x00000000   Number         0  dcmp.o ABSOLUTE
    ../fplib/cfplib/cmp.c                    0x00000000   Number         0  fcmp.o ABSOLUTE
    ../fplib/cfplib/cmpret.c                 0x00000000   Number         0  cmpret.o ABSOLUTE
    ../fplib/cfplib/dcmpin.c                 0x00000000   Number         0  dcmpin.o ABSOLUTE
    ../fplib/cfplib/f2d.c                    0x00000000   Number         0  f2d.o ABSOLUTE
    ../fplib/cfplib/fcmpin.c                 0x00000000   Number         0  fcmpin.o ABSOLUTE
    ../fplib/cfplib/fdiv.c                   0x00000000   Number         0  fdiv.o ABSOLUTE
    ../fplib/cfplib/ffix.c                   0x00000000   Number         0  ffixi.o ABSOLUTE
    ../fplib/cfplib/fflt.c                   0x00000000   Number         0  fflti.o ABSOLUTE
    ../fplib/cfplib/fpinit.c                 0x00000000   Number         0  fpinit.o ABSOLUTE
    ../fplib/cfplib/frnd.c                   0x00000000   Number         0  frnd.o ABSOLUTE
    ../fplib/cfplib/fsqrt.c                  0x00000000   Number         0  fsqrt.o ABSOLUTE
    ../fplib/cfplib/nan2.c                   0x00000000   Number         0  dnan2.o ABSOLUTE
    ../fplib/cfplib/nan2.c                   0x00000000   Number         0  fnan2.o ABSOLUTE
    ../fplib/cfplib/retnan.c                 0x00000000   Number         0  retnan.o ABSOLUTE
    ../fplib/cfplib/scalbn.c                 0x00000000   Number         0  fscalbn.o ABSOLUTE
    ../fplib/deqf6m.s                        0x00000000   Number         0  deqf.o ABSOLUTE
    ../fplib/dgeqf6m.s                       0x00000000   Number         0  dgef.o ABSOLUTE
    ../fplib/dleqf6m.s                       0x00000000   Number         0  dlef.o ABSOLUTE
    ../fplib/faddsub6m.s                     0x00000000   Number         0  faddsub.o ABSOLUTE
    ../fplib/feqf6m.s                        0x00000000   Number         0  feqf.o ABSOLUTE
    ../fplib/fgeqf6m.s                       0x00000000   Number         0  fgef.o ABSOLUTE
    ../fplib/fleqf6m.s                       0x00000000   Number         0  flef.o ABSOLUTE
    ../fplib/fmul6m.s                        0x00000000   Number         0  fmul.o ABSOLUTE
    ../fplib/usenofp.s                       0x00000000   Number         0  usenofp.o ABSOLUTE
    ../mathlib/asinf.c                       0x00000000   Number         0  asinf.o ABSOLUTE
    ../mathlib/atan2f.c                      0x00000000   Number         0  atan2f.o ABSOLUTE
    ../mathlib/atanf.c                       0x00000000   Number         0  atanf.o ABSOLUTE
    ../mathlib/cosf.c                        0x00000000   Number         0  cosf.o ABSOLUTE
    ../mathlib/fpclassifyf.c                 0x00000000   Number         0  fpclassifyf.o ABSOLUTE
    ../mathlib/funder.c                      0x00000000   Number         0  funder.o ABSOLUTE
    ../mathlib/rredf.c                       0x00000000   Number         0  rredf.o ABSOLUTE
    ../mathlib/sqrtf.c                       0x00000000   Number         0  sqrtf.o ABSOLUTE
    ../mathlib/tanf.c                        0x00000000   Number         0  tanf.o ABSOLUTE
    ..\source\ti\devices\msp\m0p\startup_system_files\keil\startup_mspm0g350x_uvision.s 0x00000000   Number         0  startup_mspm0g350x_uvision.o ABSOLUTE
    bsp_eeprom.c                             0x00000000   Number         0  bsp_eeprom.o ABSOLUTE
    bsp_led.c                                0x00000000   Number         0  bsp_led.o ABSOLUTE
    bsp_pwm.c                                0x00000000   Number         0  bsp_pwm.o ABSOLUTE
    bsp_timer.c                              0x00000000   Number         0  bsp_timer.o ABSOLUTE
    bsp_usart.c                              0x00000000   Number         0  bsp_usart.o ABSOLUTE
    dc.s                                     0x00000000   Number         0  dc.o ABSOLUTE
    developer_mode.c                         0x00000000   Number         0  developer_mode.o ABSOLUTE
    dl_adc12.c                               0x00000000   Number         0  dl_adc12.o ABSOLUTE
    dl_aes.c                                 0x00000000   Number         0  dl_aes.o ABSOLUTE
    dl_aesadv.c                              0x00000000   Number         0  dl_aesadv.o ABSOLUTE
    dl_common.c                              0x00000000   Number         0  dl_common.o ABSOLUTE
    dl_crc.c                                 0x00000000   Number         0  dl_crc.o ABSOLUTE
    dl_crcp.c                                0x00000000   Number         0  dl_crcp.o ABSOLUTE
    dl_dac12.c                               0x00000000   Number         0  dl_dac12.o ABSOLUTE
    dl_dma.c                                 0x00000000   Number         0  dl_dma.o ABSOLUTE
    dl_flashctl.c                            0x00000000   Number         0  dl_flashctl.o ABSOLUTE
    dl_i2c.c                                 0x00000000   Number         0  dl_i2c.o ABSOLUTE
    dl_interrupt.c                           0x00000000   Number         0  dl_interrupt.o ABSOLUTE
    dl_keystorectl.c                         0x00000000   Number         0  dl_keystorectl.o ABSOLUTE
    dl_lcd.c                                 0x00000000   Number         0  dl_lcd.o ABSOLUTE
    dl_lfss.c                                0x00000000   Number         0  dl_lfss.o ABSOLUTE
    dl_mathacl.c                             0x00000000   Number         0  dl_mathacl.o ABSOLUTE
    dl_mcan.c                                0x00000000   Number         0  dl_mcan.o ABSOLUTE
    dl_opa.c                                 0x00000000   Number         0  dl_opa.o ABSOLUTE
    dl_rtc_common.c                          0x00000000   Number         0  dl_rtc_common.o ABSOLUTE
    dl_spi.c                                 0x00000000   Number         0  dl_spi.o ABSOLUTE
    dl_sysctl_mspm0g1x0x_g3x0x.c             0x00000000   Number         0  dl_sysctl_mspm0g1x0x_g3x0x.o ABSOLUTE
    dl_timer.c                               0x00000000   Number         0  dl_timer.o ABSOLUTE
    dl_trng.c                                0x00000000   Number         0  dl_trng.o ABSOLUTE
    dl_uart.c                                0x00000000   Number         0  dl_uart.o ABSOLUTE
    dl_vref.c                                0x00000000   Number         0  dl_vref.o ABSOLUTE
    drv_expand.c                             0x00000000   Number         0  drv_expand.o ABSOLUTE
    drv_i2c.c                                0x00000000   Number         0  drv_i2c.o ABSOLUTE
    drv_oled.c                               0x00000000   Number         0  drv_oled.o ABSOLUTE
    filter.c                                 0x00000000   Number         0  filter.o ABSOLUTE
    key.c                                    0x00000000   Number         0  key.o ABSOLUTE
    main.c                                   0x00000000   Number         0  main.o ABSOLUTE
    nclink.c                                 0x00000000   Number         0  nclink.o ABSOLUTE
    pid.c                                    0x00000000   Number         0  pid.o ABSOLUTE
    quaternion.c                             0x00000000   Number         0  quaternion.o ABSOLUTE
    sensor.c                                 0x00000000   Number         0  sensor.o ABSOLUTE
    ssd1306.c                                0x00000000   Number         0  ssd1306.o ABSOLUTE
    subtask_demo.c                           0x00000000   Number         0  subtask_demo.o ABSOLUTE
    systick.c                                0x00000000   Number         0  systick.o ABSOLUTE
    ti_msp_dl_config.c                       0x00000000   Number         0  ti_msp_dl_config.o ABSOLUTE
    user_ctrl.c                              0x00000000   Number         0  user_ctrl.o ABSOLUTE
    w25qxx.c                                 0x00000000   Number         0  w25qxx.o ABSOLUTE
    wp_math.c                                0x00000000   Number         0  wp_math.o ABSOLUTE
    RESET                                    0x00000000   Section      192  startup_mspm0g350x_uvision.o(RESET)
    !!!main                                  0x000000c0   Section        8  __main.o(!!!main)
    !!!scatter                               0x000000c8   Section       84  __scatter.o(!!!scatter)
    !!handler_null                           0x00000120   Section        2  __scatter.o(!!handler_null)
    !!handler_zi                             0x00000128   Section       28  __scatter_zi.o(!!handler_zi)
    .ARM.Collect$$libinit$$00000000          0x00000144   Section        2  libinit.o(.ARM.Collect$$libinit$$00000000)
    .ARM.Collect$$libinit$$00000002          0x00000146   Section        0  libinit2.o(.ARM.Collect$$libinit$$00000002)
    .ARM.Collect$$libinit$$00000004          0x00000146   Section        0  libinit2.o(.ARM.Collect$$libinit$$00000004)
    .ARM.Collect$$libinit$$00000006          0x00000146   Section        0  libinit2.o(.ARM.Collect$$libinit$$00000006)
    .ARM.Collect$$libinit$$0000000C          0x00000146   Section        0  libinit2.o(.ARM.Collect$$libinit$$0000000C)
    .ARM.Collect$$libinit$$0000000E          0x00000146   Section        0  libinit2.o(.ARM.Collect$$libinit$$0000000E)
    .ARM.Collect$$libinit$$00000010          0x00000146   Section        0  libinit2.o(.ARM.Collect$$libinit$$00000010)
    .ARM.Collect$$libinit$$00000013          0x00000146   Section        0  libinit2.o(.ARM.Collect$$libinit$$00000013)
    .ARM.Collect$$libinit$$00000015          0x00000146   Section        0  libinit2.o(.ARM.Collect$$libinit$$00000015)
    .ARM.Collect$$libinit$$00000017          0x00000146   Section        0  libinit2.o(.ARM.Collect$$libinit$$00000017)
    .ARM.Collect$$libinit$$00000019          0x00000146   Section        0  libinit2.o(.ARM.Collect$$libinit$$00000019)
    .ARM.Collect$$libinit$$0000001B          0x00000146   Section        0  libinit2.o(.ARM.Collect$$libinit$$0000001B)
    .ARM.Collect$$libinit$$0000001D          0x00000146   Section        0  libinit2.o(.ARM.Collect$$libinit$$0000001D)
    .ARM.Collect$$libinit$$0000001F          0x00000146   Section        0  libinit2.o(.ARM.Collect$$libinit$$0000001F)
    .ARM.Collect$$libinit$$00000021          0x00000146   Section        0  libinit2.o(.ARM.Collect$$libinit$$00000021)
    .ARM.Collect$$libinit$$00000023          0x00000146   Section        0  libinit2.o(.ARM.Collect$$libinit$$00000023)
    .ARM.Collect$$libinit$$00000025          0x00000146   Section        0  libinit2.o(.ARM.Collect$$libinit$$00000025)
    .ARM.Collect$$libinit$$00000027          0x00000146   Section        0  libinit2.o(.ARM.Collect$$libinit$$00000027)
    .ARM.Collect$$libinit$$0000002E          0x00000146   Section        0  libinit2.o(.ARM.Collect$$libinit$$0000002E)
    .ARM.Collect$$libinit$$00000030          0x00000146   Section        0  libinit2.o(.ARM.Collect$$libinit$$00000030)
    .ARM.Collect$$libinit$$00000032          0x00000146   Section        0  libinit2.o(.ARM.Collect$$libinit$$00000032)
    .ARM.Collect$$libinit$$00000034          0x00000146   Section        0  libinit2.o(.ARM.Collect$$libinit$$00000034)
    .ARM.Collect$$libinit$$00000035          0x00000146   Section        2  libinit2.o(.ARM.Collect$$libinit$$00000035)
    .ARM.Collect$$libshutdown$$00000000      0x00000148   Section        2  libshutdown.o(.ARM.Collect$$libshutdown$$00000000)
    .ARM.Collect$$libshutdown$$00000002      0x0000014a   Section        0  libshutdown2.o(.ARM.Collect$$libshutdown$$00000002)
    .ARM.Collect$$libshutdown$$00000004      0x0000014a   Section        0  libshutdown2.o(.ARM.Collect$$libshutdown$$00000004)
    .ARM.Collect$$libshutdown$$00000007      0x0000014a   Section        0  libshutdown2.o(.ARM.Collect$$libshutdown$$00000007)
    .ARM.Collect$$libshutdown$$0000000A      0x0000014a   Section        0  libshutdown2.o(.ARM.Collect$$libshutdown$$0000000A)
    .ARM.Collect$$libshutdown$$0000000C      0x0000014a   Section        0  libshutdown2.o(.ARM.Collect$$libshutdown$$0000000C)
    .ARM.Collect$$libshutdown$$0000000F      0x0000014a   Section        0  libshutdown2.o(.ARM.Collect$$libshutdown$$0000000F)
    .ARM.Collect$$libshutdown$$00000010      0x0000014a   Section        2  libshutdown2.o(.ARM.Collect$$libshutdown$$00000010)
    .ARM.Collect$$rtentry$$00000000          0x0000014c   Section        0  __rtentry.o(.ARM.Collect$$rtentry$$00000000)
    .ARM.Collect$$rtentry$$00000002          0x0000014c   Section        0  __rtentry2.o(.ARM.Collect$$rtentry$$00000002)
    .ARM.Collect$$rtentry$$00000004          0x0000014c   Section        6  __rtentry4.o(.ARM.Collect$$rtentry$$00000004)
    .ARM.Collect$$rtentry$$00000009          0x00000152   Section        0  __rtentry2.o(.ARM.Collect$$rtentry$$00000009)
    .ARM.Collect$$rtentry$$0000000A          0x00000152   Section        4  __rtentry2.o(.ARM.Collect$$rtentry$$0000000A)
    .ARM.Collect$$rtentry$$0000000C          0x00000156   Section        0  __rtentry2.o(.ARM.Collect$$rtentry$$0000000C)
    .ARM.Collect$$rtentry$$0000000D          0x00000156   Section        8  __rtentry2.o(.ARM.Collect$$rtentry$$0000000D)
    .ARM.Collect$$rtexit$$00000000           0x0000015e   Section        2  rtexit.o(.ARM.Collect$$rtexit$$00000000)
    .ARM.Collect$$rtexit$$00000002           0x00000160   Section        0  rtexit2.o(.ARM.Collect$$rtexit$$00000002)
    .ARM.Collect$$rtexit$$00000003           0x00000160   Section        4  rtexit2.o(.ARM.Collect$$rtexit$$00000003)
    .ARM.Collect$$rtexit$$00000004           0x00000164   Section        6  rtexit2.o(.ARM.Collect$$rtexit$$00000004)
    .text                                    0x0000016c   Section       48  startup_mspm0g350x_uvision.o(.text)
    .text                                    0x0000019c   Section        0  rt_memclr.o(.text)
    .text                                    0x000001dc   Section      364  aeabi_sdiv.o(.text)
    .text                                    0x00000348   Section        0  heapauxi.o(.text)
    .text                                    0x00000350   Section        0  f2d.o(.text)
    .text                                    0x000003a4   Section        0  fdiv.o(.text)
    .text                                    0x00000504   Section        0  ffixi.o(.text)
    .text                                    0x00000550   Section        0  fflti.o(.text)
    .text                                    0x000005ae   Section        0  _rserrno.o(.text)
    .text                                    0x000005c4   Section        0  frnd.o(.text)
    .text                                    0x00000644   Section        0  fscalbn.o(.text)
    .text                                    0x00000688   Section        0  fsqrt.o(.text)
    .text                                    0x00000718   Section        8  rt_errno_addr_intlibspace.o(.text)
    .text                                    0x00000720   Section        0  fcmpin.o(.text)
    .text                                    0x00000784   Section        8  libspace.o(.text)
    .text                                    0x0000078c   Section       62  sys_stackheap_outer.o(.text)
    .text                                    0x000007ca   Section        0  exit.o(.text)
    .text                                    0x000007da   Section        0  cmpret.o(.text)
    .text                                    0x00000808   Section        0  fnan2.o(.text)
    .text                                    0x00000818   Section        0  retnan.o(.text)
    .text                                    0x00000878   Section        0  sys_exit.o(.text)
    .text                                    0x00000884   Section        2  use_no_semi.o(.text)
    .text                                    0x00000886   Section        0  indicate_semi.o(.text)
    .text                                    0x00000886   Section        0  __dczerorl.o(.text)
    [Anonymous Symbol]                       0x000008c0   Section        0  bsp_eeprom.o(.text.AT24CXX_Check)
    [Anonymous Symbol]                       0x00000918   Section        0  bsp_eeprom.o(.text.AT24CXX_Erase_All)
    __arm_cp.10_0                            0x00000950   Number         4  bsp_eeprom.o(.text.AT24CXX_Erase_All)
    [Anonymous Symbol]                       0x00000954   Section        0  bsp_eeprom.o(.text.AT24CXX_Init)
    [Anonymous Symbol]                       0x00000970   Section        0  bsp_eeprom.o(.text.AT24CXX_ReadOneByte)
    [Anonymous Symbol]                       0x000009cc   Section        0  bsp_eeprom.o(.text.AT24CXX_WriteOneByte)
    [Anonymous Symbol]                       0x00000a1c   Section        0  subtask_demo.o(.text.Air_Ground_Extinguish_Fire_System_Basic)
    __arm_cp.16_0                            0x00000d94   Number         4  subtask_demo.o(.text.Air_Ground_Extinguish_Fire_System_Basic)
    __arm_cp.16_1                            0x00000d98   Number         4  subtask_demo.o(.text.Air_Ground_Extinguish_Fire_System_Basic)
    __arm_cp.16_4                            0x00000d9c   Number         4  subtask_demo.o(.text.Air_Ground_Extinguish_Fire_System_Basic)
    __arm_cp.16_5                            0x00000da0   Number         4  subtask_demo.o(.text.Air_Ground_Extinguish_Fire_System_Basic)
    __arm_cp.16_6                            0x00000da4   Number         4  subtask_demo.o(.text.Air_Ground_Extinguish_Fire_System_Basic)
    __arm_cp.16_7                            0x00000da8   Number         4  subtask_demo.o(.text.Air_Ground_Extinguish_Fire_System_Basic)
    __arm_cp.16_8                            0x00000dac   Number         4  subtask_demo.o(.text.Air_Ground_Extinguish_Fire_System_Basic)
    __arm_cp.16_10                           0x00000db0   Number         4  subtask_demo.o(.text.Air_Ground_Extinguish_Fire_System_Basic)
    __arm_cp.16_11                           0x00000db4   Number         4  subtask_demo.o(.text.Air_Ground_Extinguish_Fire_System_Basic)
    __arm_cp.16_12                           0x00000db8   Number         4  subtask_demo.o(.text.Air_Ground_Extinguish_Fire_System_Basic)
    __arm_cp.16_13                           0x00000dbc   Number         4  subtask_demo.o(.text.Air_Ground_Extinguish_Fire_System_Basic)
    __arm_cp.16_14                           0x00000dc0   Number         4  subtask_demo.o(.text.Air_Ground_Extinguish_Fire_System_Basic)
    __arm_cp.16_15                           0x00000dc4   Number         4  subtask_demo.o(.text.Air_Ground_Extinguish_Fire_System_Basic)
    __arm_cp.16_16                           0x00000dc8   Number         4  subtask_demo.o(.text.Air_Ground_Extinguish_Fire_System_Basic)
    [Anonymous Symbol]                       0x00000dcc   Section        0  developer_mode.o(.text.Auto_Flight_Ctrl)
    __arm_cp.2_0                             0x00000f6c   Number         4  developer_mode.o(.text.Auto_Flight_Ctrl)
    __arm_cp.2_1                             0x00000f70   Number         4  developer_mode.o(.text.Auto_Flight_Ctrl)
    __arm_cp.2_2                             0x00000f74   Number         4  developer_mode.o(.text.Auto_Flight_Ctrl)
    __arm_cp.2_3                             0x00000f78   Number         4  developer_mode.o(.text.Auto_Flight_Ctrl)
    __arm_cp.2_4                             0x00000f7c   Number         4  developer_mode.o(.text.Auto_Flight_Ctrl)
    __arm_cp.2_5                             0x00000f80   Number         4  developer_mode.o(.text.Auto_Flight_Ctrl)
    __arm_cp.2_7                             0x00000f84   Number         4  developer_mode.o(.text.Auto_Flight_Ctrl)
    [Anonymous Symbol]                       0x00000f88   Section        0  subtask_demo.o(.text.Auto_Takeoff)
    __arm_cp.13_0                            0x00001080   Number         4  subtask_demo.o(.text.Auto_Takeoff)
    __arm_cp.13_1                            0x00001084   Number         4  subtask_demo.o(.text.Auto_Takeoff)
    __arm_cp.13_2                            0x00001088   Number         4  subtask_demo.o(.text.Auto_Takeoff)
    __arm_cp.13_3                            0x0000108c   Number         4  subtask_demo.o(.text.Auto_Takeoff)
    __arm_cp.13_4                            0x00001090   Number         4  subtask_demo.o(.text.Auto_Takeoff)
    __arm_cp.13_5                            0x00001094   Number         4  subtask_demo.o(.text.Auto_Takeoff)
    __arm_cp.13_6                            0x00001098   Number         4  subtask_demo.o(.text.Auto_Takeoff)
    [Anonymous Symbol]                       0x0000109c   Section        0  bsp_led.o(.text.Bling_Process)
    [Anonymous Symbol]                       0x00001144   Section        0  bsp_led.o(.text.Bling_Set)
    [Anonymous Symbol]                       0x0000119c   Section        0  bsp_led.o(.text.Bling_Working)
    __arm_cp.6_0                             0x000011f8   Number         4  bsp_led.o(.text.Bling_Working)
    __arm_cp.6_1                             0x000011fc   Number         4  bsp_led.o(.text.Bling_Working)
    __arm_cp.6_2                             0x00001200   Number         4  bsp_led.o(.text.Bling_Working)
    __arm_cp.6_3                             0x00001204   Number         4  bsp_led.o(.text.Bling_Working)
    [Anonymous Symbol]                       0x00001208   Section        0  nclink.o(.text.Byte2Float)
    __arm_cp.3_0                             0x0000124c   Number         4  nclink.o(.text.Byte2Float)
    DL_CORE_configInstruction                0x00001251   Thumb Code    28  dl_sysctl_mspm0g1x0x_g3x0x.o(.text.DL_CORE_configInstruction)
    [Anonymous Symbol]                       0x00001250   Section        0  dl_sysctl_mspm0g1x0x_g3x0x.o(.text.DL_CORE_configInstruction)
    DL_CORE_getInstructionConfig             0x0000126d   Thumb Code    12  dl_sysctl_mspm0g1x0x_g3x0x.o(.text.DL_CORE_getInstructionConfig)
    [Anonymous Symbol]                       0x0000126c   Section        0  dl_sysctl_mspm0g1x0x_g3x0x.o(.text.DL_CORE_getInstructionConfig)
    __arm_cp.4_0                             0x00001278   Number         4  dl_sysctl_mspm0g1x0x_g3x0x.o(.text.DL_CORE_getInstructionConfig)
    [Anonymous Symbol]                       0x0000127c   Section        0  dl_common.o(.text.DL_Common_delayCycles)
    DL_Common_updateReg                      0x00001291   Thumb Code    40  dl_i2c.o(.text.DL_Common_updateReg)
    [Anonymous Symbol]                       0x00001290   Section        0  dl_i2c.o(.text.DL_Common_updateReg)
    DL_Common_updateReg                      0x000012b9   Thumb Code    40  dl_spi.o(.text.DL_Common_updateReg)
    [Anonymous Symbol]                       0x000012b8   Section        0  dl_spi.o(.text.DL_Common_updateReg)
    DL_Common_updateReg                      0x000012e1   Thumb Code    40  dl_timer.o(.text.DL_Common_updateReg)
    [Anonymous Symbol]                       0x000012e0   Section        0  dl_timer.o(.text.DL_Common_updateReg)
    DL_Common_updateReg                      0x00001309   Thumb Code    40  dl_uart.o(.text.DL_Common_updateReg)
    [Anonymous Symbol]                       0x00001308   Section        0  dl_uart.o(.text.DL_Common_updateReg)
    DL_Common_updateReg                      0x00001331   Thumb Code    40  dl_sysctl_mspm0g1x0x_g3x0x.o(.text.DL_Common_updateReg)
    [Anonymous Symbol]                       0x00001330   Section        0  dl_sysctl_mspm0g1x0x_g3x0x.o(.text.DL_Common_updateReg)
    DL_Common_updateReg                      0x00001359   Thumb Code    40  ti_msp_dl_config.o(.text.DL_Common_updateReg)
    [Anonymous Symbol]                       0x00001358   Section        0  ti_msp_dl_config.o(.text.DL_Common_updateReg)
    DL_GPIO_clearPins                        0x00001381   Thumb Code    20  ti_msp_dl_config.o(.text.DL_GPIO_clearPins)
    [Anonymous Symbol]                       0x00001380   Section        0  ti_msp_dl_config.o(.text.DL_GPIO_clearPins)
    DL_GPIO_clearPins                        0x00001395   Thumb Code    20  drv_oled.o(.text.DL_GPIO_clearPins)
    [Anonymous Symbol]                       0x00001394   Section        0  drv_oled.o(.text.DL_GPIO_clearPins)
    DL_GPIO_clearPins                        0x000013a9   Thumb Code    20  bsp_led.o(.text.DL_GPIO_clearPins)
    [Anonymous Symbol]                       0x000013a8   Section        0  bsp_led.o(.text.DL_GPIO_clearPins)
    DL_GPIO_clearPins                        0x000013bd   Thumb Code    20  drv_expand.o(.text.DL_GPIO_clearPins)
    [Anonymous Symbol]                       0x000013bc   Section        0  drv_expand.o(.text.DL_GPIO_clearPins)
    DL_GPIO_clearPins                        0x000013d1   Thumb Code    20  w25qxx.o(.text.DL_GPIO_clearPins)
    [Anonymous Symbol]                       0x000013d0   Section        0  w25qxx.o(.text.DL_GPIO_clearPins)
    DL_GPIO_enableHiZ                        0x000013e5   Thumb Code    24  ti_msp_dl_config.o(.text.DL_GPIO_enableHiZ)
    [Anonymous Symbol]                       0x000013e4   Section        0  ti_msp_dl_config.o(.text.DL_GPIO_enableHiZ)
    DL_GPIO_enableHiZ                        0x000013fd   Thumb Code    24  bsp_eeprom.o(.text.DL_GPIO_enableHiZ)
    [Anonymous Symbol]                       0x000013fc   Section        0  bsp_eeprom.o(.text.DL_GPIO_enableHiZ)
    DL_GPIO_enableOutput                     0x00001415   Thumb Code    20  ti_msp_dl_config.o(.text.DL_GPIO_enableOutput)
    [Anonymous Symbol]                       0x00001414   Section        0  ti_msp_dl_config.o(.text.DL_GPIO_enableOutput)
    DL_GPIO_enableOutput                     0x00001429   Thumb Code    20  bsp_eeprom.o(.text.DL_GPIO_enableOutput)
    [Anonymous Symbol]                       0x00001428   Section        0  bsp_eeprom.o(.text.DL_GPIO_enableOutput)
    __arm_cp.38_0                            0x0000143c   Number         4  bsp_eeprom.o(.text.DL_GPIO_enableOutput)
    DL_GPIO_enablePower                      0x00001441   Thumb Code    20  ti_msp_dl_config.o(.text.DL_GPIO_enablePower)
    [Anonymous Symbol]                       0x00001440   Section        0  ti_msp_dl_config.o(.text.DL_GPIO_enablePower)
    DL_GPIO_initDigitalInput                 0x00001455   Thumb Code    20  ti_msp_dl_config.o(.text.DL_GPIO_initDigitalInput)
    [Anonymous Symbol]                       0x00001454   Section        0  ti_msp_dl_config.o(.text.DL_GPIO_initDigitalInput)
    DL_GPIO_initDigitalInputFeatures         0x00001469   Thumb Code    44  ti_msp_dl_config.o(.text.DL_GPIO_initDigitalInputFeatures)
    [Anonymous Symbol]                       0x00001468   Section        0  ti_msp_dl_config.o(.text.DL_GPIO_initDigitalInputFeatures)
    DL_GPIO_initDigitalInputFeatures         0x00001495   Thumb Code    44  bsp_eeprom.o(.text.DL_GPIO_initDigitalInputFeatures)
    [Anonymous Symbol]                       0x00001494   Section        0  bsp_eeprom.o(.text.DL_GPIO_initDigitalInputFeatures)
    __arm_cp.40_0                            0x000014c0   Number         4  bsp_eeprom.o(.text.DL_GPIO_initDigitalInputFeatures)
    DL_GPIO_initDigitalOutput                0x000014c5   Thumb Code    20  ti_msp_dl_config.o(.text.DL_GPIO_initDigitalOutput)
    [Anonymous Symbol]                       0x000014c4   Section        0  ti_msp_dl_config.o(.text.DL_GPIO_initDigitalOutput)
    DL_GPIO_initDigitalOutput                0x000014d9   Thumb Code    20  bsp_eeprom.o(.text.DL_GPIO_initDigitalOutput)
    [Anonymous Symbol]                       0x000014d8   Section        0  bsp_eeprom.o(.text.DL_GPIO_initDigitalOutput)
    DL_GPIO_initDigitalOutputFeatures        0x000014ed   Thumb Code    44  ti_msp_dl_config.o(.text.DL_GPIO_initDigitalOutputFeatures)
    [Anonymous Symbol]                       0x000014ec   Section        0  ti_msp_dl_config.o(.text.DL_GPIO_initDigitalOutputFeatures)
    DL_GPIO_initPeripheralAnalogFunction     0x00001519   Thumb Code    20  ti_msp_dl_config.o(.text.DL_GPIO_initPeripheralAnalogFunction)
    [Anonymous Symbol]                       0x00001518   Section        0  ti_msp_dl_config.o(.text.DL_GPIO_initPeripheralAnalogFunction)
    DL_GPIO_initPeripheralInputFunction      0x0000152d   Thumb Code    24  ti_msp_dl_config.o(.text.DL_GPIO_initPeripheralInputFunction)
    [Anonymous Symbol]                       0x0000152c   Section        0  ti_msp_dl_config.o(.text.DL_GPIO_initPeripheralInputFunction)
    DL_GPIO_initPeripheralInputFunctionFeatures 0x00001545   Thumb Code    52  ti_msp_dl_config.o(.text.DL_GPIO_initPeripheralInputFunctionFeatures)
    [Anonymous Symbol]                       0x00001544   Section        0  ti_msp_dl_config.o(.text.DL_GPIO_initPeripheralInputFunctionFeatures)
    __arm_cp.32_0                            0x00001578   Number         4  ti_msp_dl_config.o(.text.DL_GPIO_initPeripheralInputFunctionFeatures)
    DL_GPIO_initPeripheralOutputFunction     0x0000157d   Thumb Code    24  ti_msp_dl_config.o(.text.DL_GPIO_initPeripheralOutputFunction)
    [Anonymous Symbol]                       0x0000157c   Section        0  ti_msp_dl_config.o(.text.DL_GPIO_initPeripheralOutputFunction)
    __arm_cp.30_0                            0x00001594   Number         4  ti_msp_dl_config.o(.text.DL_GPIO_initPeripheralOutputFunction)
    DL_GPIO_readPins                         0x00001599   Thumb Code    22  key.o(.text.DL_GPIO_readPins)
    [Anonymous Symbol]                       0x00001598   Section        0  key.o(.text.DL_GPIO_readPins)
    DL_GPIO_reset                            0x000015b1   Thumb Code    16  ti_msp_dl_config.o(.text.DL_GPIO_reset)
    [Anonymous Symbol]                       0x000015b0   Section        0  ti_msp_dl_config.o(.text.DL_GPIO_reset)
    DL_GPIO_setPins                          0x000015c1   Thumb Code    20  ti_msp_dl_config.o(.text.DL_GPIO_setPins)
    [Anonymous Symbol]                       0x000015c0   Section        0  ti_msp_dl_config.o(.text.DL_GPIO_setPins)
    DL_GPIO_setPins                          0x000015d5   Thumb Code    20  drv_oled.o(.text.DL_GPIO_setPins)
    [Anonymous Symbol]                       0x000015d4   Section        0  drv_oled.o(.text.DL_GPIO_setPins)
    DL_GPIO_setPins                          0x000015e9   Thumb Code    20  bsp_led.o(.text.DL_GPIO_setPins)
    [Anonymous Symbol]                       0x000015e8   Section        0  bsp_led.o(.text.DL_GPIO_setPins)
    DL_GPIO_setPins                          0x000015fd   Thumb Code    20  bsp_eeprom.o(.text.DL_GPIO_setPins)
    [Anonymous Symbol]                       0x000015fc   Section        0  bsp_eeprom.o(.text.DL_GPIO_setPins)
    DL_GPIO_setPins                          0x00001611   Thumb Code    20  drv_expand.o(.text.DL_GPIO_setPins)
    [Anonymous Symbol]                       0x00001610   Section        0  drv_expand.o(.text.DL_GPIO_setPins)
    DL_GPIO_setPins                          0x00001625   Thumb Code    20  w25qxx.o(.text.DL_GPIO_setPins)
    [Anonymous Symbol]                       0x00001624   Section        0  w25qxx.o(.text.DL_GPIO_setPins)
    __arm_cp.1_0                             0x00001638   Number         4  w25qxx.o(.text.DL_GPIO_setPins)
    DL_GPIO_togglePins                       0x0000163d   Thumb Code    20  bsp_timer.o(.text.DL_GPIO_togglePins)
    [Anonymous Symbol]                       0x0000163c   Section        0  bsp_timer.o(.text.DL_GPIO_togglePins)
    __arm_cp.6_0                             0x00001650   Number         4  bsp_timer.o(.text.DL_GPIO_togglePins)
    DL_I2C_enableAnalogGlitchFilter          0x00001655   Thumb Code    24  ti_msp_dl_config.o(.text.DL_I2C_enableAnalogGlitchFilter)
    [Anonymous Symbol]                       0x00001654   Section        0  ti_msp_dl_config.o(.text.DL_I2C_enableAnalogGlitchFilter)
    DL_I2C_enableController                  0x0000166d   Thumb Code    20  ti_msp_dl_config.o(.text.DL_I2C_enableController)
    [Anonymous Symbol]                       0x0000166c   Section        0  ti_msp_dl_config.o(.text.DL_I2C_enableController)
    DL_I2C_enableControllerClockStretching   0x00001681   Thumb Code    20  ti_msp_dl_config.o(.text.DL_I2C_enableControllerClockStretching)
    [Anonymous Symbol]                       0x00001680   Section        0  ti_msp_dl_config.o(.text.DL_I2C_enableControllerClockStretching)
    __arm_cp.62_0                            0x00001694   Number         4  ti_msp_dl_config.o(.text.DL_I2C_enableControllerClockStretching)
    DL_I2C_enablePower                       0x00001699   Thumb Code    20  ti_msp_dl_config.o(.text.DL_I2C_enablePower)
    [Anonymous Symbol]                       0x00001698   Section        0  ti_msp_dl_config.o(.text.DL_I2C_enablePower)
    DL_I2C_reset                             0x000016ad   Thumb Code    16  ti_msp_dl_config.o(.text.DL_I2C_reset)
    [Anonymous Symbol]                       0x000016ac   Section        0  ti_msp_dl_config.o(.text.DL_I2C_reset)
    DL_I2C_resetControllerTransfer           0x000016bd   Thumb Code    16  ti_msp_dl_config.o(.text.DL_I2C_resetControllerTransfer)
    [Anonymous Symbol]                       0x000016bc   Section        0  ti_msp_dl_config.o(.text.DL_I2C_resetControllerTransfer)
    __arm_cp.58_0                            0x000016cc   Number         4  ti_msp_dl_config.o(.text.DL_I2C_resetControllerTransfer)
    DL_I2C_setAnalogGlitchFilterPulseWidth   0x000016d1   Thumb Code    38  ti_msp_dl_config.o(.text.DL_I2C_setAnalogGlitchFilterPulseWidth)
    [Anonymous Symbol]                       0x000016d0   Section        0  ti_msp_dl_config.o(.text.DL_I2C_setAnalogGlitchFilterPulseWidth)
    [Anonymous Symbol]                       0x000016f8   Section        0  dl_i2c.o(.text.DL_I2C_setClockConfig)
    DL_I2C_setControllerRXFIFOThreshold      0x00001729   Thumb Code    36  ti_msp_dl_config.o(.text.DL_I2C_setControllerRXFIFOThreshold)
    [Anonymous Symbol]                       0x00001728   Section        0  ti_msp_dl_config.o(.text.DL_I2C_setControllerRXFIFOThreshold)
    DL_I2C_setControllerTXFIFOThreshold      0x0000174d   Thumb Code    36  ti_msp_dl_config.o(.text.DL_I2C_setControllerTXFIFOThreshold)
    [Anonymous Symbol]                       0x0000174c   Section        0  ti_msp_dl_config.o(.text.DL_I2C_setControllerTXFIFOThreshold)
    __arm_cp.60_0                            0x00001770   Number         4  ti_msp_dl_config.o(.text.DL_I2C_setControllerTXFIFOThreshold)
    DL_I2C_setTimerPeriod                    0x00001775   Thumb Code    20  ti_msp_dl_config.o(.text.DL_I2C_setTimerPeriod)
    [Anonymous Symbol]                       0x00001774   Section        0  ti_msp_dl_config.o(.text.DL_I2C_setTimerPeriod)
    __arm_cp.59_0                            0x00001788   Number         4  ti_msp_dl_config.o(.text.DL_I2C_setTimerPeriod)
    DL_SPI_enable                            0x0000178d   Thumb Code    20  ti_msp_dl_config.o(.text.DL_SPI_enable)
    [Anonymous Symbol]                       0x0000178c   Section        0  ti_msp_dl_config.o(.text.DL_SPI_enable)
    DL_SPI_enablePower                       0x000017a1   Thumb Code    20  ti_msp_dl_config.o(.text.DL_SPI_enablePower)
    [Anonymous Symbol]                       0x000017a0   Section        0  ti_msp_dl_config.o(.text.DL_SPI_enablePower)
    __arm_cp.28_0                            0x000017b4   Number         4  ti_msp_dl_config.o(.text.DL_SPI_enablePower)
    [Anonymous Symbol]                       0x000017b8   Section        0  dl_spi.o(.text.DL_SPI_init)
    __arm_cp.0_0                             0x000017f8   Number         4  dl_spi.o(.text.DL_SPI_init)
    __arm_cp.0_1                             0x000017fc   Number         4  dl_spi.o(.text.DL_SPI_init)
    DL_SPI_isBusy                            0x00001801   Thumb Code    20  w25qxx.o(.text.DL_SPI_isBusy)
    [Anonymous Symbol]                       0x00001800   Section        0  w25qxx.o(.text.DL_SPI_isBusy)
    __arm_cp.10_0                            0x00001814   Number         4  w25qxx.o(.text.DL_SPI_isBusy)
    DL_SPI_receiveData8                      0x00001819   Thumb Code    16  w25qxx.o(.text.DL_SPI_receiveData8)
    [Anonymous Symbol]                       0x00001818   Section        0  w25qxx.o(.text.DL_SPI_receiveData8)
    __arm_cp.11_0                            0x00001828   Number         4  w25qxx.o(.text.DL_SPI_receiveData8)
    DL_SPI_reset                             0x0000182d   Thumb Code    16  ti_msp_dl_config.o(.text.DL_SPI_reset)
    [Anonymous Symbol]                       0x0000182c   Section        0  ti_msp_dl_config.o(.text.DL_SPI_reset)
    __arm_cp.23_0                            0x0000183c   Number         4  ti_msp_dl_config.o(.text.DL_SPI_reset)
    __arm_cp.23_1                            0x00001840   Number         4  ti_msp_dl_config.o(.text.DL_SPI_reset)
    DL_SPI_setBitRateSerialClockDivider      0x00001845   Thumb Code    28  ti_msp_dl_config.o(.text.DL_SPI_setBitRateSerialClockDivider)
    [Anonymous Symbol]                       0x00001844   Section        0  ti_msp_dl_config.o(.text.DL_SPI_setBitRateSerialClockDivider)
    __arm_cp.68_0                            0x00001860   Number         4  ti_msp_dl_config.o(.text.DL_SPI_setBitRateSerialClockDivider)
    __arm_cp.68_1                            0x00001864   Number         4  ti_msp_dl_config.o(.text.DL_SPI_setBitRateSerialClockDivider)
    [Anonymous Symbol]                       0x00001868   Section        0  dl_spi.o(.text.DL_SPI_setClockConfig)
    __arm_cp.2_0                             0x00001888   Number         4  dl_spi.o(.text.DL_SPI_setClockConfig)
    DL_SPI_setFIFOThreshold                  0x0000188d   Thumb Code    44  ti_msp_dl_config.o(.text.DL_SPI_setFIFOThreshold)
    [Anonymous Symbol]                       0x0000188c   Section        0  ti_msp_dl_config.o(.text.DL_SPI_setFIFOThreshold)
    __arm_cp.69_0                            0x000018b8   Number         4  ti_msp_dl_config.o(.text.DL_SPI_setFIFOThreshold)
    DL_SPI_transmitData8                     0x000018bd   Thumb Code    22  w25qxx.o(.text.DL_SPI_transmitData8)
    [Anonymous Symbol]                       0x000018bc   Section        0  w25qxx.o(.text.DL_SPI_transmitData8)
    [Anonymous Symbol]                       0x000018d4   Section        0  dl_sysctl_mspm0g1x0x_g3x0x.o(.text.DL_SYSCTL_configSYSPLL)
    __arm_cp.0_0                             0x000019a4   Number         4  dl_sysctl_mspm0g1x0x_g3x0x.o(.text.DL_SYSCTL_configSYSPLL)
    __arm_cp.0_1                             0x000019a8   Number         4  dl_sysctl_mspm0g1x0x_g3x0x.o(.text.DL_SYSCTL_configSYSPLL)
    __arm_cp.0_2                             0x000019ac   Number         4  dl_sysctl_mspm0g1x0x_g3x0x.o(.text.DL_SYSCTL_configSYSPLL)
    __arm_cp.0_3                             0x000019b0   Number         4  dl_sysctl_mspm0g1x0x_g3x0x.o(.text.DL_SYSCTL_configSYSPLL)
    __arm_cp.0_4                             0x000019b4   Number         4  dl_sysctl_mspm0g1x0x_g3x0x.o(.text.DL_SYSCTL_configSYSPLL)
    __arm_cp.0_5                             0x000019b8   Number         4  dl_sysctl_mspm0g1x0x_g3x0x.o(.text.DL_SYSCTL_configSYSPLL)
    DL_SYSCTL_disableHFCLKStartupMonitor     0x000019bd   Thumb Code    16  dl_sysctl_mspm0g1x0x_g3x0x.o(.text.DL_SYSCTL_disableHFCLKStartupMonitor)
    [Anonymous Symbol]                       0x000019bc   Section        0  dl_sysctl_mspm0g1x0x_g3x0x.o(.text.DL_SYSCTL_disableHFCLKStartupMonitor)
    DL_SYSCTL_disableHFXT                    0x000019cd   Thumb Code    12  dl_sysctl_mspm0g1x0x_g3x0x.o(.text.DL_SYSCTL_disableHFXT)
    [Anonymous Symbol]                       0x000019cc   Section        0  dl_sysctl_mspm0g1x0x_g3x0x.o(.text.DL_SYSCTL_disableHFXT)
    DL_SYSCTL_disableHFXT                    0x000019d9   Thumb Code    12  ti_msp_dl_config.o(.text.DL_SYSCTL_disableHFXT)
    [Anonymous Symbol]                       0x000019d8   Section        0  ti_msp_dl_config.o(.text.DL_SYSCTL_disableHFXT)
    DL_SYSCTL_disableSYSPLL                  0x000019e5   Thumb Code    16  dl_sysctl_mspm0g1x0x_g3x0x.o(.text.DL_SYSCTL_disableSYSPLL)
    [Anonymous Symbol]                       0x000019e4   Section        0  dl_sysctl_mspm0g1x0x_g3x0x.o(.text.DL_SYSCTL_disableSYSPLL)
    DL_SYSCTL_disableSYSPLL                  0x000019f5   Thumb Code    16  ti_msp_dl_config.o(.text.DL_SYSCTL_disableSYSPLL)
    [Anonymous Symbol]                       0x000019f4   Section        0  ti_msp_dl_config.o(.text.DL_SYSCTL_disableSYSPLL)
    DL_SYSCTL_enableHFCLKStartupMonitor      0x00001a05   Thumb Code    16  dl_sysctl_mspm0g1x0x_g3x0x.o(.text.DL_SYSCTL_enableHFCLKStartupMonitor)
    [Anonymous Symbol]                       0x00001a04   Section        0  dl_sysctl_mspm0g1x0x_g3x0x.o(.text.DL_SYSCTL_enableHFCLKStartupMonitor)
    DL_SYSCTL_enableMFCLK                    0x00001a15   Thumb Code    16  ti_msp_dl_config.o(.text.DL_SYSCTL_enableMFCLK)
    [Anonymous Symbol]                       0x00001a14   Section        0  ti_msp_dl_config.o(.text.DL_SYSCTL_enableMFCLK)
    DL_SYSCTL_enableMFPCLK                   0x00001a25   Thumb Code    12  ti_msp_dl_config.o(.text.DL_SYSCTL_enableMFPCLK)
    [Anonymous Symbol]                       0x00001a24   Section        0  ti_msp_dl_config.o(.text.DL_SYSCTL_enableMFPCLK)
    __arm_cp.49_0                            0x00001a30   Number         4  ti_msp_dl_config.o(.text.DL_SYSCTL_enableMFPCLK)
    DL_SYSCTL_getClockStatus                 0x00001a35   Thumb Code     8  dl_sysctl_mspm0g1x0x_g3x0x.o(.text.DL_SYSCTL_getClockStatus)
    [Anonymous Symbol]                       0x00001a34   Section        0  dl_sysctl_mspm0g1x0x_g3x0x.o(.text.DL_SYSCTL_getClockStatus)
    DL_SYSCTL_getClockStatus                 0x00001a3d   Thumb Code     8  ti_msp_dl_config.o(.text.DL_SYSCTL_getClockStatus)
    [Anonymous Symbol]                       0x00001a3c   Section        0  ti_msp_dl_config.o(.text.DL_SYSCTL_getClockStatus)
    __arm_cp.51_0                            0x00001a44   Number         4  ti_msp_dl_config.o(.text.DL_SYSCTL_getClockStatus)
    DL_SYSCTL_setBORThreshold                0x00001a49   Thumb Code    20  ti_msp_dl_config.o(.text.DL_SYSCTL_setBORThreshold)
    [Anonymous Symbol]                       0x00001a48   Section        0  ti_msp_dl_config.o(.text.DL_SYSCTL_setBORThreshold)
    __arm_cp.41_0                            0x00001a5c   Number         4  ti_msp_dl_config.o(.text.DL_SYSCTL_setBORThreshold)
    DL_SYSCTL_setFlashWaitState              0x00001a61   Thumb Code    28  ti_msp_dl_config.o(.text.DL_SYSCTL_setFlashWaitState)
    [Anonymous Symbol]                       0x00001a60   Section        0  ti_msp_dl_config.o(.text.DL_SYSCTL_setFlashWaitState)
    DL_SYSCTL_setHFCLKDividerForMFPCLK       0x00001a7d   Thumb Code    28  ti_msp_dl_config.o(.text.DL_SYSCTL_setHFCLKDividerForMFPCLK)
    [Anonymous Symbol]                       0x00001a7c   Section        0  ti_msp_dl_config.o(.text.DL_SYSCTL_setHFCLKDividerForMFPCLK)
    [Anonymous Symbol]                       0x00001a98   Section        0  dl_sysctl_mspm0g1x0x_g3x0x.o(.text.DL_SYSCTL_setHFCLKSourceHFXTParams)
    __arm_cp.18_0                            0x00001af8   Number         4  dl_sysctl_mspm0g1x0x_g3x0x.o(.text.DL_SYSCTL_setHFCLKSourceHFXTParams)
    DL_SYSCTL_setHFXTFrequencyRange          0x00001afd   Thumb Code    28  dl_sysctl_mspm0g1x0x_g3x0x.o(.text.DL_SYSCTL_setHFXTFrequencyRange)
    [Anonymous Symbol]                       0x00001afc   Section        0  dl_sysctl_mspm0g1x0x_g3x0x.o(.text.DL_SYSCTL_setHFXTFrequencyRange)
    DL_SYSCTL_setHFXTStartupTime             0x00001b19   Thumb Code    20  dl_sysctl_mspm0g1x0x_g3x0x.o(.text.DL_SYSCTL_setHFXTStartupTime)
    [Anonymous Symbol]                       0x00001b18   Section        0  dl_sysctl_mspm0g1x0x_g3x0x.o(.text.DL_SYSCTL_setHFXTStartupTime)
    __arm_cp.16_0                            0x00001b2c   Number         4  dl_sysctl_mspm0g1x0x_g3x0x.o(.text.DL_SYSCTL_setHFXTStartupTime)
    DL_SYSCTL_setHSCLKSource                 0x00001b31   Thumb Code    20  dl_sysctl_mspm0g1x0x_g3x0x.o(.text.DL_SYSCTL_setHSCLKSource)
    [Anonymous Symbol]                       0x00001b30   Section        0  dl_sysctl_mspm0g1x0x_g3x0x.o(.text.DL_SYSCTL_setHSCLKSource)
    __arm_cp.11_0                            0x00001b44   Number         4  dl_sysctl_mspm0g1x0x_g3x0x.o(.text.DL_SYSCTL_setHSCLKSource)
    DL_SYSCTL_setMFPCLKSource                0x00001b49   Thumb Code    28  ti_msp_dl_config.o(.text.DL_SYSCTL_setMFPCLKSource)
    [Anonymous Symbol]                       0x00001b48   Section        0  ti_msp_dl_config.o(.text.DL_SYSCTL_setMFPCLKSource)
    __arm_cp.50_0                            0x00001b64   Number         4  ti_msp_dl_config.o(.text.DL_SYSCTL_setMFPCLKSource)
    DL_SYSCTL_setSYSOSCFreq                  0x00001b69   Thumb Code    24  ti_msp_dl_config.o(.text.DL_SYSCTL_setSYSOSCFreq)
    [Anonymous Symbol]                       0x00001b68   Section        0  ti_msp_dl_config.o(.text.DL_SYSCTL_setSYSOSCFreq)
    __arm_cp.43_0                            0x00001b80   Number         4  ti_msp_dl_config.o(.text.DL_SYSCTL_setSYSOSCFreq)
    DL_SYSCTL_setULPCLKDivider               0x00001b85   Thumb Code    24  ti_msp_dl_config.o(.text.DL_SYSCTL_setULPCLKDivider)
    [Anonymous Symbol]                       0x00001b84   Section        0  ti_msp_dl_config.o(.text.DL_SYSCTL_setULPCLKDivider)
    [Anonymous Symbol]                       0x00001b9c   Section        0  dl_sysctl_mspm0g1x0x_g3x0x.o(.text.DL_SYSCTL_switchMCLKfromSYSOSCtoHSCLK)
    __arm_cp.10_0                            0x00001be4   Number         4  dl_sysctl_mspm0g1x0x_g3x0x.o(.text.DL_SYSCTL_switchMCLKfromSYSOSCtoHSCLK)
    [Anonymous Symbol]                       0x00001be8   Section        0  dl_timer.o(.text.DL_TimerA_initPWMMode)
    DL_Timer_enableClock                     0x00001cd5   Thumb Code    16  ti_msp_dl_config.o(.text.DL_Timer_enableClock)
    [Anonymous Symbol]                       0x00001cd4   Section        0  ti_msp_dl_config.o(.text.DL_Timer_enableClock)
    __arm_cp.52_0                            0x00001ce4   Number         4  ti_msp_dl_config.o(.text.DL_Timer_enableClock)
    DL_Timer_enableInterrupt                 0x00001ce9   Thumb Code    24  ti_msp_dl_config.o(.text.DL_Timer_enableInterrupt)
    [Anonymous Symbol]                       0x00001ce8   Section        0  ti_msp_dl_config.o(.text.DL_Timer_enableInterrupt)
    __arm_cp.54_0                            0x00001d00   Number         4  ti_msp_dl_config.o(.text.DL_Timer_enableInterrupt)
    DL_Timer_enablePower                     0x00001d05   Thumb Code    20  ti_msp_dl_config.o(.text.DL_Timer_enablePower)
    [Anonymous Symbol]                       0x00001d04   Section        0  ti_msp_dl_config.o(.text.DL_Timer_enablePower)
    __arm_cp.25_0                            0x00001d18   Number         4  ti_msp_dl_config.o(.text.DL_Timer_enablePower)
    DL_Timer_getPendingInterrupt             0x00001d1d   Thumb Code    18  bsp_timer.o(.text.DL_Timer_getPendingInterrupt)
    [Anonymous Symbol]                       0x00001d1c   Section        0  bsp_timer.o(.text.DL_Timer_getPendingInterrupt)
    [Anonymous Symbol]                       0x00001d30   Section        0  dl_timer.o(.text.DL_Timer_initPWMMode)
    __arm_cp.17_0                            0x00001e34   Number         4  dl_timer.o(.text.DL_Timer_initPWMMode)
    __arm_cp.17_2                            0x00001e38   Number         4  dl_timer.o(.text.DL_Timer_initPWMMode)
    [Anonymous Symbol]                       0x00001e3c   Section        0  dl_timer.o(.text.DL_Timer_initTimerMode)
    DL_Timer_reset                           0x00001f39   Thumb Code    16  ti_msp_dl_config.o(.text.DL_Timer_reset)
    [Anonymous Symbol]                       0x00001f38   Section        0  ti_msp_dl_config.o(.text.DL_Timer_reset)
    DL_Timer_setCCPDirection                 0x00001f49   Thumb Code    20  ti_msp_dl_config.o(.text.DL_Timer_setCCPDirection)
    [Anonymous Symbol]                       0x00001f48   Section        0  ti_msp_dl_config.o(.text.DL_Timer_setCCPDirection)
    [Anonymous Symbol]                       0x00001f5c   Section        0  dl_timer.o(.text.DL_Timer_setCaptCompUpdateMethod)
    [Anonymous Symbol]                       0x00001f8c   Section        0  dl_timer.o(.text.DL_Timer_setCaptureCompareAction)
    __arm_cp.18_0                            0x00001fb8   Number         4  dl_timer.o(.text.DL_Timer_setCaptureCompareAction)
    __arm_cp.18_1                            0x00001fbc   Number         4  dl_timer.o(.text.DL_Timer_setCaptureCompareAction)
    [Anonymous Symbol]                       0x00001fc0   Section        0  dl_timer.o(.text.DL_Timer_setCaptureCompareCtl)
    __arm_cp.6_0                             0x00001ff4   Number         4  dl_timer.o(.text.DL_Timer_setCaptureCompareCtl)
    __arm_cp.6_1                             0x00001ff8   Number         4  dl_timer.o(.text.DL_Timer_setCaptureCompareCtl)
    [Anonymous Symbol]                       0x00001ffc   Section        0  dl_timer.o(.text.DL_Timer_setCaptureCompareInput)
    [Anonymous Symbol]                       0x00002030   Section        0  dl_timer.o(.text.DL_Timer_setCaptureCompareOutCtl)
    __arm_cp.19_0                            0x0000206c   Number         4  dl_timer.o(.text.DL_Timer_setCaptureCompareOutCtl)
    [Anonymous Symbol]                       0x00002070   Section        0  dl_timer.o(.text.DL_Timer_setCaptureCompareValue)
    __arm_cp.5_0                             0x00002098   Number         4  dl_timer.o(.text.DL_Timer_setCaptureCompareValue)
    [Anonymous Symbol]                       0x0000209c   Section        0  dl_timer.o(.text.DL_Timer_setClockConfig)
    __arm_cp.0_1                             0x000020c8   Number         4  dl_timer.o(.text.DL_Timer_setClockConfig)
    DL_Timer_setCounterValueAfterEnable      0x000020cd   Thumb Code    28  dl_timer.o(.text.DL_Timer_setCounterValueAfterEnable)
    [Anonymous Symbol]                       0x000020cc   Section        0  dl_timer.o(.text.DL_Timer_setCounterValueAfterEnable)
    DL_Timer_setLoadValue                    0x000020e9   Thumb Code    20  dl_timer.o(.text.DL_Timer_setLoadValue)
    [Anonymous Symbol]                       0x000020e8   Section        0  dl_timer.o(.text.DL_Timer_setLoadValue)
    __arm_cp.3_0                             0x000020fc   Number         4  dl_timer.o(.text.DL_Timer_setLoadValue)
    DL_Timer_startCounter                    0x00002101   Thumb Code    20  bsp_timer.o(.text.DL_Timer_startCounter)
    [Anonymous Symbol]                       0x00002100   Section        0  bsp_timer.o(.text.DL_Timer_startCounter)
    __arm_cp.1_0                             0x00002114   Number         4  bsp_timer.o(.text.DL_Timer_startCounter)
    DL_UART_clearInterruptStatus             0x00002119   Thumb Code    20  bsp_usart.o(.text.DL_UART_clearInterruptStatus)
    [Anonymous Symbol]                       0x00002118   Section        0  bsp_usart.o(.text.DL_UART_clearInterruptStatus)
    __arm_cp.3_0                             0x0000212c   Number         4  bsp_usart.o(.text.DL_UART_clearInterruptStatus)
    DL_UART_disable                          0x00002131   Thumb Code    22  dl_uart.o(.text.DL_UART_disable)
    [Anonymous Symbol]                       0x00002130   Section        0  dl_uart.o(.text.DL_UART_disable)
    DL_UART_enable                           0x00002147   Thumb Code    22  ti_msp_dl_config.o(.text.DL_UART_enable)
    [Anonymous Symbol]                       0x00002146   Section        0  ti_msp_dl_config.o(.text.DL_UART_enable)
    DL_UART_enableInterrupt                  0x0000215d   Thumb Code    24  ti_msp_dl_config.o(.text.DL_UART_enableInterrupt)
    [Anonymous Symbol]                       0x0000215c   Section        0  ti_msp_dl_config.o(.text.DL_UART_enableInterrupt)
    __arm_cp.66_0                            0x00002174   Number         4  ti_msp_dl_config.o(.text.DL_UART_enableInterrupt)
    DL_UART_enablePower                      0x00002179   Thumb Code    20  ti_msp_dl_config.o(.text.DL_UART_enablePower)
    [Anonymous Symbol]                       0x00002178   Section        0  ti_msp_dl_config.o(.text.DL_UART_enablePower)
    __arm_cp.27_0                            0x0000218c   Number         4  ti_msp_dl_config.o(.text.DL_UART_enablePower)
    DL_UART_getEnabledInterruptStatus        0x00002191   Thumb Code    20  bsp_usart.o(.text.DL_UART_getEnabledInterruptStatus)
    [Anonymous Symbol]                       0x00002190   Section        0  bsp_usart.o(.text.DL_UART_getEnabledInterruptStatus)
    __arm_cp.5_0                             0x000021a4   Number         4  bsp_usart.o(.text.DL_UART_getEnabledInterruptStatus)
    DL_UART_getPendingInterrupt              0x000021a9   Thumb Code    18  bsp_usart.o(.text.DL_UART_getPendingInterrupt)
    [Anonymous Symbol]                       0x000021a8   Section        0  bsp_usart.o(.text.DL_UART_getPendingInterrupt)
    [Anonymous Symbol]                       0x000021bc   Section        0  dl_uart.o(.text.DL_UART_init)
    __arm_cp.0_0                             0x00002200   Number         4  dl_uart.o(.text.DL_UART_init)
    DL_UART_isTXFIFOFull                     0x00002205   Thumb Code    20  dl_uart.o(.text.DL_UART_isTXFIFOFull)
    [Anonymous Symbol]                       0x00002204   Section        0  dl_uart.o(.text.DL_UART_isTXFIFOFull)
    __arm_cp.14_0                            0x00002218   Number         4  dl_uart.o(.text.DL_UART_isTXFIFOFull)
    DL_UART_receiveData                      0x0000221d   Thumb Code    16  bsp_usart.o(.text.DL_UART_receiveData)
    [Anonymous Symbol]                       0x0000221c   Section        0  bsp_usart.o(.text.DL_UART_receiveData)
    __arm_cp.6_0                             0x0000222c   Number         4  bsp_usart.o(.text.DL_UART_receiveData)
    DL_UART_reset                            0x00002231   Thumb Code    16  ti_msp_dl_config.o(.text.DL_UART_reset)
    [Anonymous Symbol]                       0x00002230   Section        0  ti_msp_dl_config.o(.text.DL_UART_reset)
    __arm_cp.22_0                            0x00002240   Number         4  ti_msp_dl_config.o(.text.DL_UART_reset)
    __arm_cp.22_1                            0x00002244   Number         4  ti_msp_dl_config.o(.text.DL_UART_reset)
    DL_UART_setBaudRateDivisor               0x00002249   Thumb Code    60  ti_msp_dl_config.o(.text.DL_UART_setBaudRateDivisor)
    [Anonymous Symbol]                       0x00002248   Section        0  ti_msp_dl_config.o(.text.DL_UART_setBaudRateDivisor)
    __arm_cp.65_0                            0x00002284   Number         4  ti_msp_dl_config.o(.text.DL_UART_setBaudRateDivisor)
    __arm_cp.65_1                            0x00002288   Number         4  ti_msp_dl_config.o(.text.DL_UART_setBaudRateDivisor)
    __arm_cp.65_2                            0x0000228c   Number         4  ti_msp_dl_config.o(.text.DL_UART_setBaudRateDivisor)
    __arm_cp.65_3                            0x00002290   Number         4  ti_msp_dl_config.o(.text.DL_UART_setBaudRateDivisor)
    [Anonymous Symbol]                       0x00002294   Section        0  dl_uart.o(.text.DL_UART_setClockConfig)
    __arm_cp.3_0                             0x000022b4   Number         4  dl_uart.o(.text.DL_UART_setClockConfig)
    DL_UART_setOversampling                  0x000022b9   Thumb Code    30  ti_msp_dl_config.o(.text.DL_UART_setOversampling)
    [Anonymous Symbol]                       0x000022b8   Section        0  ti_msp_dl_config.o(.text.DL_UART_setOversampling)
    DL_UART_transmitData                     0x000022d7   Thumb Code    22  dl_uart.o(.text.DL_UART_transmitData)
    [Anonymous Symbol]                       0x000022d6   Section        0  dl_uart.o(.text.DL_UART_transmitData)
    [Anonymous Symbol]                       0x000022ec   Section        0  dl_uart.o(.text.DL_UART_transmitDataBlocking)
    [Anonymous Symbol]                       0x00002314   Section        0  systick.o(.text.Delay_Ms)
    [Anonymous Symbol]                       0x00002324   Section        0  user_ctrl.o(.text.Desired_Accel_Transform_Angle)
    __arm_cp.0_0                             0x000023a8   Number         4  user_ctrl.o(.text.Desired_Accel_Transform_Angle)
    __arm_cp.0_1                             0x000023ac   Number         4  user_ctrl.o(.text.Desired_Accel_Transform_Angle)
    __arm_cp.0_2                             0x000023b0   Number         4  user_ctrl.o(.text.Desired_Accel_Transform_Angle)
    __arm_cp.0_3                             0x000023b4   Number         4  user_ctrl.o(.text.Desired_Accel_Transform_Angle)
    [Anonymous Symbol]                       0x000023b8   Section        0  drv_oled.o(.text.Draw_Logo)
    __arm_cp.9_0                             0x00002420   Number         4  drv_oled.o(.text.Draw_Logo)
    [Anonymous Symbol]                       0x00002424   Section        0  wp_math.o(.text.FastAtan2)
    __arm_cp.20_0                            0x00002624   Number         4  wp_math.o(.text.FastAtan2)
    __arm_cp.20_1                            0x00002628   Number         4  wp_math.o(.text.FastAtan2)
    __arm_cp.20_2                            0x0000262c   Number         4  wp_math.o(.text.FastAtan2)
    __arm_cp.20_3                            0x00002630   Number         4  wp_math.o(.text.FastAtan2)
    __arm_cp.20_4                            0x00002634   Number         4  wp_math.o(.text.FastAtan2)
    __arm_cp.20_5                            0x00002638   Number         4  wp_math.o(.text.FastAtan2)
    __arm_cp.20_6                            0x0000263c   Number         4  wp_math.o(.text.FastAtan2)
    __arm_cp.20_7                            0x00002640   Number         4  wp_math.o(.text.FastAtan2)
    __arm_cp.20_8                            0x00002644   Number         4  wp_math.o(.text.FastAtan2)
    __arm_cp.20_9                            0x00002648   Number         4  wp_math.o(.text.FastAtan2)
    __arm_cp.20_10                           0x0000264c   Number         4  wp_math.o(.text.FastAtan2)
    __arm_cp.20_11                           0x00002650   Number         4  wp_math.o(.text.FastAtan2)
    [Anonymous Symbol]                       0x00002654   Section        0  wp_math.o(.text.FastCos)
    [Anonymous Symbol]                       0x00002720   Section        0  wp_math.o(.text.FastSin)
    __arm_cp.23_0                            0x000027e4   Number         4  wp_math.o(.text.FastSin)
    __arm_cp.23_1                            0x000027e8   Number         4  wp_math.o(.text.FastSin)
    __arm_cp.23_2                            0x000027ec   Number         4  wp_math.o(.text.FastSin)
    [Anonymous Symbol]                       0x000027f0   Section        0  user_ctrl.o(.text.Flight_Alt_Hold_Control)
    __arm_cp.1_0                             0x00002890   Number         4  user_ctrl.o(.text.Flight_Alt_Hold_Control)
    __arm_cp.1_1                             0x00002894   Number         4  user_ctrl.o(.text.Flight_Alt_Hold_Control)
    __arm_cp.1_2                             0x00002898   Number         4  user_ctrl.o(.text.Flight_Alt_Hold_Control)
    __arm_cp.1_3                             0x0000289c   Number         4  user_ctrl.o(.text.Flight_Alt_Hold_Control)
    __arm_cp.1_6                             0x000028a0   Number         4  user_ctrl.o(.text.Flight_Alt_Hold_Control)
    __arm_cp.1_7                             0x000028a4   Number         4  user_ctrl.o(.text.Flight_Alt_Hold_Control)
    __arm_cp.1_8                             0x000028a8   Number         4  user_ctrl.o(.text.Flight_Alt_Hold_Control)
    [Anonymous Symbol]                       0x000028ac   Section        0  nclink.o(.text.Float2Byte)
    __arm_cp.2_0                             0x00002930   Number         4  nclink.o(.text.Float2Byte)
    [Anonymous Symbol]                       0x00002934   Section        0  sensor.o(.text.Get_Status_Feedback_lite)
    __arm_cp.0_1                             0x000029fc   Number         4  sensor.o(.text.Get_Status_Feedback_lite)
    [Anonymous Symbol]                       0x00002a00   Section        0  user_ctrl.o(.text.Horizontal_Control_VIO)
    __arm_cp.6_0                             0x00002a44   Number         4  user_ctrl.o(.text.Horizontal_Control_VIO)
    __arm_cp.6_3                             0x00002a48   Number         4  user_ctrl.o(.text.Horizontal_Control_VIO)
    [Anonymous Symbol]                       0x00002a4c   Section        0  user_ctrl.o(.text.Horizontal_Navigation)
    __arm_cp.5_0                             0x00002b48   Number         4  user_ctrl.o(.text.Horizontal_Navigation)
    __arm_cp.5_1                             0x00002b4c   Number         4  user_ctrl.o(.text.Horizontal_Navigation)
    __arm_cp.5_2                             0x00002b50   Number         4  user_ctrl.o(.text.Horizontal_Navigation)
    __arm_cp.5_3                             0x00002b54   Number         4  user_ctrl.o(.text.Horizontal_Navigation)
    IIC_Init                                 0x00002b59   Thumb Code    40  bsp_eeprom.o(.text.IIC_Init)
    [Anonymous Symbol]                       0x00002b58   Section        0  bsp_eeprom.o(.text.IIC_Init)
    [Anonymous Symbol]                       0x00002b80   Section        0  key.o(.text.Key_Init)
    __arm_cp.0_1                             0x00002be8   Number         4  key.o(.text.Key_Init)
    __arm_cp.0_2                             0x00002bec   Number         4  key.o(.text.Key_Init)
    [Anonymous Symbol]                       0x00002bf0   Section        0  key.o(.text.Key_Scan)
    __arm_cp.5_0                             0x00002c80   Number         4  key.o(.text.Key_Scan)
    __arm_cp.5_1                             0x00002c84   Number         4  key.o(.text.Key_Scan)
    [Anonymous Symbol]                       0x00002c88   Section        0  drv_oled.o(.text.LCD_P6x8Char)
    [Anonymous Symbol]                       0x00002d00   Section        0  drv_oled.o(.text.LCD_P6x8Str)
    __arm_cp.5_0                             0x00002dac   Number         4  drv_oled.o(.text.LCD_P6x8Str)
    [Anonymous Symbol]                       0x00002db0   Section        0  drv_oled.o(.text.LCD_clear_L)
    [Anonymous Symbol]                       0x00002e04   Section        0  nclink.o(.text.NCLink_Data_Prase_Pilot_Status)
    __arm_cp.7_0                             0x0000321c   Number         4  nclink.o(.text.NCLink_Data_Prase_Pilot_Status)
    __arm_cp.7_1                             0x00003220   Number         4  nclink.o(.text.NCLink_Data_Prase_Pilot_Status)
    __arm_cp.7_2                             0x00003224   Number         4  nclink.o(.text.NCLink_Data_Prase_Pilot_Status)
    __arm_cp.7_3                             0x00003228   Number         4  nclink.o(.text.NCLink_Data_Prase_Pilot_Status)
    __arm_cp.7_4                             0x0000322c   Number         4  nclink.o(.text.NCLink_Data_Prase_Pilot_Status)
    __arm_cp.7_5                             0x00003230   Number         4  nclink.o(.text.NCLink_Data_Prase_Pilot_Status)
    __arm_cp.7_6                             0x00003234   Number         4  nclink.o(.text.NCLink_Data_Prase_Pilot_Status)
    __arm_cp.7_7                             0x00003238   Number         4  nclink.o(.text.NCLink_Data_Prase_Pilot_Status)
    __arm_cp.7_8                             0x0000323c   Number         4  nclink.o(.text.NCLink_Data_Prase_Pilot_Status)
    __arm_cp.7_9                             0x00003240   Number         4  nclink.o(.text.NCLink_Data_Prase_Pilot_Status)
    __arm_cp.7_10                            0x00003244   Number         4  nclink.o(.text.NCLink_Data_Prase_Pilot_Status)
    __arm_cp.7_11                            0x00003248   Number         4  nclink.o(.text.NCLink_Data_Prase_Pilot_Status)
    __arm_cp.7_13                            0x0000324c   Number         4  nclink.o(.text.NCLink_Data_Prase_Pilot_Status)
    __arm_cp.7_14                            0x00003250   Number         4  nclink.o(.text.NCLink_Data_Prase_Pilot_Status)
    __arm_cp.7_15                            0x00003254   Number         4  nclink.o(.text.NCLink_Data_Prase_Pilot_Status)
    [Anonymous Symbol]                       0x00003258   Section        0  subtask_demo.o(.text.Navigation_User_Setpoint)
    __arm_cp.15_0                            0x00003520   Number         4  subtask_demo.o(.text.Navigation_User_Setpoint)
    __arm_cp.15_1                            0x00003524   Number         4  subtask_demo.o(.text.Navigation_User_Setpoint)
    __arm_cp.15_2                            0x00003528   Number         4  subtask_demo.o(.text.Navigation_User_Setpoint)
    __arm_cp.15_3                            0x0000352c   Number         4  subtask_demo.o(.text.Navigation_User_Setpoint)
    __arm_cp.15_4                            0x00003530   Number         4  subtask_demo.o(.text.Navigation_User_Setpoint)
    __arm_cp.15_5                            0x00003534   Number         4  subtask_demo.o(.text.Navigation_User_Setpoint)
    __arm_cp.15_6                            0x00003538   Number         4  subtask_demo.o(.text.Navigation_User_Setpoint)
    __arm_cp.15_7                            0x0000353c   Number         4  subtask_demo.o(.text.Navigation_User_Setpoint)
    __arm_cp.15_8                            0x00003540   Number         4  subtask_demo.o(.text.Navigation_User_Setpoint)
    __arm_cp.15_9                            0x00003544   Number         4  subtask_demo.o(.text.Navigation_User_Setpoint)
    __arm_cp.15_10                           0x00003548   Number         4  subtask_demo.o(.text.Navigation_User_Setpoint)
    __arm_cp.15_11                           0x0000354c   Number         4  subtask_demo.o(.text.Navigation_User_Setpoint)
    __arm_cp.15_12                           0x00003550   Number         4  subtask_demo.o(.text.Navigation_User_Setpoint)
    __arm_cp.15_13                           0x00003554   Number         4  subtask_demo.o(.text.Navigation_User_Setpoint)
    [Anonymous Symbol]                       0x00003558   Section        0  drv_oled.o(.text.OLED_CLS)
    [Anonymous Symbol]                       0x000035b8   Section        0  drv_oled.o(.text.OLED_Fill)
    [Anonymous Symbol]                       0x0000361e   Section        0  drv_oled.o(.text.OLED_Set_Pos)
    [Anonymous Symbol]                       0x00003654   Section        0  drv_oled.o(.text.OLED_WrCmd)
    [Anonymous Symbol]                       0x000036c8   Section        0  drv_oled.o(.text.OLED_WrDat)
    __arm_cp.0_0                             0x00003734   Number         4  drv_oled.o(.text.OLED_WrDat)
    __arm_cp.0_1                             0x00003738   Number         4  drv_oled.o(.text.OLED_WrDat)
    __arm_cp.0_2                             0x0000373c   Number         4  drv_oled.o(.text.OLED_WrDat)
    __arm_cp.0_3                             0x00003740   Number         4  drv_oled.o(.text.OLED_WrDat)
    [Anonymous Symbol]                       0x00003744   Section        0  user_ctrl.o(.text.OpticalFlow_Ctrl_Reset)
    __arm_cp.2_1                             0x0000376c   Number         4  user_ctrl.o(.text.OpticalFlow_Ctrl_Reset)
    __arm_cp.2_4                             0x00003770   Number         4  user_ctrl.o(.text.OpticalFlow_Ctrl_Reset)
    [Anonymous Symbol]                       0x00003774   Section        0  user_ctrl.o(.text.OpticalFlow_Pos_Control_VIO)
    __arm_cp.3_0                             0x00003820   Number         4  user_ctrl.o(.text.OpticalFlow_Pos_Control_VIO)
    __arm_cp.3_1                             0x00003824   Number         4  user_ctrl.o(.text.OpticalFlow_Pos_Control_VIO)
    __arm_cp.3_3                             0x00003828   Number         4  user_ctrl.o(.text.OpticalFlow_Pos_Control_VIO)
    __arm_cp.3_5                             0x0000382c   Number         4  user_ctrl.o(.text.OpticalFlow_Pos_Control_VIO)
    __arm_cp.3_6                             0x00003830   Number         4  user_ctrl.o(.text.OpticalFlow_Pos_Control_VIO)
    [Anonymous Symbol]                       0x00003834   Section        0  user_ctrl.o(.text.OpticalFlow_Vel_Control)
    __arm_cp.4_0                             0x000039cc   Number         4  user_ctrl.o(.text.OpticalFlow_Vel_Control)
    __arm_cp.4_1                             0x000039d0   Number         4  user_ctrl.o(.text.OpticalFlow_Vel_Control)
    __arm_cp.4_2                             0x000039d4   Number         4  user_ctrl.o(.text.OpticalFlow_Vel_Control)
    __arm_cp.4_3                             0x000039d8   Number         4  user_ctrl.o(.text.OpticalFlow_Vel_Control)
    __arm_cp.4_4                             0x000039dc   Number         4  user_ctrl.o(.text.OpticalFlow_Vel_Control)
    __arm_cp.4_5                             0x000039e0   Number         4  user_ctrl.o(.text.OpticalFlow_Vel_Control)
    __arm_cp.4_6                             0x000039e4   Number         4  user_ctrl.o(.text.OpticalFlow_Vel_Control)
    __arm_cp.4_7                             0x000039e8   Number         4  user_ctrl.o(.text.OpticalFlow_Vel_Control)
    __arm_cp.4_8                             0x000039ec   Number         4  user_ctrl.o(.text.OpticalFlow_Vel_Control)
    __arm_cp.4_9                             0x000039f0   Number         4  user_ctrl.o(.text.OpticalFlow_Vel_Control)
    __arm_cp.4_10                            0x000039f4   Number         4  user_ctrl.o(.text.OpticalFlow_Vel_Control)
    __arm_cp.4_11                            0x000039f8   Number         4  user_ctrl.o(.text.OpticalFlow_Vel_Control)
    __arm_cp.4_12                            0x000039fc   Number         4  user_ctrl.o(.text.OpticalFlow_Vel_Control)
    [Anonymous Symbol]                       0x00003a00   Section        0  pid.o(.text.PID_Control)
    __arm_cp.3_0                             0x00003c44   Number         4  pid.o(.text.PID_Control)
    __arm_cp.3_1                             0x00003c48   Number         4  pid.o(.text.PID_Control)
    __arm_cp.3_2                             0x00003c4c   Number         4  pid.o(.text.PID_Control)
    __arm_cp.3_3                             0x00003c50   Number         4  pid.o(.text.PID_Control)
    [Anonymous Symbol]                       0x00003c54   Section        0  pid.o(.text.PID_Init)
    __arm_cp.1_0                             0x00003d98   Number         4  pid.o(.text.PID_Init)
    [Anonymous Symbol]                       0x00003d9c   Section        0  bsp_led.o(.text.Quad_Start_Bling)
    __arm_cp.2_0                             0x00003dfc   Number         4  bsp_led.o(.text.Quad_Start_Bling)
    __arm_cp.2_1                             0x00003e00   Number         4  bsp_led.o(.text.Quad_Start_Bling)
    __arm_cp.2_2                             0x00003e04   Number         4  bsp_led.o(.text.Quad_Start_Bling)
    __arm_cp.2_3                             0x00003e08   Number         4  bsp_led.o(.text.Quad_Start_Bling)
    __arm_cp.2_4                             0x00003e0c   Number         4  bsp_led.o(.text.Quad_Start_Bling)
    [Anonymous Symbol]                       0x00003e10   Section        0  bsp_eeprom.o(.text.ReadFlashParameterOne)
    [Anonymous Symbol]                       0x00003e30   Section        0  key.o(.text.Read_Button_State_All)
    __arm_cp.3_0                             0x00003e64   Number         4  key.o(.text.Read_Button_State_All)
    [Anonymous Symbol]                       0x00003e68   Section        0  key.o(.text.Read_Button_State_One)
    __arm_cp.1_0                             0x00003fe4   Number         4  key.o(.text.Read_Button_State_One)
    __arm_cp.1_1                             0x00003fe8   Number         4  key.o(.text.Read_Button_State_One)
    [Anonymous Symbol]                       0x00003fec   Section        0  subtask_demo.o(.text.Reserved_Params_Init)
    __arm_cp.0_0                             0x00004054   Number         4  subtask_demo.o(.text.Reserved_Params_Init)
    [Anonymous Symbol]                       0x00004058   Section        0  developer_mode.o(.text.SDK_Init)
    __arm_cp.0_0                             0x000040b4   Number         4  developer_mode.o(.text.SDK_Init)
    __arm_cp.0_1                             0x000040b8   Number         4  developer_mode.o(.text.SDK_Init)
    SOFT_IIC_Ack                             0x000040bd   Thumb Code    60  bsp_eeprom.o(.text.SOFT_IIC_Ack)
    [Anonymous Symbol]                       0x000040bc   Section        0  bsp_eeprom.o(.text.SOFT_IIC_Ack)
    SOFT_IIC_NAck                            0x000040f9   Thumb Code    64  bsp_eeprom.o(.text.SOFT_IIC_NAck)
    [Anonymous Symbol]                       0x000040f8   Section        0  bsp_eeprom.o(.text.SOFT_IIC_NAck)
    SOFT_IIC_Read_Byte                       0x00004139   Thumb Code   140  bsp_eeprom.o(.text.SOFT_IIC_Read_Byte)
    [Anonymous Symbol]                       0x00004138   Section        0  bsp_eeprom.o(.text.SOFT_IIC_Read_Byte)
    SOFT_IIC_Send_Byte                       0x000041c5   Thumb Code   132  bsp_eeprom.o(.text.SOFT_IIC_Send_Byte)
    [Anonymous Symbol]                       0x000041c4   Section        0  bsp_eeprom.o(.text.SOFT_IIC_Send_Byte)
    SOFT_IIC_Start                           0x00004249   Thumb Code    56  bsp_eeprom.o(.text.SOFT_IIC_Start)
    [Anonymous Symbol]                       0x00004248   Section        0  bsp_eeprom.o(.text.SOFT_IIC_Start)
    SOFT_IIC_Stop                            0x00004281   Thumb Code    52  bsp_eeprom.o(.text.SOFT_IIC_Stop)
    [Anonymous Symbol]                       0x00004280   Section        0  bsp_eeprom.o(.text.SOFT_IIC_Stop)
    SOFT_IIC_Wait_Ack                        0x000042b5   Thumb Code   112  bsp_eeprom.o(.text.SOFT_IIC_Wait_Ack)
    [Anonymous Symbol]                       0x000042b4   Section        0  bsp_eeprom.o(.text.SOFT_IIC_Wait_Ack)
    __arm_cp.6_0                             0x00004324   Number         4  bsp_eeprom.o(.text.SOFT_IIC_Wait_Ack)
    __arm_cp.6_1                             0x00004328   Number         4  bsp_eeprom.o(.text.SOFT_IIC_Wait_Ack)
    __arm_cp.6_2                             0x0000432c   Number         4  bsp_eeprom.o(.text.SOFT_IIC_Wait_Ack)
    SOFT_SDA_IN                              0x00004331   Thumb Code    32  bsp_eeprom.o(.text.SOFT_SDA_IN)
    [Anonymous Symbol]                       0x00004330   Section        0  bsp_eeprom.o(.text.SOFT_SDA_IN)
    SOFT_SDA_OUT                             0x00004351   Thumb Code    20  bsp_eeprom.o(.text.SOFT_SDA_OUT)
    [Anonymous Symbol]                       0x00004350   Section        0  bsp_eeprom.o(.text.SOFT_SDA_OUT)
    [Anonymous Symbol]                       0x00004364   Section        0  ti_msp_dl_config.o(.text.SYSCFG_DL_GPIO_init)
    __arm_cp.2_0                             0x0000458c   Number         4  ti_msp_dl_config.o(.text.SYSCFG_DL_GPIO_init)
    __arm_cp.2_1                             0x00004590   Number         4  ti_msp_dl_config.o(.text.SYSCFG_DL_GPIO_init)
    __arm_cp.2_2                             0x00004594   Number         4  ti_msp_dl_config.o(.text.SYSCFG_DL_GPIO_init)
    __arm_cp.2_3                             0x00004598   Number         4  ti_msp_dl_config.o(.text.SYSCFG_DL_GPIO_init)
    __arm_cp.2_4                             0x0000459c   Number         4  ti_msp_dl_config.o(.text.SYSCFG_DL_GPIO_init)
    __arm_cp.2_5                             0x000045a0   Number         4  ti_msp_dl_config.o(.text.SYSCFG_DL_GPIO_init)
    __arm_cp.2_6                             0x000045a4   Number         4  ti_msp_dl_config.o(.text.SYSCFG_DL_GPIO_init)
    [Anonymous Symbol]                       0x000045a8   Section        0  ti_msp_dl_config.o(.text.SYSCFG_DL_I2C_0_init)
    __arm_cp.9_0                             0x000045f8   Number         4  ti_msp_dl_config.o(.text.SYSCFG_DL_I2C_0_init)
    __arm_cp.9_1                             0x000045fc   Number         4  ti_msp_dl_config.o(.text.SYSCFG_DL_I2C_0_init)
    [Anonymous Symbol]                       0x00004600   Section        0  ti_msp_dl_config.o(.text.SYSCFG_DL_PWM_0_init)
    __arm_cp.4_0                             0x000046c0   Number         4  ti_msp_dl_config.o(.text.SYSCFG_DL_PWM_0_init)
    __arm_cp.4_1                             0x000046c4   Number         4  ti_msp_dl_config.o(.text.SYSCFG_DL_PWM_0_init)
    __arm_cp.4_2                             0x000046c8   Number         4  ti_msp_dl_config.o(.text.SYSCFG_DL_PWM_0_init)
    [Anonymous Symbol]                       0x000046cc   Section        0  ti_msp_dl_config.o(.text.SYSCFG_DL_PWM_1_init)
    __arm_cp.5_0                             0x00004740   Number         4  ti_msp_dl_config.o(.text.SYSCFG_DL_PWM_1_init)
    __arm_cp.5_1                             0x00004744   Number         4  ti_msp_dl_config.o(.text.SYSCFG_DL_PWM_1_init)
    __arm_cp.5_2                             0x00004748   Number         4  ti_msp_dl_config.o(.text.SYSCFG_DL_PWM_1_init)
    [Anonymous Symbol]                       0x0000474c   Section        0  ti_msp_dl_config.o(.text.SYSCFG_DL_PWM_2_init)
    __arm_cp.6_0                             0x000047c0   Number         4  ti_msp_dl_config.o(.text.SYSCFG_DL_PWM_2_init)
    __arm_cp.6_1                             0x000047c4   Number         4  ti_msp_dl_config.o(.text.SYSCFG_DL_PWM_2_init)
    __arm_cp.6_2                             0x000047c8   Number         4  ti_msp_dl_config.o(.text.SYSCFG_DL_PWM_2_init)
    [Anonymous Symbol]                       0x000047cc   Section        0  ti_msp_dl_config.o(.text.SYSCFG_DL_SPI_0_init)
    __arm_cp.14_0                            0x00004800   Number         4  ti_msp_dl_config.o(.text.SYSCFG_DL_SPI_0_init)
    __arm_cp.14_2                            0x00004804   Number         4  ti_msp_dl_config.o(.text.SYSCFG_DL_SPI_0_init)
    [Anonymous Symbol]                       0x00004808   Section        0  ti_msp_dl_config.o(.text.SYSCFG_DL_SYSCTL_CLK_init)
    __arm_cp.16_0                            0x00004820   Number         4  ti_msp_dl_config.o(.text.SYSCFG_DL_SYSCTL_CLK_init)
    [Anonymous Symbol]                       0x00004824   Section        0  ti_msp_dl_config.o(.text.SYSCFG_DL_SYSCTL_init)
    __arm_cp.3_0                             0x00004880   Number         4  ti_msp_dl_config.o(.text.SYSCFG_DL_SYSCTL_init)
    [Anonymous Symbol]                       0x00004884   Section        0  ti_msp_dl_config.o(.text.SYSCFG_DL_SYSTICK_init)
    __arm_cp.15_0                            0x00004890   Number         4  ti_msp_dl_config.o(.text.SYSCFG_DL_SYSTICK_init)
    [Anonymous Symbol]                       0x00004894   Section        0  ti_msp_dl_config.o(.text.SYSCFG_DL_TIMER_1_init)
    __arm_cp.7_0                             0x000048c4   Number         4  ti_msp_dl_config.o(.text.SYSCFG_DL_TIMER_1_init)
    __arm_cp.7_2                             0x000048c8   Number         4  ti_msp_dl_config.o(.text.SYSCFG_DL_TIMER_1_init)
    [Anonymous Symbol]                       0x000048cc   Section        0  ti_msp_dl_config.o(.text.SYSCFG_DL_TIMER_2_init)
    __arm_cp.8_0                             0x000048fc   Number         4  ti_msp_dl_config.o(.text.SYSCFG_DL_TIMER_2_init)
    __arm_cp.8_2                             0x00004900   Number         4  ti_msp_dl_config.o(.text.SYSCFG_DL_TIMER_2_init)
    [Anonymous Symbol]                       0x00004904   Section        0  ti_msp_dl_config.o(.text.SYSCFG_DL_UART_0_init)
    __arm_cp.10_0                            0x0000494c   Number         4  ti_msp_dl_config.o(.text.SYSCFG_DL_UART_0_init)
    __arm_cp.10_2                            0x00004950   Number         4  ti_msp_dl_config.o(.text.SYSCFG_DL_UART_0_init)
    [Anonymous Symbol]                       0x00004954   Section        0  ti_msp_dl_config.o(.text.SYSCFG_DL_UART_1_init)
    __arm_cp.11_0                            0x00004990   Number         4  ti_msp_dl_config.o(.text.SYSCFG_DL_UART_1_init)
    __arm_cp.11_2                            0x00004994   Number         4  ti_msp_dl_config.o(.text.SYSCFG_DL_UART_1_init)
    [Anonymous Symbol]                       0x00004998   Section        0  ti_msp_dl_config.o(.text.SYSCFG_DL_UART_2_init)
    __arm_cp.12_0                            0x000049d4   Number         4  ti_msp_dl_config.o(.text.SYSCFG_DL_UART_2_init)
    __arm_cp.12_2                            0x000049d8   Number         4  ti_msp_dl_config.o(.text.SYSCFG_DL_UART_2_init)
    [Anonymous Symbol]                       0x000049dc   Section        0  ti_msp_dl_config.o(.text.SYSCFG_DL_UART_3_init)
    __arm_cp.13_0                            0x00004a18   Number         4  ti_msp_dl_config.o(.text.SYSCFG_DL_UART_3_init)
    __arm_cp.13_2                            0x00004a1c   Number         4  ti_msp_dl_config.o(.text.SYSCFG_DL_UART_3_init)
    [Anonymous Symbol]                       0x00004a20   Section        0  ti_msp_dl_config.o(.text.SYSCFG_DL_init)
    __arm_cp.0_0                             0x00004a88   Number         4  ti_msp_dl_config.o(.text.SYSCFG_DL_init)
    __arm_cp.0_1                             0x00004a8c   Number         4  ti_msp_dl_config.o(.text.SYSCFG_DL_init)
    __arm_cp.0_2                             0x00004a90   Number         4  ti_msp_dl_config.o(.text.SYSCFG_DL_init)
    __arm_cp.0_3                             0x00004a94   Number         4  ti_msp_dl_config.o(.text.SYSCFG_DL_init)
    __arm_cp.0_4                             0x00004a98   Number         4  ti_msp_dl_config.o(.text.SYSCFG_DL_init)
    __arm_cp.0_5                             0x00004a9c   Number         4  ti_msp_dl_config.o(.text.SYSCFG_DL_init)
    [Anonymous Symbol]                       0x00004aa0   Section        0  ti_msp_dl_config.o(.text.SYSCFG_DL_initPower)
    __arm_cp.1_2                             0x00004b64   Number         4  ti_msp_dl_config.o(.text.SYSCFG_DL_initPower)
    __arm_cp.1_3                             0x00004b68   Number         4  ti_msp_dl_config.o(.text.SYSCFG_DL_initPower)
    __arm_cp.1_4                             0x00004b6c   Number         4  ti_msp_dl_config.o(.text.SYSCFG_DL_initPower)
    __arm_cp.1_7                             0x00004b70   Number         4  ti_msp_dl_config.o(.text.SYSCFG_DL_initPower)
    __arm_cp.1_8                             0x00004b74   Number         4  ti_msp_dl_config.o(.text.SYSCFG_DL_initPower)
    __arm_cp.1_9                             0x00004b78   Number         4  ti_msp_dl_config.o(.text.SYSCFG_DL_initPower)
    __arm_cp.1_10                            0x00004b7c   Number         4  ti_msp_dl_config.o(.text.SYSCFG_DL_initPower)
    __arm_cp.1_12                            0x00004b80   Number         4  ti_msp_dl_config.o(.text.SYSCFG_DL_initPower)
    SysTick_Config                           0x00004b85   Thumb Code    68  ti_msp_dl_config.o(.text.SysTick_Config)
    [Anonymous Symbol]                       0x00004b84   Section        0  ti_msp_dl_config.o(.text.SysTick_Config)
    __arm_cp.71_0                            0x00004bc8   Number         4  ti_msp_dl_config.o(.text.SysTick_Config)
    __arm_cp.71_1                            0x00004bcc   Number         4  ti_msp_dl_config.o(.text.SysTick_Config)
    __arm_cp.71_2                            0x00004bd0   Number         4  ti_msp_dl_config.o(.text.SysTick_Config)
    [Anonymous Symbol]                       0x00004bd4   Section        0  systick.o(.text.SysTick_Handler)
    __arm_cp.0_0                             0x00004be0   Number         4  systick.o(.text.SysTick_Handler)
    [Anonymous Symbol]                       0x00004be4   Section        0  bsp_timer.o(.text.TIMG0_IRQHandler)
    __arm_cp.4_0                             0x00004c28   Number         4  bsp_timer.o(.text.TIMG0_IRQHandler)
    __arm_cp.4_1                             0x00004c2c   Number         4  bsp_timer.o(.text.TIMG0_IRQHandler)
    __arm_cp.4_2                             0x00004c30   Number         4  bsp_timer.o(.text.TIMG0_IRQHandler)
    __arm_cp.4_3                             0x00004c34   Number         4  bsp_timer.o(.text.TIMG0_IRQHandler)
    __arm_cp.4_4                             0x00004c38   Number         4  bsp_timer.o(.text.TIMG0_IRQHandler)
    __arm_cp.4_5                             0x00004c3c   Number         4  bsp_timer.o(.text.TIMG0_IRQHandler)
    [Anonymous Symbol]                       0x00004c40   Section        0  bsp_timer.o(.text.TIMG6_IRQHandler)
    __arm_cp.7_0                             0x00004c5c   Number         4  bsp_timer.o(.text.TIMG6_IRQHandler)
    __arm_cp.7_1                             0x00004c60   Number         4  bsp_timer.o(.text.TIMG6_IRQHandler)
    [Anonymous Symbol]                       0x00004c64   Section        0  pid.o(.text.Total_PID_Init)
    __arm_cp.2_0                             0x00004cd8   Number         4  pid.o(.text.Total_PID_Init)
    __arm_cp.2_1                             0x00004cdc   Number         4  pid.o(.text.Total_PID_Init)
    __arm_cp.2_2                             0x00004ce0   Number         4  pid.o(.text.Total_PID_Init)
    __arm_cp.2_3                             0x00004ce4   Number         4  pid.o(.text.Total_PID_Init)
    __arm_cp.2_4                             0x00004ce8   Number         4  pid.o(.text.Total_PID_Init)
    __arm_cp.2_5                             0x00004cec   Number         4  pid.o(.text.Total_PID_Init)
    __arm_cp.2_6                             0x00004cf0   Number         4  pid.o(.text.Total_PID_Init)
    __arm_cp.2_7                             0x00004cf4   Number         4  pid.o(.text.Total_PID_Init)
    __arm_cp.2_8                             0x00004cf8   Number         4  pid.o(.text.Total_PID_Init)
    __arm_cp.2_9                             0x00004cfc   Number         4  pid.o(.text.Total_PID_Init)
    __arm_cp.2_10                            0x00004d00   Number         4  pid.o(.text.Total_PID_Init)
    [Anonymous Symbol]                       0x00004d04   Section        0  bsp_usart.o(.text.UART0_IRQHandler)
    [Anonymous Symbol]                       0x00004d40   Section        0  bsp_usart.o(.text.UART1_IRQHandler)
    __arm_cp.7_0                             0x00004d64   Number         4  bsp_usart.o(.text.UART1_IRQHandler)
    [Anonymous Symbol]                       0x00004d68   Section        0  bsp_usart.o(.text.UART2_IRQHandler)
    __arm_cp.9_0                             0x00004d8c   Number         4  bsp_usart.o(.text.UART2_IRQHandler)
    __arm_cp.9_1                             0x00004d90   Number         4  bsp_usart.o(.text.UART2_IRQHandler)
    [Anonymous Symbol]                       0x00004d94   Section        0  bsp_usart.o(.text.UART3_IRQHandler)
    __arm_cp.10_0                            0x00004db8   Number         4  bsp_usart.o(.text.UART3_IRQHandler)
    [Anonymous Symbol]                       0x00004dbc   Section        0  w25qxx.o(.text.W25Q64_erase_sector)
    [Anonymous Symbol]                       0x00004e10   Section        0  w25qxx.o(.text.W25Q64_read)
    __arm_cp.16_0                            0x00004e84   Number         4  w25qxx.o(.text.W25Q64_read)
    [Anonymous Symbol]                       0x00004e88   Section        0  w25qxx.o(.text.W25Q64_readID)
    [Anonymous Symbol]                       0x00004ef0   Section        0  w25qxx.o(.text.W25Q64_wait_busy)
    [Anonymous Symbol]                       0x00004f38   Section        0  w25qxx.o(.text.W25Q64_write_enable)
    [Anonymous Symbol]                       0x00004f5c   Section        0  w25qxx.o(.text.W25Q64_write_page)
    [Anonymous Symbol]                       0x00004fd8   Section        0  w25qxx.o(.text.W25QXX_Erase_Chip)
    [Anonymous Symbol]                       0x00005008   Section        0  w25qxx.o(.text.W25QXX_PowerDown)
    [Anonymous Symbol]                       0x00005034   Section        0  w25qxx.o(.text.W25QXX_Read_f)
    [Anonymous Symbol]                       0x00005084   Section        0  w25qxx.o(.text.W25QXX_WAKEUP)
    __arm_cp.3_0                             0x000050b0   Number         4  w25qxx.o(.text.W25QXX_WAKEUP)
    [Anonymous Symbol]                       0x000050b4   Section        0  w25qxx.o(.text.W25QXX_Write)
    __arm_cp.19_0                            0x000051fc   Number         4  w25qxx.o(.text.W25QXX_Write)
    __arm_cp.19_1                            0x00005200   Number         4  w25qxx.o(.text.W25QXX_Write)
    __arm_cp.19_2                            0x00005204   Number         4  w25qxx.o(.text.W25QXX_Write)
    [Anonymous Symbol]                       0x00005208   Section        0  w25qxx.o(.text.W25QXX_Write_NoCheck)
    [Anonymous Symbol]                       0x00005296   Section        0  w25qxx.o(.text.W25QXX_Write_f)
    [Anonymous Symbol]                       0x000052e4   Section        0  bsp_eeprom.o(.text.WriteFlashParameter)
    __arm_cp.29_0                            0x00005308   Number         4  bsp_eeprom.o(.text.WriteFlashParameter)
    __ARM_isnan                              0x0000530d   Thumb Code    36  wp_math.o(.text.__ARM_isnan)
    [Anonymous Symbol]                       0x0000530c   Section        0  wp_math.o(.text.__ARM_isnan)
    __arm_cp.2_0                             0x00005330   Number         4  wp_math.o(.text.__ARM_isnan)
    __ARM_isnanf                             0x00005335   Thumb Code    24  wp_math.o(.text.__ARM_isnanf)
    [Anonymous Symbol]                       0x00005334   Section        0  wp_math.o(.text.__ARM_isnanf)
    __ARM_isnanf                             0x0000534d   Thumb Code    24  pid.o(.text.__ARM_isnanf)
    [Anonymous Symbol]                       0x0000534c   Section        0  pid.o(.text.__ARM_isnanf)
    __ARM_isnanf                             0x00005365   Thumb Code    24  developer_mode.o(.text.__ARM_isnanf)
    [Anonymous Symbol]                       0x00005364   Section        0  developer_mode.o(.text.__ARM_isnanf)
    __ARM_isnanf                             0x0000537d   Thumb Code    24  subtask_demo.o(.text.__ARM_isnanf)
    [Anonymous Symbol]                       0x0000537c   Section        0  subtask_demo.o(.text.__ARM_isnanf)
    __NVIC_ClearPendingIRQ                   0x00005395   Thumb Code    40  bsp_usart.o(.text.__NVIC_ClearPendingIRQ)
    [Anonymous Symbol]                       0x00005394   Section        0  bsp_usart.o(.text.__NVIC_ClearPendingIRQ)
    __arm_cp.1_0                             0x000053bc   Number         4  bsp_usart.o(.text.__NVIC_ClearPendingIRQ)
    __NVIC_EnableIRQ                         0x000053c1   Thumb Code    40  bsp_usart.o(.text.__NVIC_EnableIRQ)
    [Anonymous Symbol]                       0x000053c0   Section        0  bsp_usart.o(.text.__NVIC_EnableIRQ)
    __NVIC_EnableIRQ                         0x000053e9   Thumb Code    40  bsp_timer.o(.text.__NVIC_EnableIRQ)
    [Anonymous Symbol]                       0x000053e8   Section        0  bsp_timer.o(.text.__NVIC_EnableIRQ)
    __arm_cp.2_0                             0x00005410   Number         4  bsp_timer.o(.text.__NVIC_EnableIRQ)
    __NVIC_SetPriority                       0x00005415   Thumb Code   124  ti_msp_dl_config.o(.text.__NVIC_SetPriority)
    [Anonymous Symbol]                       0x00005414   Section        0  ti_msp_dl_config.o(.text.__NVIC_SetPriority)
    __arm_cp.55_0                            0x00005490   Number         4  ti_msp_dl_config.o(.text.__NVIC_SetPriority)
    __arm_cp.55_1                            0x00005494   Number         4  ti_msp_dl_config.o(.text.__NVIC_SetPriority)
    [Anonymous Symbol]                       0x00005498   Section        0  subtask_demo.o(.text.basic_auto_flight_support)
    [Anonymous Symbol]                       0x000054bc   Section        0  bsp_eeprom.o(.text.bsp_eeprom_init)
    [Anonymous Symbol]                       0x000054c4   Section        0  drv_expand.o(.text.buzzer_setup)
    __arm_cp.4_0                             0x000054ec   Number         4  drv_expand.o(.text.buzzer_setup)
    [Anonymous Symbol]                       0x000054f0   Section        0  wp_math.o(.text.constrain_float)
    [Anonymous Symbol]                       0x00005572   Section        0  wp_math.o(.text.constrain_int32)
    [Anonymous Symbol]                       0x000055ac   Section        0  systick.o(.text.delay)
    [Anonymous Symbol]                       0x000055c2   Section        0  systick.o(.text.delayMicroseconds)
    [Anonymous Symbol]                       0x000055e6   Section        0  systick.o(.text.delay_ms)
    [Anonymous Symbol]                       0x000055f6   Section        0  systick.o(.text.delay_us)
    [Anonymous Symbol]                       0x00005606   Section        0  drv_oled.o(.text.display_6_8_number)
    [Anonymous Symbol]                       0x00005626   Section        0  drv_oled.o(.text.display_6_8_string)
    [Anonymous Symbol]                       0x00005648   Section        0  subtask_demo.o(.text.flight_subtask_1)
    __arm_cp.4_0                             0x00005730   Number         4  subtask_demo.o(.text.flight_subtask_1)
    __arm_cp.4_4                             0x00005734   Number         4  subtask_demo.o(.text.flight_subtask_1)
    [Anonymous Symbol]                       0x00005738   Section        0  subtask_demo.o(.text.flight_subtask_3)
    __arm_cp.6_0                             0x00005824   Number         4  subtask_demo.o(.text.flight_subtask_3)
    __arm_cp.6_2                             0x00005828   Number         4  subtask_demo.o(.text.flight_subtask_3)
    __arm_cp.6_3                             0x0000582c   Number         4  subtask_demo.o(.text.flight_subtask_3)
    __arm_cp.6_4                             0x00005830   Number         4  subtask_demo.o(.text.flight_subtask_3)
    __arm_cp.6_5                             0x00005834   Number         4  subtask_demo.o(.text.flight_subtask_3)
    [Anonymous Symbol]                       0x00005838   Section        0  subtask_demo.o(.text.flight_subtask_5)
    __arm_cp.8_0                             0x00005a34   Number         4  subtask_demo.o(.text.flight_subtask_5)
    __arm_cp.8_1                             0x00005a38   Number         4  subtask_demo.o(.text.flight_subtask_5)
    __arm_cp.8_2                             0x00005a3c   Number         4  subtask_demo.o(.text.flight_subtask_5)
    __arm_cp.8_3                             0x00005a40   Number         4  subtask_demo.o(.text.flight_subtask_5)
    __arm_cp.8_4                             0x00005a44   Number         4  subtask_demo.o(.text.flight_subtask_5)
    [Anonymous Symbol]                       0x00005a48   Section        0  subtask_demo.o(.text.flight_subtask_7)
    __arm_cp.10_0                            0x00005d2c   Number         4  subtask_demo.o(.text.flight_subtask_7)
    __arm_cp.10_1                            0x00005d30   Number         4  subtask_demo.o(.text.flight_subtask_7)
    __arm_cp.10_2                            0x00005d34   Number         4  subtask_demo.o(.text.flight_subtask_7)
    __arm_cp.10_3                            0x00005d38   Number         4  subtask_demo.o(.text.flight_subtask_7)
    __arm_cp.10_4                            0x00005d3c   Number         4  subtask_demo.o(.text.flight_subtask_7)
    __arm_cp.10_5                            0x00005d40   Number         4  subtask_demo.o(.text.flight_subtask_7)
    [Anonymous Symbol]                       0x00005d44   Section        0  subtask_demo.o(.text.flight_subtask_8)
    __arm_cp.12_0                            0x00005e94   Number         4  subtask_demo.o(.text.flight_subtask_8)
    __arm_cp.12_1                            0x00005e98   Number         4  subtask_demo.o(.text.flight_subtask_8)
    __arm_cp.12_2                            0x00005e9c   Number         4  subtask_demo.o(.text.flight_subtask_8)
    __arm_cp.12_3                            0x00005ea0   Number         4  subtask_demo.o(.text.flight_subtask_8)
    __arm_cp.12_4                            0x00005ea4   Number         4  subtask_demo.o(.text.flight_subtask_8)
    __arm_cp.12_5                            0x00005ea8   Number         4  subtask_demo.o(.text.flight_subtask_8)
    __arm_cp.12_6                            0x00005eac   Number         4  subtask_demo.o(.text.flight_subtask_8)
    __arm_cp.12_7                            0x00005eb0   Number         4  subtask_demo.o(.text.flight_subtask_8)
    __arm_cp.12_8                            0x00005eb4   Number         4  subtask_demo.o(.text.flight_subtask_8)
    [Anonymous Symbol]                       0x00005eb8   Section        0  subtask_demo.o(.text.flight_subtask_reset)
    __arm_cp.2_0                             0x00005f00   Number         4  subtask_demo.o(.text.flight_subtask_reset)
    __arm_cp.2_1                             0x00005f04   Number         4  subtask_demo.o(.text.flight_subtask_reset)
    __arm_cp.2_2                             0x00005f08   Number         4  subtask_demo.o(.text.flight_subtask_reset)
    __arm_cp.2_3                             0x00005f0c   Number         4  subtask_demo.o(.text.flight_subtask_reset)
    [Anonymous Symbol]                       0x00005f10   Section        0  wp_math.o(.text.from_body_to_nav_frame)
    [Anonymous Symbol]                       0x00005f8c   Section        0  wp_math.o(.text.from_vio_to_body_frame)
    __arm_cp.26_0                            0x00006010   Number         4  wp_math.o(.text.from_vio_to_body_frame)
    [Anonymous Symbol]                       0x00006014   Section        0  systick.o(.text.get_systime)
    __arm_cp.9_0                             0x0000605c   Number         4  systick.o(.text.get_systime)
    [Anonymous Symbol]                       0x00006060   Section        0  drv_expand.o(.text.laser_light_work)
    [Anonymous Symbol]                       0x00006108   Section        0  bsp_led.o(.text.led_gpio_config)
    [Anonymous Symbol]                       0x00006138   Section        0  main.o(.text.main)
    __arm_cp.0_0                             0x00006184   Number         4  main.o(.text.main)
    [Anonymous Symbol]                       0x00006188   Section        0  main.o(.text.maple_duty_200hz)
    __arm_cp.1_0                             0x000061b8   Number         4  main.o(.text.maple_duty_200hz)
    __arm_cp.1_1                             0x000061bc   Number         4  main.o(.text.maple_duty_200hz)
    __arm_cp.1_2                             0x000061c0   Number         4  main.o(.text.maple_duty_200hz)
    __arm_cp.1_3                             0x000061c4   Number         4  main.o(.text.maple_duty_200hz)
    [Anonymous Symbol]                       0x000061c8   Section        0  systick.o(.text.micros)
    __arm_cp.1_0                             0x000061f8   Number         4  systick.o(.text.micros)
    __arm_cp.1_1                             0x000061fc   Number         4  systick.o(.text.micros)
    __arm_cp.1_2                             0x00006200   Number         4  systick.o(.text.micros)
    [Anonymous Symbol]                       0x00006204   Section        0  systick.o(.text.millis)
    [Anonymous Symbol]                       0x00006214   Section        0  drv_oled.o(.text.oled_init)
    __arm_cp.10_0                            0x00006254   Number         4  drv_oled.o(.text.oled_init)
    [Anonymous Symbol]                       0x00006258   Section        0  key.o(.text.oled_page_show)
    __arm_cp.6_70                            0x00006658   Number         4  key.o(.text.oled_page_show)
    __arm_cp.6_71                            0x0000665c   Number         4  key.o(.text.oled_page_show)
    __arm_cp.6_72                            0x00006660   Number         4  key.o(.text.oled_page_show)
    __arm_cp.6_73                            0x00006664   Number         4  key.o(.text.oled_page_show)
    __arm_cp.6_76                            0x00006670   Number         4  key.o(.text.oled_page_show)
    __arm_cp.6_77                            0x00006674   Number         4  key.o(.text.oled_page_show)
    __arm_cp.6_78                            0x00006678   Number         4  key.o(.text.oled_page_show)
    __arm_cp.6_79                            0x0000667c   Number         4  key.o(.text.oled_page_show)
    __arm_cp.6_80                            0x00006680   Number         4  key.o(.text.oled_page_show)
    __arm_cp.6_81                            0x00006684   Number         4  key.o(.text.oled_page_show)
    __arm_cp.6_82                            0x00006688   Number         4  key.o(.text.oled_page_show)
    __arm_cp.6_83                            0x0000668c   Number         4  key.o(.text.oled_page_show)
    __arm_cp.6_84                            0x00006690   Number         4  key.o(.text.oled_page_show)
    __arm_cp.6_85                            0x00006694   Number         4  key.o(.text.oled_page_show)
    __arm_cp.6_86                            0x00006698   Number         4  key.o(.text.oled_page_show)
    __arm_cp.6_87                            0x0000669c   Number         4  key.o(.text.oled_page_show)
    __arm_cp.6_88                            0x000066a0   Number         4  key.o(.text.oled_page_show)
    __arm_cp.6_92                            0x00006a9c   Number         4  key.o(.text.oled_page_show)
    __arm_cp.6_96                            0x00006aac   Number         4  key.o(.text.oled_page_show)
    __arm_cp.6_98                            0x00006ab4   Number         4  key.o(.text.oled_page_show)
    __arm_cp.6_100                           0x00006abc   Number         4  key.o(.text.oled_page_show)
    __arm_cp.6_101                           0x00006ac0   Number         4  key.o(.text.oled_page_show)
    __arm_cp.6_102                           0x00006ac4   Number         4  key.o(.text.oled_page_show)
    __arm_cp.6_103                           0x00006ac8   Number         4  key.o(.text.oled_page_show)
    __arm_cp.6_104                           0x00006acc   Number         4  key.o(.text.oled_page_show)
    __arm_cp.6_105                           0x00006ad0   Number         4  key.o(.text.oled_page_show)
    __arm_cp.6_109                           0x00006dd0   Number         4  key.o(.text.oled_page_show)
    __arm_cp.6_117                           0x000071ec   Number         4  key.o(.text.oled_page_show)
    __arm_cp.6_119                           0x000071f4   Number         4  key.o(.text.oled_page_show)
    __arm_cp.6_121                           0x000071fc   Number         4  key.o(.text.oled_page_show)
    __arm_cp.6_122                           0x00007200   Number         4  key.o(.text.oled_page_show)
    __arm_cp.6_123                           0x00007204   Number         4  key.o(.text.oled_page_show)
    __arm_cp.6_124                           0x00007208   Number         4  key.o(.text.oled_page_show)
    __arm_cp.6_125                           0x0000720c   Number         4  key.o(.text.oled_page_show)
    __arm_cp.6_126                           0x00007210   Number         4  key.o(.text.oled_page_show)
    __arm_cp.6_130                           0x0000745c   Number         4  key.o(.text.oled_page_show)
    __arm_cp.6_134                           0x0000746c   Number         4  key.o(.text.oled_page_show)
    __arm_cp.6_139                           0x0000787c   Number         4  key.o(.text.oled_page_show)
    __arm_cp.6_141                           0x00007884   Number         4  key.o(.text.oled_page_show)
    __arm_cp.6_143                           0x0000788c   Number         4  key.o(.text.oled_page_show)
    __arm_cp.6_144                           0x00007890   Number         4  key.o(.text.oled_page_show)
    __arm_cp.6_145                           0x00007894   Number         4  key.o(.text.oled_page_show)
    __arm_cp.6_146                           0x00007898   Number         4  key.o(.text.oled_page_show)
    __arm_cp.6_147                           0x0000789c   Number         4  key.o(.text.oled_page_show)
    __arm_cp.6_148                           0x000078a0   Number         4  key.o(.text.oled_page_show)
    __arm_cp.6_152                           0x00007acc   Number         4  key.o(.text.oled_page_show)
    __arm_cp.6_160                           0x00007ee8   Number         4  key.o(.text.oled_page_show)
    __arm_cp.6_162                           0x00007ef0   Number         4  key.o(.text.oled_page_show)
    __arm_cp.6_164                           0x00007ef8   Number         4  key.o(.text.oled_page_show)
    __arm_cp.6_165                           0x00007efc   Number         4  key.o(.text.oled_page_show)
    __arm_cp.6_166                           0x00007f00   Number         4  key.o(.text.oled_page_show)
    __arm_cp.6_167                           0x00007f04   Number         4  key.o(.text.oled_page_show)
    __arm_cp.6_168                           0x00007f08   Number         4  key.o(.text.oled_page_show)
    __arm_cp.6_169                           0x00007f0c   Number         4  key.o(.text.oled_page_show)
    __arm_cp.6_0                             0x000081a0   Number         4  key.o(.text.oled_page_show)
    __arm_cp.6_3                             0x000081a4   Number         4  key.o(.text.oled_page_show)
    __arm_cp.6_10                            0x000081a8   Number         4  key.o(.text.oled_page_show)
    __arm_cp.6_11                            0x000081ac   Number         4  key.o(.text.oled_page_show)
    __arm_cp.6_12                            0x000081b0   Number         4  key.o(.text.oled_page_show)
    __arm_cp.6_14                            0x000081b4   Number         4  key.o(.text.oled_page_show)
    __arm_cp.6_15                            0x000081b8   Number         4  key.o(.text.oled_page_show)
    __arm_cp.6_16                            0x000081bc   Number         4  key.o(.text.oled_page_show)
    __arm_cp.6_17                            0x000081c0   Number         4  key.o(.text.oled_page_show)
    __arm_cp.6_64                            0x000081c4   Number         4  key.o(.text.oled_page_show)
    __arm_cp.6_65                            0x000081c8   Number         4  key.o(.text.oled_page_show)
    __arm_cp.6_66                            0x000081cc   Number         4  key.o(.text.oled_page_show)
    __arm_cp.6_67                            0x000081d0   Number         4  key.o(.text.oled_page_show)
    [Anonymous Symbol]                       0x000081d4   Section        0  nclink.o(.text.pilot_msg_notify)
    __arm_cp.6_0                             0x00008218   Number         4  nclink.o(.text.pilot_msg_notify)
    __arm_cp.6_1                             0x0000821c   Number         4  nclink.o(.text.pilot_msg_notify)
    __arm_cp.6_2                             0x00008220   Number         4  nclink.o(.text.pilot_msg_notify)
    [Anonymous Symbol]                       0x00008224   Section        0  developer_mode.o(.text.planner_send_to_pilot)
    __arm_cp.3_0                             0x000083bc   Number         4  developer_mode.o(.text.planner_send_to_pilot)
    __arm_cp.3_1                             0x000083c0   Number         4  developer_mode.o(.text.planner_send_to_pilot)
    __arm_cp.3_2                             0x000083c4   Number         4  developer_mode.o(.text.planner_send_to_pilot)
    __arm_cp.3_3                             0x000083c8   Number         4  developer_mode.o(.text.planner_send_to_pilot)
    __arm_cp.3_4                             0x000083cc   Number         4  developer_mode.o(.text.planner_send_to_pilot)
    __arm_cp.3_5                             0x000083d0   Number         4  developer_mode.o(.text.planner_send_to_pilot)
    [Anonymous Symbol]                       0x000083d4   Section        0  wp_math.o(.text.pythagorous2)
    [Anonymous Symbol]                       0x000083fa   Section        0  wp_math.o(.text.pythagorous3)
    [Anonymous Symbol]                       0x00008434   Section        0  quaternion.o(.text.quaternion_to_euler)
    __arm_cp.9_0                             0x000085c0   Number         4  quaternion.o(.text.quaternion_to_euler)
    __arm_cp.9_1                             0x000085c4   Number         4  quaternion.o(.text.quaternion_to_euler)
    [Anonymous Symbol]                       0x000085c8   Section        0  drv_expand.o(.text.reserved_io_init)
    __arm_cp.0_0                             0x00008614   Number         4  drv_expand.o(.text.reserved_io_init)
    __arm_cp.0_1                             0x00008618   Number         4  drv_expand.o(.text.reserved_io_init)
    __arm_cp.0_2                             0x0000861c   Number         4  drv_expand.o(.text.reserved_io_init)
    __arm_cp.0_3                             0x00008620   Number         4  drv_expand.o(.text.reserved_io_init)
    __arm_cp.0_4                             0x00008624   Number         4  drv_expand.o(.text.reserved_io_init)
    __arm_cp.0_5                             0x00008628   Number         4  drv_expand.o(.text.reserved_io_init)
    [Anonymous Symbol]                       0x0000862c   Section        0  filter.o(.text.set_cutoff_frequency)
    __arm_cp.1_0                             0x00008720   Number         4  filter.o(.text.set_cutoff_frequency)
    __arm_cp.1_1                             0x00008724   Number         4  filter.o(.text.set_cutoff_frequency)
    __arm_cp.1_2                             0x00008728   Number         4  filter.o(.text.set_cutoff_frequency)
    [Anonymous Symbol]                       0x0000872c   Section        0  w25qxx.o(.text.spi_read_write_byte)
    __arm_cp.8_0                             0x00008758   Number         4  w25qxx.o(.text.spi_read_write_byte)
    [Anonymous Symbol]                       0x0000875c   Section        0  wp_math.o(.text.sq)
    [Anonymous Symbol]                       0x00008770   Section        0  ssd1306.o(.text.ssd1306_begin)
    __arm_cp.4_0                             0x000088ac   Number         4  ssd1306.o(.text.ssd1306_begin)
    __arm_cp.4_1                             0x000088b0   Number         4  ssd1306.o(.text.ssd1306_begin)
    __arm_cp.4_2                             0x000088b4   Number         4  ssd1306.o(.text.ssd1306_begin)
    __arm_cp.4_3                             0x000088b8   Number         4  ssd1306.o(.text.ssd1306_begin)
    __arm_cp.4_4                             0x000088bc   Number         4  ssd1306.o(.text.ssd1306_begin)
    __arm_cp.4_5                             0x000088c0   Number         4  ssd1306.o(.text.ssd1306_begin)
    __arm_cp.4_6                             0x000088c4   Number         4  ssd1306.o(.text.ssd1306_begin)
    __arm_cp.4_7                             0x000088c8   Number         4  ssd1306.o(.text.ssd1306_begin)
    __arm_cp.4_8                             0x000088cc   Number         4  ssd1306.o(.text.ssd1306_begin)
    __arm_cp.4_9                             0x000088d0   Number         4  ssd1306.o(.text.ssd1306_begin)
    __arm_cp.4_10                            0x000088d4   Number         4  ssd1306.o(.text.ssd1306_begin)
    __arm_cp.4_11                            0x000088d8   Number         4  ssd1306.o(.text.ssd1306_begin)
    __arm_cp.4_12                            0x000088dc   Number         4  ssd1306.o(.text.ssd1306_begin)
    __arm_cp.4_13                            0x000088e0   Number         4  ssd1306.o(.text.ssd1306_begin)
    [Anonymous Symbol]                       0x000088e4   Section        0  ssd1306.o(.text.ssd1306_command)
    [Anonymous Symbol]                       0x000088f8   Section        0  bsp_timer.o(.text.timer_irq_config)
    __arm_cp.0_3                             0x00008928   Number         4  bsp_timer.o(.text.timer_irq_config)
    __arm_cp.0_4                             0x0000892c   Number         4  bsp_timer.o(.text.timer_irq_config)
    [Anonymous Symbol]                       0x00008930   Section        0  bsp_timer.o(.text.timer_pwm_config)
    __arm_cp.3_0                             0x00008948   Number         4  bsp_timer.o(.text.timer_pwm_config)
    __arm_cp.3_1                             0x0000894c   Number         4  bsp_timer.o(.text.timer_pwm_config)
    __arm_cp.3_2                             0x00008950   Number         4  bsp_timer.o(.text.timer_pwm_config)
    [Anonymous Symbol]                       0x00008954   Section        0  bsp_usart.o(.text.usart0_send_bytes)
    [Anonymous Symbol]                       0x00008980   Section        0  bsp_usart.o(.text.usart_irq_config)
    __arm_cp.0_0                             0x000089e4   Number         4  bsp_usart.o(.text.usart_irq_config)
    __arm_cp.0_1                             0x000089e8   Number         4  bsp_usart.o(.text.usart_irq_config)
    __arm_cp.0_2                             0x000089ec   Number         4  bsp_usart.o(.text.usart_irq_config)
    __arm_cp.0_3                             0x000089f0   Number         4  bsp_usart.o(.text.usart_irq_config)
    [Anonymous Symbol]                       0x000089f4   Section        0  subtask_demo.o(.text.user_setpoint_generate)
    __arm_cp.14_0                            0x00008b08   Number         4  subtask_demo.o(.text.user_setpoint_generate)
    __arm_cp.14_1                            0x00008b0c   Number         4  subtask_demo.o(.text.user_setpoint_generate)
    __arm_cp.14_2                            0x00008b10   Number         4  subtask_demo.o(.text.user_setpoint_generate)
    [Anonymous Symbol]                       0x00008b14   Section        0  w25qxx.o(.text.w25qxx_erase_all)
    [Anonymous Symbol]                       0x00008b24   Section        0  w25qxx.o(.text.w25qxx_gpio_init)
    __arm_cp.0_0                             0x00008b54   Number         4  w25qxx.o(.text.w25qxx_gpio_init)
    __arm_cp.0_1                             0x00008b58   Number         4  w25qxx.o(.text.w25qxx_gpio_init)
    [Anonymous Symbol]                       0x00008b5c   Section        0  drv_oled.o(.text.write_6_8_number)
    __arm_cp.7_0                             0x00008fbc   Number         4  drv_oled.o(.text.write_6_8_number)
    __arm_cp.7_1                             0x00008fc0   Number         4  drv_oled.o(.text.write_6_8_number)
    __arm_cp.7_2                             0x00008fc4   Number         4  drv_oled.o(.text.write_6_8_number)
    __arm_cp.7_3                             0x00008fc8   Number         4  drv_oled.o(.text.write_6_8_number)
    __arm_cp.7_4                             0x00008fcc   Number         4  drv_oled.o(.text.write_6_8_number)
    __arm_cp.7_5                             0x00008fd0   Number         4  drv_oled.o(.text.write_6_8_number)
    __arm_cp.7_6                             0x00008fd4   Number         4  drv_oled.o(.text.write_6_8_number)
    __arm_cp.7_7                             0x00008fd8   Number         4  drv_oled.o(.text.write_6_8_number)
    __arm_cp.7_8                             0x00008fdc   Number         4  drv_oled.o(.text.write_6_8_number)
    __arm_cp.7_9                             0x00008fe0   Number         4  drv_oled.o(.text.write_6_8_number)
    __arm_cp.7_10                            0x00008fe4   Number         4  drv_oled.o(.text.write_6_8_number)
    __arm_cp.7_11                            0x00008fe8   Number         4  drv_oled.o(.text.write_6_8_number)
    __arm_cp.7_12                            0x00008fec   Number         4  drv_oled.o(.text.write_6_8_number)
    __arm_cp.7_13                            0x00008ff0   Number         4  drv_oled.o(.text.write_6_8_number)
    [Anonymous Symbol]                       0x00008ff4   Section        0  drv_oled.o(.text.write_6_8_number_f1)
    __arm_cp.16_0                            0x000093f4   Number         4  drv_oled.o(.text.write_6_8_number_f1)
    __arm_cp.16_1                            0x000093f8   Number         4  drv_oled.o(.text.write_6_8_number_f1)
    __arm_cp.16_2                            0x000093fc   Number         4  drv_oled.o(.text.write_6_8_number_f1)
    __arm_cp.16_3                            0x00009400   Number         4  drv_oled.o(.text.write_6_8_number_f1)
    __arm_cp.16_4                            0x00009404   Number         4  drv_oled.o(.text.write_6_8_number_f1)
    __arm_cp.16_5                            0x00009408   Number         4  drv_oled.o(.text.write_6_8_number_f1)
    __arm_cp.16_6                            0x0000940c   Number         4  drv_oled.o(.text.write_6_8_number_f1)
    __arm_cp.16_7                            0x00009410   Number         4  drv_oled.o(.text.write_6_8_number_f1)
    __arm_cp.16_8                            0x00009414   Number         4  drv_oled.o(.text.write_6_8_number_f1)
    __arm_cp.16_9                            0x00009418   Number         4  drv_oled.o(.text.write_6_8_number_f1)
    __arm_cp.16_10                           0x0000941c   Number         4  drv_oled.o(.text.write_6_8_number_f1)
    __arm_cp.16_11                           0x00009420   Number         4  drv_oled.o(.text.write_6_8_number_f1)
    __arm_cp.16_12                           0x00009424   Number         4  drv_oled.o(.text.write_6_8_number_f1)
    __arm_cp.16_13                           0x00009428   Number         4  drv_oled.o(.text.write_6_8_number_f1)
    i.__ARM_common_ll_muluu                  0x0000942c   Section        0  rredf.o(i.__ARM_common_ll_muluu)
    i.__ARM_fpclassifyf                      0x0000945e   Section        0  fpclassifyf.o(i.__ARM_fpclassifyf)
    i.__mathlib_flt_infnan                   0x00009480   Section        0  funder.o(i.__mathlib_flt_infnan)
    i.__mathlib_flt_infnan2                  0x0000948a   Section        0  funder.o(i.__mathlib_flt_infnan2)
    i.__mathlib_flt_invalid                  0x00009492   Section        0  funder.o(i.__mathlib_flt_invalid)
    i.__mathlib_flt_underflow                0x0000949e   Section        0  funder.o(i.__mathlib_flt_underflow)
    i.__mathlib_rredf2                       0x000094ac   Section        0  rredf.o(i.__mathlib_rredf2)
    i._feq                                   0x0000962c   Section        0  fcmp.o(i._feq)
    i._fgeq                                  0x00009642   Section        0  fcmp.o(i._fgeq)
    i._fgr                                   0x00009658   Section        0  fcmp.o(i._fgr)
    i._fleq                                  0x0000966e   Section        0  fcmp.o(i._fleq)
    i._fls                                   0x00009688   Section        0  fcmp.o(i._fls)
    i.asinf                                  0x000096a0   Section        0  asinf.o(i.asinf)
    i.atan2f                                 0x000097b8   Section        0  atan2f.o(i.atan2f)
    i.atanf                                  0x00009a54   Section        0  atanf.o(i.atanf)
    i.cosf                                   0x00009bb4   Section        0  cosf.o(i.cosf)
    i.sqrtf                                  0x00009d2c   Section        0  sqrtf.o(i.sqrtf)
    i.tanf                                   0x00009d58   Section        0  tanf.o(i.tanf)
    x$fpl$fadd                               0x00009ec8   Section      140  faddsub.o(x$fpl$fadd)
    _fadd1                                   0x00009ed5   Thumb Code     0  faddsub.o(x$fpl$fadd)
    x$fpl$feqf                               0x00009f54   Section       84  feqf.o(x$fpl$feqf)
    x$fpl$fgeqf                              0x00009fa8   Section       84  fgef.o(x$fpl$fgeqf)
    x$fpl$fleqf                              0x00009ffc   Section       84  flef.o(x$fpl$fleqf)
    x$fpl$fmul                               0x0000a050   Section      176  fmul.o(x$fpl$fmul)
    x$fpl$frsb                               0x0000a100   Section       24  faddsub.o(x$fpl$frsb)
    x$fpl$fsub                               0x0000a118   Section      208  faddsub.o(x$fpl$fsub)
    _fsub1                                   0x0000a125   Thumb Code     0  faddsub.o(x$fpl$fsub)
    fdiv_tab                                 0x0000a1e8   Data          64  fdiv.o(.constdata)
    .constdata                               0x0000a1e8   Section       64  fdiv.o(.constdata)
    x$fpl$usenofp                            0x0000a1e8   Section        0  usenofp.o(x$fpl$usenofp)
    twooverpi                                0x0000a228   Data          32  rredf.o(.constdata)
    .constdata                               0x0000a228   Section       32  rredf.o(.constdata)
    FastAtan2.a                              0x0000a5b0   Data          16  wp_math.o(.rodata.FastAtan2.a)
    [Anonymous Symbol]                       0x0000a5b0   Section        0  wp_math.o(.rodata.FastAtan2.a)
    gI2C_0ClockConfig                        0x0000a9d8   Data           2  ti_msp_dl_config.o(.rodata.gI2C_0ClockConfig)
    [Anonymous Symbol]                       0x0000a9d8   Section        0  ti_msp_dl_config.o(.rodata.gI2C_0ClockConfig)
    gPWM_0ClockConfig                        0x0000a9da   Data           3  ti_msp_dl_config.o(.rodata.gPWM_0ClockConfig)
    [Anonymous Symbol]                       0x0000a9da   Section        0  ti_msp_dl_config.o(.rodata.gPWM_0ClockConfig)
    gPWM_0Config                             0x0000a9e0   Data           8  ti_msp_dl_config.o(.rodata.gPWM_0Config)
    [Anonymous Symbol]                       0x0000a9e0   Section        0  ti_msp_dl_config.o(.rodata.gPWM_0Config)
    gPWM_1ClockConfig                        0x0000a9e8   Data           3  ti_msp_dl_config.o(.rodata.gPWM_1ClockConfig)
    [Anonymous Symbol]                       0x0000a9e8   Section        0  ti_msp_dl_config.o(.rodata.gPWM_1ClockConfig)
    gPWM_1Config                             0x0000a9ec   Data           8  ti_msp_dl_config.o(.rodata.gPWM_1Config)
    [Anonymous Symbol]                       0x0000a9ec   Section        0  ti_msp_dl_config.o(.rodata.gPWM_1Config)
    gPWM_2ClockConfig                        0x0000a9f4   Data           3  ti_msp_dl_config.o(.rodata.gPWM_2ClockConfig)
    [Anonymous Symbol]                       0x0000a9f4   Section        0  ti_msp_dl_config.o(.rodata.gPWM_2ClockConfig)
    gPWM_2Config                             0x0000a9f8   Data           8  ti_msp_dl_config.o(.rodata.gPWM_2Config)
    [Anonymous Symbol]                       0x0000a9f8   Section        0  ti_msp_dl_config.o(.rodata.gPWM_2Config)
    gSPI_0_clockConfig                       0x0000aa00   Data           2  ti_msp_dl_config.o(.rodata.gSPI_0_clockConfig)
    [Anonymous Symbol]                       0x0000aa00   Section        0  ti_msp_dl_config.o(.rodata.gSPI_0_clockConfig)
    gSPI_0_config                            0x0000aa02   Data          10  ti_msp_dl_config.o(.rodata.gSPI_0_config)
    [Anonymous Symbol]                       0x0000aa02   Section        0  ti_msp_dl_config.o(.rodata.gSPI_0_config)
    gSYSPLLConfig                            0x0000aa0c   Data          40  ti_msp_dl_config.o(.rodata.gSYSPLLConfig)
    [Anonymous Symbol]                       0x0000aa0c   Section        0  ti_msp_dl_config.o(.rodata.gSYSPLLConfig)
    gTIMER_1ClockConfig                      0x0000aa34   Data           3  ti_msp_dl_config.o(.rodata.gTIMER_1ClockConfig)
    [Anonymous Symbol]                       0x0000aa34   Section        0  ti_msp_dl_config.o(.rodata.gTIMER_1ClockConfig)
    gTIMER_1TimerConfig                      0x0000aa38   Data          20  ti_msp_dl_config.o(.rodata.gTIMER_1TimerConfig)
    [Anonymous Symbol]                       0x0000aa38   Section        0  ti_msp_dl_config.o(.rodata.gTIMER_1TimerConfig)
    gTIMER_2ClockConfig                      0x0000aa4c   Data           3  ti_msp_dl_config.o(.rodata.gTIMER_2ClockConfig)
    [Anonymous Symbol]                       0x0000aa4c   Section        0  ti_msp_dl_config.o(.rodata.gTIMER_2ClockConfig)
    gTIMER_2TimerConfig                      0x0000aa50   Data          20  ti_msp_dl_config.o(.rodata.gTIMER_2TimerConfig)
    [Anonymous Symbol]                       0x0000aa50   Section        0  ti_msp_dl_config.o(.rodata.gTIMER_2TimerConfig)
    gUART_0ClockConfig                       0x0000aa64   Data           2  ti_msp_dl_config.o(.rodata.gUART_0ClockConfig)
    [Anonymous Symbol]                       0x0000aa64   Section        0  ti_msp_dl_config.o(.rodata.gUART_0ClockConfig)
    gUART_0Config                            0x0000aa66   Data          10  ti_msp_dl_config.o(.rodata.gUART_0Config)
    [Anonymous Symbol]                       0x0000aa66   Section        0  ti_msp_dl_config.o(.rodata.gUART_0Config)
    gUART_1ClockConfig                       0x0000aa70   Data           2  ti_msp_dl_config.o(.rodata.gUART_1ClockConfig)
    [Anonymous Symbol]                       0x0000aa70   Section        0  ti_msp_dl_config.o(.rodata.gUART_1ClockConfig)
    gUART_1Config                            0x0000aa72   Data          10  ti_msp_dl_config.o(.rodata.gUART_1Config)
    [Anonymous Symbol]                       0x0000aa72   Section        0  ti_msp_dl_config.o(.rodata.gUART_1Config)
    gUART_2ClockConfig                       0x0000aa7c   Data           2  ti_msp_dl_config.o(.rodata.gUART_2ClockConfig)
    [Anonymous Symbol]                       0x0000aa7c   Section        0  ti_msp_dl_config.o(.rodata.gUART_2ClockConfig)
    gUART_2Config                            0x0000aa7e   Data          10  ti_msp_dl_config.o(.rodata.gUART_2Config)
    [Anonymous Symbol]                       0x0000aa7e   Section        0  ti_msp_dl_config.o(.rodata.gUART_2Config)
    gUART_3ClockConfig                       0x0000aa88   Data           2  ti_msp_dl_config.o(.rodata.gUART_3ClockConfig)
    [Anonymous Symbol]                       0x0000aa88   Section        0  ti_msp_dl_config.o(.rodata.gUART_3ClockConfig)
    gUART_3Config                            0x0000aa8a   Data          10  ti_msp_dl_config.o(.rodata.gUART_3Config)
    [Anonymous Symbol]                       0x0000aa8a   Section        0  ti_msp_dl_config.o(.rodata.gUART_3Config)
    [Anonymous Symbol]                       0x0000b298   Section        0  key.o(.rodata.str1.1)
    Air_Ground_Extinguish_Fire_System_Basic.n 0x20200000   Data           1  subtask_demo.o(.data.Air_Ground_Extinguish_Fire_System_Basic.n)
    [Anonymous Symbol]                       0x20200000   Section        0  subtask_demo.o(.data.Air_Ground_Extinguish_Fire_System_Basic.n)
    Auto_Takeoff.n                           0x20200001   Data           1  subtask_demo.o(.data.Auto_Takeoff.n)
    [Anonymous Symbol]                       0x20200001   Section        0  subtask_demo.o(.data.Auto_Takeoff.n)
    Navigation_User_Setpoint.n               0x20200006   Data           1  subtask_demo.o(.data.Navigation_User_Setpoint.n)
    [Anonymous Symbol]                       0x20200006   Section        0  subtask_demo.o(.data.Navigation_User_Setpoint.n)
    flight_subtask_3.n                       0x20200008   Data           1  subtask_demo.o(.data.flight_subtask_3.n)
    [Anonymous Symbol]                       0x20200008   Section        0  subtask_demo.o(.data.flight_subtask_3.n)
    flight_subtask_5.n                       0x20200009   Data           1  subtask_demo.o(.data.flight_subtask_5.n)
    [Anonymous Symbol]                       0x20200009   Section        0  subtask_demo.o(.data.flight_subtask_5.n)
    flight_subtask_7.n                       0x2020000a   Data           1  subtask_demo.o(.data.flight_subtask_7.n)
    [Anonymous Symbol]                       0x2020000a   Section        0  subtask_demo.o(.data.flight_subtask_7.n)
    flight_subtask_8.n                       0x2020000b   Data           1  subtask_demo.o(.data.flight_subtask_8.n)
    [Anonymous Symbol]                       0x2020000b   Section        0  subtask_demo.o(.data.flight_subtask_8.n)
    oled_page_show.ver_item                  0x2020000c   Data           2  key.o(.data.oled_page_show.ver_item)
    [Anonymous Symbol]                       0x2020000c   Section        0  key.o(.data.oled_page_show.ver_item)
    oled_page_show.ver_item.28               0x2020000e   Data           2  key.o(.data.oled_page_show.ver_item.28)
    [Anonymous Symbol]                       0x2020000e   Section        0  key.o(.data.oled_page_show.ver_item.28)
    oled_page_show.ver_item.37               0x20200010   Data           2  key.o(.data.oled_page_show.ver_item.37)
    [Anonymous Symbol]                       0x20200010   Section        0  key.o(.data.oled_page_show.ver_item.37)
    oled_page_show.ver_item.46               0x20200012   Data           2  key.o(.data.oled_page_show.ver_item.46)
    [Anonymous Symbol]                       0x20200012   Section        0  key.o(.data.oled_page_show.ver_item.46)
    .bss                                     0x20200338   Section       96  libspace.o(.bss)
    HEIGHT                                   0x20200448   Data           2  ssd1306.o(.bss.HEIGHT)
    [Anonymous Symbol]                       0x20200448   Section        0  ssd1306.o(.bss.HEIGHT)
    NCLink_Data_Prase_Pilot_Status.data_cnt  0x20200494   Data           1  nclink.o(.bss.NCLink_Data_Prase_Pilot_Status.data_cnt)
    [Anonymous Symbol]                       0x20200494   Section        0  nclink.o(.bss.NCLink_Data_Prase_Pilot_Status.data_cnt)
    NCLink_Data_Prase_Pilot_Status.data_len  0x20200495   Data           1  nclink.o(.bss.NCLink_Data_Prase_Pilot_Status.data_len)
    [Anonymous Symbol]                       0x20200495   Section        0  nclink.o(.bss.NCLink_Data_Prase_Pilot_Status.data_len)
    NCLink_Data_Prase_Pilot_Status.fb_buf    0x20200496   Data         100  nclink.o(.bss.NCLink_Data_Prase_Pilot_Status.fb_buf)
    [Anonymous Symbol]                       0x20200496   Section        0  nclink.o(.bss.NCLink_Data_Prase_Pilot_Status.fb_buf)
    NCLink_Data_Prase_Pilot_Status.state     0x202004fa   Data           1  nclink.o(.bss.NCLink_Data_Prase_Pilot_Status.state)
    [Anonymous Symbol]                       0x202004fa   Section        0  nclink.o(.bss.NCLink_Data_Prase_Pilot_Status.state)
    OpticalFlow_Pos_Control_VIO.OpticalFlow_Pos_Ctrl_Cnt 0x202004fc   Data           2  user_ctrl.o(.bss.OpticalFlow_Pos_Control_VIO.OpticalFlow_Pos_Ctrl_Cnt)
    [Anonymous Symbol]                       0x202004fc   Section        0  user_ctrl.o(.bss.OpticalFlow_Pos_Control_VIO.OpticalFlow_Pos_Ctrl_Cnt)
    OpticalFlow_Vel_Control.OpticalFlow_Vel_Ctrl_Cnt 0x20200520   Data           2  user_ctrl.o(.bss.OpticalFlow_Vel_Control.OpticalFlow_Vel_Ctrl_Cnt)
    [Anonymous Symbol]                       0x20200520   Section        0  user_ctrl.o(.bss.OpticalFlow_Vel_Control.OpticalFlow_Vel_Ctrl_Cnt)
    TIMG0_IRQHandler._cnt                    0x20200548   Data           4  bsp_timer.o(.bss.TIMG0_IRQHandler._cnt)
    [Anonymous Symbol]                       0x20200548   Section        0  bsp_timer.o(.bss.TIMG0_IRQHandler._cnt)
    WIDTH                                    0x20201920   Data           2  ssd1306.o(.bss.WIDTH)
    [Anonymous Symbol]                       0x20201920   Section        0  ssd1306.o(.bss.WIDTH)
    _height                                  0x20201a06   Data           2  ssd1306.o(.bss._height)
    [Anonymous Symbol]                       0x20201a06   Section        0  ssd1306.o(.bss._height)
    _vccstate                                0x20201a08   Data           1  ssd1306.o(.bss._vccstate)
    [Anonymous Symbol]                       0x20201a08   Section        0  ssd1306.o(.bss._vccstate)
    _width                                   0x20201a0a   Data           2  ssd1306.o(.bss._width)
    [Anonymous Symbol]                       0x20201a0a   Section        0  ssd1306.o(.bss._width)
    cursor_x                                 0x20201aa0   Data           2  ssd1306.o(.bss.cursor_x)
    [Anonymous Symbol]                       0x20201aa0   Section        0  ssd1306.o(.bss.cursor_x)
    cursor_y                                 0x20201aa2   Data           2  ssd1306.o(.bss.cursor_y)
    [Anonymous Symbol]                       0x20201aa2   Section        0  ssd1306.o(.bss.cursor_y)
    eeprom_write_data                        0x20201aa4   Data          12  bsp_eeprom.o(.bss.eeprom_write_data)
    [Anonymous Symbol]                       0x20201aa4   Section        0  bsp_eeprom.o(.bss.eeprom_write_data)
    flight_subtask_1.n                       0x20201d2c   Data           1  subtask_demo.o(.bss.flight_subtask_1.n)
    [Anonymous Symbol]                       0x20201d2c   Section        0  subtask_demo.o(.bss.flight_subtask_1.n)
    pilot_msg_notify.cnt                     0x20202218   Data           1  nclink.o(.bss.pilot_msg_notify.cnt)
    [Anonymous Symbol]                       0x20202218   Section        0  nclink.o(.bss.pilot_msg_notify.cnt)
    planner_send_to_pilot.buf                0x2020223c   Data         100  developer_mode.o(.bss.planner_send_to_pilot.buf)
    [Anonymous Symbol]                       0x2020223c   Section        0  developer_mode.o(.bss.planner_send_to_pilot.buf)
    rotation                                 0x202022a0   Data           1  ssd1306.o(.bss.rotation)
    [Anonymous Symbol]                       0x202022a0   Section        0  ssd1306.o(.bss.rotation)
    textbgcolor                              0x202022c8   Data           2  ssd1306.o(.bss.textbgcolor)
    [Anonymous Symbol]                       0x202022c8   Section        0  ssd1306.o(.bss.textbgcolor)
    textcolor                                0x202022ca   Data           2  ssd1306.o(.bss.textcolor)
    [Anonymous Symbol]                       0x202022ca   Section        0  ssd1306.o(.bss.textcolor)
    textsize                                 0x202022cc   Data           1  ssd1306.o(.bss.textsize)
    [Anonymous Symbol]                       0x202022cc   Section        0  ssd1306.o(.bss.textsize)
    Heap_Mem                                 0x20202948   Data        1024  startup_mspm0g350x_uvision.o(HEAP)
    HEAP                                     0x20202948   Section     1024  startup_mspm0g350x_uvision.o(HEAP)
    Stack_Mem                                0x20202d48   Data        1024  startup_mspm0g350x_uvision.o(STACK)
    STACK                                    0x20202d48   Section     1024  startup_mspm0g350x_uvision.o(STACK)
    __initial_sp                             0x20203148   Data           0  startup_mspm0g350x_uvision.o(STACK)

    Global Symbols

    Symbol Name                              Value     Ov Type        Size  Object(Section)

    BuildAttributes$$THM_ISAv3M$S$PE$A:L22$X:L11$S22$IEEE1$IW$~IW$USESV6$~STKCKD$USESV7$~SHL$OTIME$ROPI$IEEEX$EBA8$UX$STANDARDLIB$REQ8$PRES8$EABIv2 0x00000000   Number         0  anon$$obj.o ABSOLUTE
    __Vectors                                0x00000000   Data           4  startup_mspm0g350x_uvision.o(RESET)
    __ARM_exceptions_init                     - Undefined Weak Reference
    __alloca_initialize                       - Undefined Weak Reference
    __arm_preinit_                            - Undefined Weak Reference
    __arm_relocate_pie_                       - Undefined Weak Reference
    __cpp_initialize__aeabi_                  - Undefined Weak Reference
    __cxa_finalize                            - Undefined Weak Reference
    __rt_locale                               - Undefined Weak Reference
    __sigvec_lookup                           - Undefined Weak Reference
    _atexit_init                              - Undefined Weak Reference
    _call_atexit_fns                          - Undefined Weak Reference
    _clock_init                               - Undefined Weak Reference
    _fp_trap_init                             - Undefined Weak Reference
    _fp_trap_shutdown                         - Undefined Weak Reference
    _get_lc_collate                           - Undefined Weak Reference
    _get_lc_ctype                             - Undefined Weak Reference
    _get_lc_monetary                          - Undefined Weak Reference
    _get_lc_numeric                           - Undefined Weak Reference
    _get_lc_time                              - Undefined Weak Reference
    _getenv_init                              - Undefined Weak Reference
    _handle_redirection                       - Undefined Weak Reference
    _init_alloc                               - Undefined Weak Reference
    _init_user_alloc                          - Undefined Weak Reference
    _initio                                   - Undefined Weak Reference
    _rand_init                                - Undefined Weak Reference
    _signal_finish                            - Undefined Weak Reference
    _signal_init                              - Undefined Weak Reference
    _terminate_alloc                          - Undefined Weak Reference
    _terminate_user_alloc                     - Undefined Weak Reference
    _terminateio                              - Undefined Weak Reference
    __Vectors_End                            0x000000c0   Data           0  startup_mspm0g350x_uvision.o(RESET)
    __Vectors_Size                           0x000000c0   Number         0  startup_mspm0g350x_uvision.o ABSOLUTE
    __main                                   0x000000c1   Thumb Code     8  __main.o(!!!main)
    __scatterload                            0x000000c9   Thumb Code     0  __scatter.o(!!!scatter)
    __scatterload_rt2                        0x000000c9   Thumb Code    74  __scatter.o(!!!scatter)
    __scatterload_rt2_thumb_only             0x000000c9   Thumb Code     0  __scatter.o(!!!scatter)
    __scatterload_loop                       0x000000d3   Thumb Code     0  __scatter.o(!!!scatter)
    __scatterload_null                       0x00000121   Thumb Code     2  __scatter.o(!!handler_null)
    __scatterload_zeroinit                   0x00000129   Thumb Code    28  __scatter_zi.o(!!handler_zi)
    __rt_lib_init                            0x00000145   Thumb Code     0  libinit.o(.ARM.Collect$$libinit$$00000000)
    __rt_lib_init_alloca_1                   0x00000147   Thumb Code     0  libinit2.o(.ARM.Collect$$libinit$$00000030)
    __rt_lib_init_argv_1                     0x00000147   Thumb Code     0  libinit2.o(.ARM.Collect$$libinit$$0000002E)
    __rt_lib_init_atexit_1                   0x00000147   Thumb Code     0  libinit2.o(.ARM.Collect$$libinit$$0000001D)
    __rt_lib_init_clock_1                    0x00000147   Thumb Code     0  libinit2.o(.ARM.Collect$$libinit$$00000023)
    __rt_lib_init_cpp_1                      0x00000147   Thumb Code     0  libinit2.o(.ARM.Collect$$libinit$$00000034)
    __rt_lib_init_exceptions_1               0x00000147   Thumb Code     0  libinit2.o(.ARM.Collect$$libinit$$00000032)
    __rt_lib_init_fp_1                       0x00000147   Thumb Code     0  libinit2.o(.ARM.Collect$$libinit$$00000002)
    __rt_lib_init_fp_trap_1                  0x00000147   Thumb Code     0  libinit2.o(.ARM.Collect$$libinit$$00000021)
    __rt_lib_init_getenv_1                   0x00000147   Thumb Code     0  libinit2.o(.ARM.Collect$$libinit$$00000025)
    __rt_lib_init_heap_1                     0x00000147   Thumb Code     0  libinit2.o(.ARM.Collect$$libinit$$0000000C)
    __rt_lib_init_lc_collate_1               0x00000147   Thumb Code     0  libinit2.o(.ARM.Collect$$libinit$$00000013)
    __rt_lib_init_lc_ctype_1                 0x00000147   Thumb Code     0  libinit2.o(.ARM.Collect$$libinit$$00000015)
    __rt_lib_init_lc_monetary_1              0x00000147   Thumb Code     0  libinit2.o(.ARM.Collect$$libinit$$00000017)
    __rt_lib_init_lc_numeric_1               0x00000147   Thumb Code     0  libinit2.o(.ARM.Collect$$libinit$$00000019)
    __rt_lib_init_lc_time_1                  0x00000147   Thumb Code     0  libinit2.o(.ARM.Collect$$libinit$$0000001B)
    __rt_lib_init_preinit_1                  0x00000147   Thumb Code     0  libinit2.o(.ARM.Collect$$libinit$$00000006)
    __rt_lib_init_rand_1                     0x00000147   Thumb Code     0  libinit2.o(.ARM.Collect$$libinit$$00000010)
    __rt_lib_init_relocate_pie_1             0x00000147   Thumb Code     0  libinit2.o(.ARM.Collect$$libinit$$00000004)
    __rt_lib_init_return                     0x00000147   Thumb Code     0  libinit2.o(.ARM.Collect$$libinit$$00000035)
    __rt_lib_init_signal_1                   0x00000147   Thumb Code     0  libinit2.o(.ARM.Collect$$libinit$$0000001F)
    __rt_lib_init_stdio_1                    0x00000147   Thumb Code     0  libinit2.o(.ARM.Collect$$libinit$$00000027)
    __rt_lib_init_user_alloc_1               0x00000147   Thumb Code     0  libinit2.o(.ARM.Collect$$libinit$$0000000E)
    __rt_lib_shutdown                        0x00000149   Thumb Code     0  libshutdown.o(.ARM.Collect$$libshutdown$$00000000)
    __rt_lib_shutdown_cpp_1                  0x0000014b   Thumb Code     0  libshutdown2.o(.ARM.Collect$$libshutdown$$00000002)
    __rt_lib_shutdown_fp_trap_1              0x0000014b   Thumb Code     0  libshutdown2.o(.ARM.Collect$$libshutdown$$00000007)
    __rt_lib_shutdown_heap_1                 0x0000014b   Thumb Code     0  libshutdown2.o(.ARM.Collect$$libshutdown$$0000000F)
    __rt_lib_shutdown_return                 0x0000014b   Thumb Code     0  libshutdown2.o(.ARM.Collect$$libshutdown$$00000010)
    __rt_lib_shutdown_signal_1               0x0000014b   Thumb Code     0  libshutdown2.o(.ARM.Collect$$libshutdown$$0000000A)
    __rt_lib_shutdown_stdio_1                0x0000014b   Thumb Code     0  libshutdown2.o(.ARM.Collect$$libshutdown$$00000004)
    __rt_lib_shutdown_user_alloc_1           0x0000014b   Thumb Code     0  libshutdown2.o(.ARM.Collect$$libshutdown$$0000000C)
    __rt_entry                               0x0000014d   Thumb Code     0  __rtentry.o(.ARM.Collect$$rtentry$$00000000)
    __rt_entry_presh_1                       0x0000014d   Thumb Code     0  __rtentry2.o(.ARM.Collect$$rtentry$$00000002)
    __rt_entry_sh                            0x0000014d   Thumb Code     0  __rtentry4.o(.ARM.Collect$$rtentry$$00000004)
    __rt_entry_li                            0x00000153   Thumb Code     0  __rtentry2.o(.ARM.Collect$$rtentry$$0000000A)
    __rt_entry_postsh_1                      0x00000153   Thumb Code     0  __rtentry2.o(.ARM.Collect$$rtentry$$00000009)
    __rt_entry_main                          0x00000157   Thumb Code     0  __rtentry2.o(.ARM.Collect$$rtentry$$0000000D)
    __rt_entry_postli_1                      0x00000157   Thumb Code     0  __rtentry2.o(.ARM.Collect$$rtentry$$0000000C)
    __rt_exit                                0x0000015f   Thumb Code     0  rtexit.o(.ARM.Collect$$rtexit$$00000000)
    __rt_exit_ls                             0x00000161   Thumb Code     0  rtexit2.o(.ARM.Collect$$rtexit$$00000003)
    __rt_exit_prels_1                        0x00000161   Thumb Code     0  rtexit2.o(.ARM.Collect$$rtexit$$00000002)
    __rt_exit_exit                           0x00000165   Thumb Code     0  rtexit2.o(.ARM.Collect$$rtexit$$00000004)
    Reset_Handler                            0x0000016d   Thumb Code     4  startup_mspm0g350x_uvision.o(.text)
    NMI_Handler                              0x00000171   Thumb Code     2  startup_mspm0g350x_uvision.o(.text)
    HardFault_Handler                        0x00000173   Thumb Code     2  startup_mspm0g350x_uvision.o(.text)
    SVC_Handler                              0x00000175   Thumb Code     2  startup_mspm0g350x_uvision.o(.text)
    PendSV_Handler                           0x00000177   Thumb Code     2  startup_mspm0g350x_uvision.o(.text)
    ADC0_IRQHandler                          0x0000017b   Thumb Code     0  startup_mspm0g350x_uvision.o(.text)
    ADC1_IRQHandler                          0x0000017b   Thumb Code     0  startup_mspm0g350x_uvision.o(.text)
    AES_IRQHandler                           0x0000017b   Thumb Code     0  startup_mspm0g350x_uvision.o(.text)
    CANFD0_IRQHandler                        0x0000017b   Thumb Code     0  startup_mspm0g350x_uvision.o(.text)
    DAC0_IRQHandler                          0x0000017b   Thumb Code     0  startup_mspm0g350x_uvision.o(.text)
    DMA_IRQHandler                           0x0000017b   Thumb Code     0  startup_mspm0g350x_uvision.o(.text)
    Default_Handler                          0x0000017b   Thumb Code     2  startup_mspm0g350x_uvision.o(.text)
    GROUP0_IRQHandler                        0x0000017b   Thumb Code     0  startup_mspm0g350x_uvision.o(.text)
    GROUP1_IRQHandler                        0x0000017b   Thumb Code     0  startup_mspm0g350x_uvision.o(.text)
    I2C0_IRQHandler                          0x0000017b   Thumb Code     0  startup_mspm0g350x_uvision.o(.text)
    I2C1_IRQHandler                          0x0000017b   Thumb Code     0  startup_mspm0g350x_uvision.o(.text)
    RTC_IRQHandler                           0x0000017b   Thumb Code     0  startup_mspm0g350x_uvision.o(.text)
    SPI0_IRQHandler                          0x0000017b   Thumb Code     0  startup_mspm0g350x_uvision.o(.text)
    SPI1_IRQHandler                          0x0000017b   Thumb Code     0  startup_mspm0g350x_uvision.o(.text)
    TIMA0_IRQHandler                         0x0000017b   Thumb Code     0  startup_mspm0g350x_uvision.o(.text)
    TIMA1_IRQHandler                         0x0000017b   Thumb Code     0  startup_mspm0g350x_uvision.o(.text)
    TIMG12_IRQHandler                        0x0000017b   Thumb Code     0  startup_mspm0g350x_uvision.o(.text)
    TIMG7_IRQHandler                         0x0000017b   Thumb Code     0  startup_mspm0g350x_uvision.o(.text)
    TIMG8_IRQHandler                         0x0000017b   Thumb Code     0  startup_mspm0g350x_uvision.o(.text)
    __user_initial_stackheap                 0x0000017d   Thumb Code    10  startup_mspm0g350x_uvision.o(.text)
    _memset_w                                0x0000019d   Thumb Code    26  rt_memclr.o(.text)
    _memset                                  0x000001b7   Thumb Code    30  rt_memclr.o(.text)
    __aeabi_memclr                           0x000001d5   Thumb Code     4  rt_memclr.o(.text)
    __rt_memclr                              0x000001d5   Thumb Code     0  rt_memclr.o(.text)
    __aeabi_memclr4                          0x000001d9   Thumb Code     0  rt_memclr.o(.text)
    __aeabi_memclr8                          0x000001d9   Thumb Code     0  rt_memclr.o(.text)
    __rt_memclr_w                            0x000001d9   Thumb Code     4  rt_memclr.o(.text)
    __aeabi_uidiv                            0x000001dd   Thumb Code     0  aeabi_sdiv.o(.text)
    __aeabi_uidivmod                         0x000001dd   Thumb Code    20  aeabi_sdiv.o(.text)
    __aeabi_idiv                             0x000001f1   Thumb Code     0  aeabi_sdiv.o(.text)
    __aeabi_idivmod                          0x000001f1   Thumb Code   338  aeabi_sdiv.o(.text)
    __use_two_region_memory                  0x00000349   Thumb Code     2  heapauxi.o(.text)
    __rt_heap_escrow$2region                 0x0000034b   Thumb Code     2  heapauxi.o(.text)
    __rt_heap_expand$2region                 0x0000034d   Thumb Code     2  heapauxi.o(.text)
    __aeabi_f2d                              0x00000351   Thumb Code     0  f2d.o(.text)
    _f2d                                     0x00000351   Thumb Code    80  f2d.o(.text)
    __aeabi_fdiv                             0x000003a5   Thumb Code     0  fdiv.o(.text)
    _fdiv                                    0x000003a5   Thumb Code   334  fdiv.o(.text)
    _frdiv                                   0x000004f3   Thumb Code     8  fdiv.o(.text)
    __aeabi_f2iz                             0x00000505   Thumb Code     0  ffixi.o(.text)
    _ffix                                    0x00000505   Thumb Code    76  ffixi.o(.text)
    __aeabi_i2f_normalise                    0x00000551   Thumb Code    72  fflti.o(.text)
    __aeabi_i2f                              0x00000599   Thumb Code    16  fflti.o(.text)
    _fflt                                    0x00000599   Thumb Code     0  fflti.o(.text)
    __aeabi_ui2f                             0x000005a9   Thumb Code     6  fflti.o(.text)
    _ffltu                                   0x000005a9   Thumb Code     0  fflti.o(.text)
    __read_errno                             0x000005af   Thumb Code    10  _rserrno.o(.text)
    __set_errno                              0x000005b9   Thumb Code    12  _rserrno.o(.text)
    _frnd                                    0x000005c5   Thumb Code   122  frnd.o(.text)
    __ARM_scalbnf                            0x00000645   Thumb Code    64  fscalbn.o(.text)
    _fsqrt                                   0x00000689   Thumb Code   140  fsqrt.o(.text)
    __aeabi_errno_addr                       0x00000719   Thumb Code     8  rt_errno_addr_intlibspace.o(.text)
    __errno$intlibspace                      0x00000719   Thumb Code     0  rt_errno_addr_intlibspace.o(.text)
    __rt_errno_addr$intlibspace              0x00000719   Thumb Code     0  rt_errno_addr_intlibspace.o(.text)
    __fpl_fcmp_InfNaN                        0x00000721   Thumb Code    96  fcmpin.o(.text)
    __user_libspace                          0x00000785   Thumb Code     8  libspace.o(.text)
    __user_perproc_libspace                  0x00000785   Thumb Code     0  libspace.o(.text)
    __user_perthread_libspace                0x00000785   Thumb Code     0  libspace.o(.text)
    __user_setup_stackheap                   0x0000078d   Thumb Code    62  sys_stackheap_outer.o(.text)
    exit                                     0x000007cb   Thumb Code    16  exit.o(.text)
    __fpl_cmpreturn                          0x000007db   Thumb Code    46  cmpret.o(.text)
    __fpl_fcheck_NaN2                        0x00000809   Thumb Code    10  fnan2.o(.text)
    __fpl_return_NaN                         0x00000819   Thumb Code    94  retnan.o(.text)
    _sys_exit                                0x00000879   Thumb Code     8  sys_exit.o(.text)
    __I$use$semihosting                      0x00000885   Thumb Code     0  use_no_semi.o(.text)
    __use_no_semihosting_swi                 0x00000885   Thumb Code     2  use_no_semi.o(.text)
    __decompress                             0x00000887   Thumb Code     0  __dczerorl.o(.text)
    __decompress0                            0x00000887   Thumb Code    58  __dczerorl.o(.text)
    __semihosting_library_function           0x00000887   Thumb Code     0  indicate_semi.o(.text)
    AT24CXX_Check                            0x000008c1   Thumb Code    88  bsp_eeprom.o(.text.AT24CXX_Check)
    AT24CXX_Erase_All                        0x00000919   Thumb Code    56  bsp_eeprom.o(.text.AT24CXX_Erase_All)
    AT24CXX_Init                             0x00000955   Thumb Code    28  bsp_eeprom.o(.text.AT24CXX_Init)
    AT24CXX_ReadOneByte                      0x00000971   Thumb Code    92  bsp_eeprom.o(.text.AT24CXX_ReadOneByte)
    AT24CXX_WriteOneByte                     0x000009cd   Thumb Code    78  bsp_eeprom.o(.text.AT24CXX_WriteOneByte)
    Air_Ground_Extinguish_Fire_System_Basic  0x00000a1d   Thumb Code   888  subtask_demo.o(.text.Air_Ground_Extinguish_Fire_System_Basic)
    Auto_Flight_Ctrl                         0x00000dcd   Thumb Code   416  developer_mode.o(.text.Auto_Flight_Ctrl)
    Auto_Takeoff                             0x00000f89   Thumb Code   248  subtask_demo.o(.text.Auto_Takeoff)
    Bling_Process                            0x0000109d   Thumb Code   168  bsp_led.o(.text.Bling_Process)
    Bling_Set                                0x00001145   Thumb Code    86  bsp_led.o(.text.Bling_Set)
    Bling_Working                            0x0000119d   Thumb Code    92  bsp_led.o(.text.Bling_Working)
    Byte2Float                               0x00001209   Thumb Code    68  nclink.o(.text.Byte2Float)
    DL_Common_delayCycles                    0x0000127d   Thumb Code    20  dl_common.o(.text.DL_Common_delayCycles)
    DL_I2C_setClockConfig                    0x000016f9   Thumb Code    48  dl_i2c.o(.text.DL_I2C_setClockConfig)
    DL_SPI_init                              0x000017b9   Thumb Code    64  dl_spi.o(.text.DL_SPI_init)
    DL_SPI_setClockConfig                    0x00001869   Thumb Code    32  dl_spi.o(.text.DL_SPI_setClockConfig)
    DL_SYSCTL_configSYSPLL                   0x000018d5   Thumb Code   208  dl_sysctl_mspm0g1x0x_g3x0x.o(.text.DL_SYSCTL_configSYSPLL)
    DL_SYSCTL_setHFCLKSourceHFXTParams       0x00001a99   Thumb Code    96  dl_sysctl_mspm0g1x0x_g3x0x.o(.text.DL_SYSCTL_setHFCLKSourceHFXTParams)
    DL_SYSCTL_switchMCLKfromSYSOSCtoHSCLK    0x00001b9d   Thumb Code    72  dl_sysctl_mspm0g1x0x_g3x0x.o(.text.DL_SYSCTL_switchMCLKfromSYSOSCtoHSCLK)
    DL_TimerA_initPWMMode                    0x00001be9   Thumb Code   234  dl_timer.o(.text.DL_TimerA_initPWMMode)
    DL_Timer_initPWMMode                     0x00001d31   Thumb Code   260  dl_timer.o(.text.DL_Timer_initPWMMode)
    DL_Timer_initTimerMode                   0x00001e3d   Thumb Code   252  dl_timer.o(.text.DL_Timer_initTimerMode)
    DL_Timer_setCaptCompUpdateMethod         0x00001f5d   Thumb Code    48  dl_timer.o(.text.DL_Timer_setCaptCompUpdateMethod)
    DL_Timer_setCaptureCompareAction         0x00001f8d   Thumb Code    44  dl_timer.o(.text.DL_Timer_setCaptureCompareAction)
    DL_Timer_setCaptureCompareCtl            0x00001fc1   Thumb Code    52  dl_timer.o(.text.DL_Timer_setCaptureCompareCtl)
    DL_Timer_setCaptureCompareInput          0x00001ffd   Thumb Code    52  dl_timer.o(.text.DL_Timer_setCaptureCompareInput)
    DL_Timer_setCaptureCompareOutCtl         0x00002031   Thumb Code    60  dl_timer.o(.text.DL_Timer_setCaptureCompareOutCtl)
    DL_Timer_setCaptureCompareValue          0x00002071   Thumb Code    40  dl_timer.o(.text.DL_Timer_setCaptureCompareValue)
    DL_Timer_setClockConfig                  0x0000209d   Thumb Code    44  dl_timer.o(.text.DL_Timer_setClockConfig)
    DL_UART_init                             0x000021bd   Thumb Code    68  dl_uart.o(.text.DL_UART_init)
    DL_UART_setClockConfig                   0x00002295   Thumb Code    32  dl_uart.o(.text.DL_UART_setClockConfig)
    DL_UART_transmitDataBlocking             0x000022ed   Thumb Code    40  dl_uart.o(.text.DL_UART_transmitDataBlocking)
    Delay_Ms                                 0x00002315   Thumb Code    16  systick.o(.text.Delay_Ms)
    Desired_Accel_Transform_Angle            0x00002325   Thumb Code   132  user_ctrl.o(.text.Desired_Accel_Transform_Angle)
    Draw_Logo                                0x000023b9   Thumb Code   104  drv_oled.o(.text.Draw_Logo)
    FastAtan2                                0x00002425   Thumb Code   512  wp_math.o(.text.FastAtan2)
    FastCos                                  0x00002655   Thumb Code   204  wp_math.o(.text.FastCos)
    FastSin                                  0x00002721   Thumb Code   196  wp_math.o(.text.FastSin)
    Flight_Alt_Hold_Control                  0x000027f1   Thumb Code   160  user_ctrl.o(.text.Flight_Alt_Hold_Control)
    Float2Byte                               0x000028ad   Thumb Code   132  nclink.o(.text.Float2Byte)
    Get_Status_Feedback_lite                 0x00002935   Thumb Code   200  sensor.o(.text.Get_Status_Feedback_lite)
    Horizontal_Control_VIO                   0x00002a01   Thumb Code    68  user_ctrl.o(.text.Horizontal_Control_VIO)
    Horizontal_Navigation                    0x00002a4d   Thumb Code   252  user_ctrl.o(.text.Horizontal_Navigation)
    Key_Init                                 0x00002b81   Thumb Code   104  key.o(.text.Key_Init)
    Key_Scan                                 0x00002bf1   Thumb Code   144  key.o(.text.Key_Scan)
    LCD_P6x8Char                             0x00002c89   Thumb Code   120  drv_oled.o(.text.LCD_P6x8Char)
    LCD_P6x8Str                              0x00002d01   Thumb Code   172  drv_oled.o(.text.LCD_P6x8Str)
    LCD_clear_L                              0x00002db1   Thumb Code    84  drv_oled.o(.text.LCD_clear_L)
    NCLink_Data_Prase_Pilot_Status           0x00002e05   Thumb Code  1048  nclink.o(.text.NCLink_Data_Prase_Pilot_Status)
    Navigation_User_Setpoint                 0x00003259   Thumb Code   712  subtask_demo.o(.text.Navigation_User_Setpoint)
    OLED_CLS                                 0x00003559   Thumb Code    96  drv_oled.o(.text.OLED_CLS)
    OLED_Fill                                0x000035b9   Thumb Code   102  drv_oled.o(.text.OLED_Fill)
    OLED_Set_Pos                             0x0000361f   Thumb Code    54  drv_oled.o(.text.OLED_Set_Pos)
    OLED_WrCmd                               0x00003655   Thumb Code   116  drv_oled.o(.text.OLED_WrCmd)
    OLED_WrDat                               0x000036c9   Thumb Code   108  drv_oled.o(.text.OLED_WrDat)
    OpticalFlow_Ctrl_Reset                   0x00003745   Thumb Code    40  user_ctrl.o(.text.OpticalFlow_Ctrl_Reset)
    OpticalFlow_Pos_Control_VIO              0x00003775   Thumb Code   172  user_ctrl.o(.text.OpticalFlow_Pos_Control_VIO)
    OpticalFlow_Vel_Control                  0x00003835   Thumb Code   408  user_ctrl.o(.text.OpticalFlow_Vel_Control)
    PID_Control                              0x00003a01   Thumb Code   580  pid.o(.text.PID_Control)
    PID_Init                                 0x00003c55   Thumb Code   324  pid.o(.text.PID_Init)
    Quad_Start_Bling                         0x00003d9d   Thumb Code    96  bsp_led.o(.text.Quad_Start_Bling)
    ReadFlashParameterOne                    0x00003e11   Thumb Code    32  bsp_eeprom.o(.text.ReadFlashParameterOne)
    Read_Button_State_All                    0x00003e31   Thumb Code    52  key.o(.text.Read_Button_State_All)
    Read_Button_State_One                    0x00003e69   Thumb Code   380  key.o(.text.Read_Button_State_One)
    Reserved_Params_Init                     0x00003fed   Thumb Code   104  subtask_demo.o(.text.Reserved_Params_Init)
    SDK_Init                                 0x00004059   Thumb Code    92  developer_mode.o(.text.SDK_Init)
    SYSCFG_DL_GPIO_init                      0x00004365   Thumb Code   552  ti_msp_dl_config.o(.text.SYSCFG_DL_GPIO_init)
    SYSCFG_DL_I2C_0_init                     0x000045a9   Thumb Code    80  ti_msp_dl_config.o(.text.SYSCFG_DL_I2C_0_init)
    SYSCFG_DL_PWM_0_init                     0x00004601   Thumb Code   192  ti_msp_dl_config.o(.text.SYSCFG_DL_PWM_0_init)
    SYSCFG_DL_PWM_1_init                     0x000046cd   Thumb Code   116  ti_msp_dl_config.o(.text.SYSCFG_DL_PWM_1_init)
    SYSCFG_DL_PWM_2_init                     0x0000474d   Thumb Code   116  ti_msp_dl_config.o(.text.SYSCFG_DL_PWM_2_init)
    SYSCFG_DL_SPI_0_init                     0x000047cd   Thumb Code    52  ti_msp_dl_config.o(.text.SYSCFG_DL_SPI_0_init)
    SYSCFG_DL_SYSCTL_CLK_init                0x00004809   Thumb Code    24  ti_msp_dl_config.o(.text.SYSCFG_DL_SYSCTL_CLK_init)
    SYSCFG_DL_SYSCTL_init                    0x00004825   Thumb Code    92  ti_msp_dl_config.o(.text.SYSCFG_DL_SYSCTL_init)
    SYSCFG_DL_SYSTICK_init                   0x00004885   Thumb Code    12  ti_msp_dl_config.o(.text.SYSCFG_DL_SYSTICK_init)
    SYSCFG_DL_TIMER_1_init                   0x00004895   Thumb Code    48  ti_msp_dl_config.o(.text.SYSCFG_DL_TIMER_1_init)
    SYSCFG_DL_TIMER_2_init                   0x000048cd   Thumb Code    48  ti_msp_dl_config.o(.text.SYSCFG_DL_TIMER_2_init)
    SYSCFG_DL_UART_0_init                    0x00004905   Thumb Code    72  ti_msp_dl_config.o(.text.SYSCFG_DL_UART_0_init)
    SYSCFG_DL_UART_1_init                    0x00004955   Thumb Code    60  ti_msp_dl_config.o(.text.SYSCFG_DL_UART_1_init)
    SYSCFG_DL_UART_2_init                    0x00004999   Thumb Code    60  ti_msp_dl_config.o(.text.SYSCFG_DL_UART_2_init)
    SYSCFG_DL_UART_3_init                    0x000049dd   Thumb Code    60  ti_msp_dl_config.o(.text.SYSCFG_DL_UART_3_init)
    SYSCFG_DL_init                           0x00004a21   Thumb Code   104  ti_msp_dl_config.o(.text.SYSCFG_DL_init)
    SYSCFG_DL_initPower                      0x00004aa1   Thumb Code   196  ti_msp_dl_config.o(.text.SYSCFG_DL_initPower)
    SysTick_Handler                          0x00004bd5   Thumb Code    12  systick.o(.text.SysTick_Handler)
    TIMG0_IRQHandler                         0x00004be5   Thumb Code    68  bsp_timer.o(.text.TIMG0_IRQHandler)
    TIMG6_IRQHandler                         0x00004c41   Thumb Code    28  bsp_timer.o(.text.TIMG6_IRQHandler)
    Total_PID_Init                           0x00004c65   Thumb Code   116  pid.o(.text.Total_PID_Init)
    UART0_IRQHandler                         0x00004d05   Thumb Code    60  bsp_usart.o(.text.UART0_IRQHandler)
    UART1_IRQHandler                         0x00004d41   Thumb Code    36  bsp_usart.o(.text.UART1_IRQHandler)
    UART2_IRQHandler                         0x00004d69   Thumb Code    36  bsp_usart.o(.text.UART2_IRQHandler)
    UART3_IRQHandler                         0x00004d95   Thumb Code    36  bsp_usart.o(.text.UART3_IRQHandler)
    W25Q64_erase_sector                      0x00004dbd   Thumb Code    84  w25qxx.o(.text.W25Q64_erase_sector)
    W25Q64_read                              0x00004e11   Thumb Code   116  w25qxx.o(.text.W25Q64_read)
    W25Q64_readID                            0x00004e89   Thumb Code   104  w25qxx.o(.text.W25Q64_readID)
    W25Q64_wait_busy                         0x00004ef1   Thumb Code    72  w25qxx.o(.text.W25Q64_wait_busy)
    W25Q64_write_enable                      0x00004f39   Thumb Code    36  w25qxx.o(.text.W25Q64_write_enable)
    W25Q64_write_page                        0x00004f5d   Thumb Code   124  w25qxx.o(.text.W25Q64_write_page)
    W25QXX_Erase_Chip                        0x00004fd9   Thumb Code    48  w25qxx.o(.text.W25QXX_Erase_Chip)
    W25QXX_PowerDown                         0x00005009   Thumb Code    44  w25qxx.o(.text.W25QXX_PowerDown)
    W25QXX_Read_f                            0x00005035   Thumb Code    78  w25qxx.o(.text.W25QXX_Read_f)
    W25QXX_WAKEUP                            0x00005085   Thumb Code    44  w25qxx.o(.text.W25QXX_WAKEUP)
    W25QXX_Write                             0x000050b5   Thumb Code   328  w25qxx.o(.text.W25QXX_Write)
    W25QXX_Write_NoCheck                     0x00005209   Thumb Code   142  w25qxx.o(.text.W25QXX_Write_NoCheck)
    W25QXX_Write_f                           0x00005297   Thumb Code    78  w25qxx.o(.text.W25QXX_Write_f)
    WriteFlashParameter                      0x000052e5   Thumb Code    36  bsp_eeprom.o(.text.WriteFlashParameter)
    basic_auto_flight_support                0x00005499   Thumb Code    36  subtask_demo.o(.text.basic_auto_flight_support)
    bsp_eeprom_init                          0x000054bd   Thumb Code     8  bsp_eeprom.o(.text.bsp_eeprom_init)
    buzzer_setup                             0x000054c5   Thumb Code    40  drv_expand.o(.text.buzzer_setup)
    constrain_float                          0x000054f1   Thumb Code   130  wp_math.o(.text.constrain_float)
    constrain_int32                          0x00005573   Thumb Code    58  wp_math.o(.text.constrain_int32)
    delay                                    0x000055ad   Thumb Code    22  systick.o(.text.delay)
    delayMicroseconds                        0x000055c3   Thumb Code    36  systick.o(.text.delayMicroseconds)
    delay_ms                                 0x000055e7   Thumb Code    16  systick.o(.text.delay_ms)
    delay_us                                 0x000055f7   Thumb Code    16  systick.o(.text.delay_us)
    display_6_8_number                       0x00005607   Thumb Code    32  drv_oled.o(.text.display_6_8_number)
    display_6_8_string                       0x00005627   Thumb Code    32  drv_oled.o(.text.display_6_8_string)
    flight_subtask_1                         0x00005649   Thumb Code   232  subtask_demo.o(.text.flight_subtask_1)
    flight_subtask_3                         0x00005739   Thumb Code   236  subtask_demo.o(.text.flight_subtask_3)
    flight_subtask_5                         0x00005839   Thumb Code   508  subtask_demo.o(.text.flight_subtask_5)
    flight_subtask_7                         0x00005a49   Thumb Code   740  subtask_demo.o(.text.flight_subtask_7)
    flight_subtask_8                         0x00005d45   Thumb Code   336  subtask_demo.o(.text.flight_subtask_8)
    flight_subtask_reset                     0x00005eb9   Thumb Code    72  subtask_demo.o(.text.flight_subtask_reset)
    from_body_to_nav_frame                   0x00005f11   Thumb Code   124  wp_math.o(.text.from_body_to_nav_frame)
    from_vio_to_body_frame                   0x00005f8d   Thumb Code   132  wp_math.o(.text.from_vio_to_body_frame)
    get_systime                              0x00006015   Thumb Code    72  systick.o(.text.get_systime)
    laser_light_work                         0x00006061   Thumb Code   166  drv_expand.o(.text.laser_light_work)
    led_gpio_config                          0x00006109   Thumb Code    48  bsp_led.o(.text.led_gpio_config)
    main                                     0x00006139   Thumb Code    76  main.o(.text.main)
    maple_duty_200hz                         0x00006189   Thumb Code    48  main.o(.text.maple_duty_200hz)
    micros                                   0x000061c9   Thumb Code    48  systick.o(.text.micros)
    millis                                   0x00006205   Thumb Code    16  systick.o(.text.millis)
    oled_init                                0x00006215   Thumb Code    64  drv_oled.o(.text.oled_init)
    oled_page_show                           0x00006259   Thumb Code  8008  key.o(.text.oled_page_show)
    pilot_msg_notify                         0x000081d5   Thumb Code    68  nclink.o(.text.pilot_msg_notify)
    planner_send_to_pilot                    0x00008225   Thumb Code   408  developer_mode.o(.text.planner_send_to_pilot)
    pythagorous2                             0x000083d5   Thumb Code    38  wp_math.o(.text.pythagorous2)
    pythagorous3                             0x000083fb   Thumb Code    56  wp_math.o(.text.pythagorous3)
    quaternion_to_euler                      0x00008435   Thumb Code   396  quaternion.o(.text.quaternion_to_euler)
    reserved_io_init                         0x000085c9   Thumb Code    76  drv_expand.o(.text.reserved_io_init)
    set_cutoff_frequency                     0x0000862d   Thumb Code   244  filter.o(.text.set_cutoff_frequency)
    spi_read_write_byte                      0x0000872d   Thumb Code    44  w25qxx.o(.text.spi_read_write_byte)
    sq                                       0x0000875d   Thumb Code    18  wp_math.o(.text.sq)
    ssd1306_begin                            0x00008771   Thumb Code   316  ssd1306.o(.text.ssd1306_begin)
    ssd1306_command                          0x000088e5   Thumb Code    20  ssd1306.o(.text.ssd1306_command)
    timer_irq_config                         0x000088f9   Thumb Code    48  bsp_timer.o(.text.timer_irq_config)
    timer_pwm_config                         0x00008931   Thumb Code    24  bsp_timer.o(.text.timer_pwm_config)
    usart0_send_bytes                        0x00008955   Thumb Code    44  bsp_usart.o(.text.usart0_send_bytes)
    usart_irq_config                         0x00008981   Thumb Code   100  bsp_usart.o(.text.usart_irq_config)
    user_setpoint_generate                   0x000089f5   Thumb Code   276  subtask_demo.o(.text.user_setpoint_generate)
    w25qxx_erase_all                         0x00008b15   Thumb Code    14  w25qxx.o(.text.w25qxx_erase_all)
    w25qxx_gpio_init                         0x00008b25   Thumb Code    48  w25qxx.o(.text.w25qxx_gpio_init)
    write_6_8_number                         0x00008b5d   Thumb Code  1120  drv_oled.o(.text.write_6_8_number)
    write_6_8_number_f1                      0x00008ff5   Thumb Code  1024  drv_oled.o(.text.write_6_8_number_f1)
    __ARM_common_ll_muluu                    0x0000942d   Thumb Code    50  rredf.o(i.__ARM_common_ll_muluu)
    __ARM_fpclassifyf                        0x0000945f   Thumb Code    34  fpclassifyf.o(i.__ARM_fpclassifyf)
    __mathlib_flt_infnan                     0x00009481   Thumb Code    10  funder.o(i.__mathlib_flt_infnan)
    __mathlib_flt_infnan2                    0x0000948b   Thumb Code     8  funder.o(i.__mathlib_flt_infnan2)
    __mathlib_flt_invalid                    0x00009493   Thumb Code    12  funder.o(i.__mathlib_flt_invalid)
    __mathlib_flt_underflow                  0x0000949f   Thumb Code    14  funder.o(i.__mathlib_flt_underflow)
    __mathlib_rredf2                         0x000094ad   Thumb Code   366  rredf.o(i.__mathlib_rredf2)
    __aeabi_fcmpeq                           0x0000962d   Thumb Code     0  fcmp.o(i._feq)
    _feq                                     0x0000962d   Thumb Code    22  fcmp.o(i._feq)
    __aeabi_fcmpge                           0x00009643   Thumb Code     0  fcmp.o(i._fgeq)
    _fgeq                                    0x00009643   Thumb Code    22  fcmp.o(i._fgeq)
    __aeabi_fcmpgt                           0x00009659   Thumb Code     0  fcmp.o(i._fgr)
    _fgr                                     0x00009659   Thumb Code    22  fcmp.o(i._fgr)
    __aeabi_fcmple                           0x0000966f   Thumb Code     0  fcmp.o(i._fleq)
    _fleq                                    0x0000966f   Thumb Code    26  fcmp.o(i._fleq)
    __aeabi_fcmplt                           0x00009689   Thumb Code     0  fcmp.o(i._fls)
    _fls                                     0x00009689   Thumb Code    22  fcmp.o(i._fls)
    asinf                                    0x000096a1   Thumb Code   242  asinf.o(i.asinf)
    atan2f                                   0x000097b9   Thumb Code   592  atan2f.o(i.atan2f)
    atanf                                    0x00009a55   Thumb Code   296  atanf.o(i.atanf)
    cosf                                     0x00009bb5   Thumb Code   318  cosf.o(i.cosf)
    sqrtf                                    0x00009d2d   Thumb Code    44  sqrtf.o(i.sqrtf)
    tanf                                     0x00009d59   Thumb Code   312  tanf.o(i.tanf)
    __aeabi_fadd                             0x00009ec9   Thumb Code     0  faddsub.o(x$fpl$fadd)
    _fadd                                    0x00009ec9   Thumb Code   134  faddsub.o(x$fpl$fadd)
    __aeabi_cfcmpeq                          0x00009f55   Thumb Code     0  feqf.o(x$fpl$feqf)
    _fcmpeq                                  0x00009f55   Thumb Code    78  feqf.o(x$fpl$feqf)
    _fcmpge                                  0x00009fa9   Thumb Code    78  fgef.o(x$fpl$fgeqf)
    __aeabi_cfcmple                          0x00009ffd   Thumb Code     0  flef.o(x$fpl$fleqf)
    _fcmple                                  0x00009ffd   Thumb Code    78  flef.o(x$fpl$fleqf)
    __aeabi_fmul                             0x0000a051   Thumb Code     0  fmul.o(x$fpl$fmul)
    _fmul                                    0x0000a051   Thumb Code   172  fmul.o(x$fpl$fmul)
    __aeabi_frsub                            0x0000a101   Thumb Code     0  faddsub.o(x$fpl$frsb)
    _frsb                                    0x0000a101   Thumb Code    24  faddsub.o(x$fpl$frsb)
    __aeabi_fsub                             0x0000a119   Thumb Code     0  faddsub.o(x$fpl$fsub)
    _fsub                                    0x0000a119   Thumb Code   204  faddsub.o(x$fpl$fsub)
    __I$use$fp                               0x0000a1e8   Number         0  usenofp.o(x$fpl$usenofp)
    Control_Unit                             0x0000a248   Data         320  pid.o(.rodata.Control_Unit)
    F6x8                                     0x0000a388   Data         552  drv_oled.o(.rodata.F6x8)
    NC_Logo                                  0x0000a5c0   Data        1024  drv_oled.o(.rodata.NC_Logo)
    block_center_coordinate                  0x0000a9c0   Data          24  subtask_demo.o(.rodata.block_center_coordinate)
    sinTable                                 0x0000aa94   Data        2052  wp_math.o(.rodata.sinTable)
    uav_home_center_coordinate               0x0000b3ca   Data           4  subtask_demo.o(.rodata.uav_home_center_coordinate)
    Region$$Table$$Base                      0x0000b3d0   Number         0  anon$$obj.o(Region$$Table)
    Region$$Table$$Limit                     0x0000b3f0   Number         0  anon$$obj.o(Region$$Table)
    NCLink_End                               0x20200002   Data           2  nclink.o(.data.NCLink_End)
    NCLink_Head                              0x20200004   Data           2  nclink.o(.data.NCLink_Head)
    OpticalFlow_Pos_Ctrl_Recode              0x20200007   Data           1  user_ctrl.o(.data.OpticalFlow_Pos_Ctrl_Recode)
    param_value                              0x20200014   Data         800  nclink.o(.data.param_value)
    task_select_cnt                          0x20200334   Data           2  developer_mode.o(.data.task_select_cnt)
    __libspace_start                         0x20200338   Data          96  libspace.o(.bss)
    Control_Device_Div_LPF_Parameter         0x20200398   Data          28  pid.o(.bss.Control_Device_Div_LPF_Parameter)
    __temporary_stack_top$libspace           0x20200398   Data           0  libspace.o(.bss)
    Control_Device_Div_LPF_Parameter_For_Gyro 0x202003b4   Data          28  pid.o(.bss.Control_Device_Div_LPF_Parameter_For_Gyro)
    Control_Device_Err_LPF_Parameter         0x202003d0   Data          28  pid.o(.bss.Control_Device_Err_LPF_Parameter)
    Control_Device_SDK_Err_LPF_Parameter     0x202003ec   Data          28  pid.o(.bss.Control_Device_SDK_Err_LPF_Parameter)
    Flight                                   0x20200408   Data          60  user_ctrl.o(.bss.Flight)
    FloatUnion                               0x20200444   Data           4  nclink.o(.bss.FloatUnion)
    Light_Blue                               0x2020044c   Data          24  bsp_led.o(.bss.Light_Blue)
    Light_Green                              0x20200464   Data          24  bsp_led.o(.bss.Light_Green)
    Light_Red                                0x2020047c   Data          24  bsp_led.o(.bss.Light_Red)
    OpticalFlow_Pos_Ctrl_Err                 0x20200500   Data           8  user_ctrl.o(.bss.OpticalFlow_Pos_Ctrl_Err)
    OpticalFlow_Pos_Ctrl_Expect              0x20200508   Data           8  user_ctrl.o(.bss.OpticalFlow_Pos_Ctrl_Expect)
    OpticalFlow_Pos_Ctrl_Integrate           0x20200510   Data           8  user_ctrl.o(.bss.OpticalFlow_Pos_Ctrl_Integrate)
    OpticalFlow_Pos_Ctrl_Output              0x20200518   Data           8  user_ctrl.o(.bss.OpticalFlow_Pos_Ctrl_Output)
    OpticalFlow_Vel_Ctrl_Err                 0x20200524   Data           8  user_ctrl.o(.bss.OpticalFlow_Vel_Ctrl_Err)
    OpticalFlow_Vel_Ctrl_Expect              0x2020052c   Data           8  user_ctrl.o(.bss.OpticalFlow_Vel_Ctrl_Expect)
    OpticalFlow_Vel_Ctrl_Integrate           0x20200534   Data           8  user_ctrl.o(.bss.OpticalFlow_Vel_Ctrl_Integrate)
    OpticalFlow_Vel_Ctrl_Output              0x2020053c   Data           8  user_ctrl.o(.bss.OpticalFlow_Vel_Ctrl_Output)
    Page_Number                              0x20200544   Data           2  key.o(.bss.Page_Number)
    SDK1_Mode_Setup                          0x20200546   Data           1  developer_mode.o(.bss.SDK1_Mode_Setup)
    Total_Controller                         0x2020054c   Data         980  pid.o(.bss.Total_Controller)
    W25QXX_BUFFER                            0x20200920   Data        4096  w25qxx.o(.bss.W25QXX_BUFFER)
    _button                                  0x20201924   Data         224  key.o(.bss._button)
    _cp437                                   0x20201a04   Data           1  ssd1306.o(.bss._cp437)
    accel_target                             0x20201a0c   Data           8  user_ctrl.o(.bss.accel_target)
    althold_dt                               0x20201a14   Data          16  user_ctrl.o(.bss.althold_dt)
    angle_target                             0x20201a24   Data           8  user_ctrl.o(.bss.angle_target)
    base_position                            0x20201a2c   Data          12  subtask_demo.o(.bss.base_position)
    beep                                     0x20201a38   Data          28  drv_expand.o(.bss.beep)
    current_state                            0x20201a54   Data          76  nclink.o(.bss.current_state)
    execute_time_ms                          0x20201ab0   Data         200  subtask_demo.o(.bss.execute_time_ms)
    fb_dt                                    0x20201b78   Data           4  nclink.o(.bss.fb_dt)
    fb_t                                     0x20201b7c   Data          32  nclink.o(.bss.fb_t)
    flight_global_cnt                        0x20201b9c   Data         200  subtask_demo.o(.bss.flight_global_cnt)
    flight_global_cnt2                       0x20201c64   Data         200  subtask_demo.o(.bss.flight_global_cnt2)
    flight_subtask_cnt                       0x20201d2e   Data         100  subtask_demo.o(.bss.flight_subtask_cnt)
    gPWM_0Backup                             0x20201d94   Data         188  ti_msp_dl_config.o(.bss.gPWM_0Backup)
    gPWM_1Backup                             0x20201e50   Data         188  ti_msp_dl_config.o(.bss.gPWM_1Backup)
    gPWM_2Backup                             0x20201f0c   Data         120  ti_msp_dl_config.o(.bss.gPWM_2Backup)
    gSPI_0Backup                             0x20201f84   Data          40  ti_msp_dl_config.o(.bss.gSPI_0Backup)
    gTIMER_2Backup                           0x20201fac   Data         120  ti_msp_dl_config.o(.bss.gTIMER_2Backup)
    gUART_3Backup                            0x20202024   Data          48  ti_msp_dl_config.o(.bss.gUART_3Backup)
    laser_light_1                            0x20202054   Data          28  drv_expand.o(.bss.laser_light_1)
    laser_light_2                            0x20202070   Data          28  drv_expand.o(.bss.laser_light_2)
    main_t                                   0x2020208c   Data          16  main.o(.bss.main_t)
    miss_cnt                                 0x2020209c   Data           8  nclink.o(.bss.miss_cnt)
    miss_rate                                0x202020a4   Data           4  nclink.o(.bss.miss_rate)
    nav_setpoint                             0x202020a8   Data         336  subtask_demo.o(.bss.nav_setpoint)
    nav_target_vel                           0x202021f8   Data          12  user_ctrl.o(.bss.nav_target_vel)
    offboard_start_flag                      0x20202204   Data           1  developer_mode.o(.bss.offboard_start_flag)
    opt_speed_dt                             0x20202208   Data          16  user_ctrl.o(.bss.opt_speed_dt)
    planner_cmd                              0x2020221c   Data          32  developer_mode.o(.bss.planner_cmd)
    sysTickUptime                            0x202022a4   Data           4  systick.o(.bss.sysTickUptime)
    t_g0                                     0x202022a8   Data          16  bsp_timer.o(.bss.t_g0)
    t_g1                                     0x202022b8   Data          16  bsp_timer.o(.bss.t_g1)
    uav_ahrs                                 0x202022d0   Data         288  sensor.o(.bss.uav_ahrs)
    uav_ins                                  0x202023f0   Data         840  sensor.o(.bss.uav_ins)
    user_setpoint_valid_flag                 0x20202738   Data          28  subtask_demo.o(.bss.user_setpoint_valid_flag)
    w25qxx_id                                0x20202754   Data           2  w25qxx.o(.bss.w25qxx_id)
    waypoint_x                               0x20202758   Data         244  subtask_demo.o(.bss.waypoint_x)
    waypoint_y                               0x2020284c   Data         244  subtask_demo.o(.bss.waypoint_y)
    wrap                                     0x20202940   Data           1  ssd1306.o(.bss.wrap)



==============================================================================

Memory Map of the image

  Image Entry point : 0x000000c1

  Load Region LR_IROM1 (Base: 0x00000000, Size: 0x0000b728, Max: 0x00020000, ABSOLUTE, COMPRESSED[0x0000b410])

    Execution Region ER_IROM1 (Exec base: 0x00000000, Load base: 0x00000000, Size: 0x0000b3f0, Max: 0x00020000, ABSOLUTE)

    Exec Addr    Load Addr    Size         Type   Attr      Idx    E Section Name        Object

    0x00000000   0x00000000   0x000000c0   Data   RO         1184    RESET               startup_mspm0g350x_uvision.o
    0x000000c0   0x000000c0   0x00000008   Code   RO         2290  * !!!main             c_p.l(__main.o)
    0x000000c8   0x000000c8   0x00000054   Code   RO         2593    !!!scatter          c_p.l(__scatter.o)
    0x0000011c   0x0000011c   0x00000004   PAD
    0x00000120   0x00000120   0x00000002   Code   RO         2594    !!handler_null      c_p.l(__scatter.o)
    0x00000122   0x00000122   0x00000006   PAD
    0x00000128   0x00000128   0x0000001c   Code   RO         2597    !!handler_zi        c_p.l(__scatter_zi.o)
    0x00000144   0x00000144   0x00000002   Code   RO         2447    .ARM.Collect$$libinit$$00000000  c_p.l(libinit.o)
    0x00000146   0x00000146   0x00000000   Code   RO         2464    .ARM.Collect$$libinit$$00000002  c_p.l(libinit2.o)
    0x00000146   0x00000146   0x00000000   Code   RO         2466    .ARM.Collect$$libinit$$00000004  c_p.l(libinit2.o)
    0x00000146   0x00000146   0x00000000   Code   RO         2468    .ARM.Collect$$libinit$$00000006  c_p.l(libinit2.o)
    0x00000146   0x00000146   0x00000000   Code   RO         2471    .ARM.Collect$$libinit$$0000000C  c_p.l(libinit2.o)
    0x00000146   0x00000146   0x00000000   Code   RO         2473    .ARM.Collect$$libinit$$0000000E  c_p.l(libinit2.o)
    0x00000146   0x00000146   0x00000000   Code   RO         2475    .ARM.Collect$$libinit$$00000010  c_p.l(libinit2.o)
    0x00000146   0x00000146   0x00000000   Code   RO         2478    .ARM.Collect$$libinit$$00000013  c_p.l(libinit2.o)
    0x00000146   0x00000146   0x00000000   Code   RO         2480    .ARM.Collect$$libinit$$00000015  c_p.l(libinit2.o)
    0x00000146   0x00000146   0x00000000   Code   RO         2482    .ARM.Collect$$libinit$$00000017  c_p.l(libinit2.o)
    0x00000146   0x00000146   0x00000000   Code   RO         2484    .ARM.Collect$$libinit$$00000019  c_p.l(libinit2.o)
    0x00000146   0x00000146   0x00000000   Code   RO         2486    .ARM.Collect$$libinit$$0000001B  c_p.l(libinit2.o)
    0x00000146   0x00000146   0x00000000   Code   RO         2488    .ARM.Collect$$libinit$$0000001D  c_p.l(libinit2.o)
    0x00000146   0x00000146   0x00000000   Code   RO         2490    .ARM.Collect$$libinit$$0000001F  c_p.l(libinit2.o)
    0x00000146   0x00000146   0x00000000   Code   RO         2492    .ARM.Collect$$libinit$$00000021  c_p.l(libinit2.o)
    0x00000146   0x00000146   0x00000000   Code   RO         2494    .ARM.Collect$$libinit$$00000023  c_p.l(libinit2.o)
    0x00000146   0x00000146   0x00000000   Code   RO         2496    .ARM.Collect$$libinit$$00000025  c_p.l(libinit2.o)
    0x00000146   0x00000146   0x00000000   Code   RO         2498    .ARM.Collect$$libinit$$00000027  c_p.l(libinit2.o)
    0x00000146   0x00000146   0x00000000   Code   RO         2502    .ARM.Collect$$libinit$$0000002E  c_p.l(libinit2.o)
    0x00000146   0x00000146   0x00000000   Code   RO         2504    .ARM.Collect$$libinit$$00000030  c_p.l(libinit2.o)
    0x00000146   0x00000146   0x00000000   Code   RO         2506    .ARM.Collect$$libinit$$00000032  c_p.l(libinit2.o)
    0x00000146   0x00000146   0x00000000   Code   RO         2508    .ARM.Collect$$libinit$$00000034  c_p.l(libinit2.o)
    0x00000146   0x00000146   0x00000002   Code   RO         2509    .ARM.Collect$$libinit$$00000035  c_p.l(libinit2.o)
    0x00000148   0x00000148   0x00000002   Code   RO         2546    .ARM.Collect$$libshutdown$$00000000  c_p.l(libshutdown.o)
    0x0000014a   0x0000014a   0x00000000   Code   RO         2574    .ARM.Collect$$libshutdown$$00000002  c_p.l(libshutdown2.o)
    0x0000014a   0x0000014a   0x00000000   Code   RO         2576    .ARM.Collect$$libshutdown$$00000004  c_p.l(libshutdown2.o)
    0x0000014a   0x0000014a   0x00000000   Code   RO         2579    .ARM.Collect$$libshutdown$$00000007  c_p.l(libshutdown2.o)
    0x0000014a   0x0000014a   0x00000000   Code   RO         2582    .ARM.Collect$$libshutdown$$0000000A  c_p.l(libshutdown2.o)
    0x0000014a   0x0000014a   0x00000000   Code   RO         2584    .ARM.Collect$$libshutdown$$0000000C  c_p.l(libshutdown2.o)
    0x0000014a   0x0000014a   0x00000000   Code   RO         2587    .ARM.Collect$$libshutdown$$0000000F  c_p.l(libshutdown2.o)
    0x0000014a   0x0000014a   0x00000002   Code   RO         2588    .ARM.Collect$$libshutdown$$00000010  c_p.l(libshutdown2.o)
    0x0000014c   0x0000014c   0x00000000   Code   RO         2357    .ARM.Collect$$rtentry$$00000000  c_p.l(__rtentry.o)
    0x0000014c   0x0000014c   0x00000000   Code   RO         2405    .ARM.Collect$$rtentry$$00000002  c_p.l(__rtentry2.o)
    0x0000014c   0x0000014c   0x00000006   Code   RO         2417    .ARM.Collect$$rtentry$$00000004  c_p.l(__rtentry4.o)
    0x00000152   0x00000152   0x00000000   Code   RO         2407    .ARM.Collect$$rtentry$$00000009  c_p.l(__rtentry2.o)
    0x00000152   0x00000152   0x00000004   Code   RO         2408    .ARM.Collect$$rtentry$$0000000A  c_p.l(__rtentry2.o)
    0x00000156   0x00000156   0x00000000   Code   RO         2410    .ARM.Collect$$rtentry$$0000000C  c_p.l(__rtentry2.o)
    0x00000156   0x00000156   0x00000008   Code   RO         2411    .ARM.Collect$$rtentry$$0000000D  c_p.l(__rtentry2.o)
    0x0000015e   0x0000015e   0x00000002   Code   RO         2455    .ARM.Collect$$rtexit$$00000000  c_p.l(rtexit.o)
    0x00000160   0x00000160   0x00000000   Code   RO         2517    .ARM.Collect$$rtexit$$00000002  c_p.l(rtexit2.o)
    0x00000160   0x00000160   0x00000004   Code   RO         2518    .ARM.Collect$$rtexit$$00000003  c_p.l(rtexit2.o)
    0x00000164   0x00000164   0x00000006   Code   RO         2519    .ARM.Collect$$rtexit$$00000004  c_p.l(rtexit2.o)
    0x0000016a   0x0000016a   0x00000002   PAD
    0x0000016c   0x0000016c   0x00000030   Code   RO         1185    .text               startup_mspm0g350x_uvision.o
    0x0000019c   0x0000019c   0x00000040   Code   RO         2282    .text               c_p.l(rt_memclr.o)
    0x000001dc   0x000001dc   0x0000016c   Code   RO         2284    .text               c_p.l(aeabi_sdiv.o)
    0x00000348   0x00000348   0x00000006   Code   RO         2288    .text               c_p.l(heapauxi.o)
    0x0000034e   0x0000034e   0x00000002   PAD
    0x00000350   0x00000350   0x00000054   Code   RO         2304    .text               fz_ps.l(f2d.o)
    0x000003a4   0x000003a4   0x00000160   Code   RO         2324    .text               fz_ps.l(fdiv.o)
    0x00000504   0x00000504   0x0000004c   Code   RO         2327    .text               fz_ps.l(ffixi.o)
    0x00000550   0x00000550   0x0000005e   Code   RO         2329    .text               fz_ps.l(fflti.o)
    0x000005ae   0x000005ae   0x00000016   Code   RO         2362    .text               c_p.l(_rserrno.o)
    0x000005c4   0x000005c4   0x00000080   Code   RO         2376    .text               fz_ps.l(frnd.o)
    0x00000644   0x00000644   0x00000044   Code   RO         2378    .text               fz_ps.l(fscalbn.o)
    0x00000688   0x00000688   0x00000090   Code   RO         2380    .text               fz_ps.l(fsqrt.o)
    0x00000718   0x00000718   0x00000008   Code   RO         2424    .text               c_p.l(rt_errno_addr_intlibspace.o)
    0x00000720   0x00000720   0x00000064   Code   RO         2428    .text               fz_ps.l(fcmpin.o)
    0x00000784   0x00000784   0x00000008   Code   RO         2430    .text               c_p.l(libspace.o)
    0x0000078c   0x0000078c   0x0000003e   Code   RO         2433    .text               c_p.l(sys_stackheap_outer.o)
    0x000007ca   0x000007ca   0x00000010   Code   RO         2436    .text               c_p.l(exit.o)
    0x000007da   0x000007da   0x0000002e   Code   RO         2448    .text               fz_ps.l(cmpret.o)
    0x00000808   0x00000808   0x00000010   Code   RO         2452    .text               fz_ps.l(fnan2.o)
    0x00000818   0x00000818   0x0000005e   Code   RO         2510    .text               fz_ps.l(retnan.o)
    0x00000876   0x00000876   0x00000002   PAD
    0x00000878   0x00000878   0x0000000c   Code   RO         2512    .text               c_p.l(sys_exit.o)
    0x00000884   0x00000884   0x00000002   Code   RO         2535    .text               c_p.l(use_no_semi.o)
    0x00000886   0x00000886   0x00000000   Code   RO         2537    .text               c_p.l(indicate_semi.o)
    0x00000886   0x00000886   0x0000003a   Code   RO         2591    .text               c_p.l(__dczerorl.o)
    0x000008c0   0x000008c0   0x00000058   Code   RO         1762    .text.AT24CXX_Check  bsp_eeprom.o
    0x00000918   0x00000918   0x0000003c   Code   RO         1778    .text.AT24CXX_Erase_All  bsp_eeprom.o
    0x00000954   0x00000954   0x0000001c   Code   RO         1758    .text.AT24CXX_Init  bsp_eeprom.o
    0x00000970   0x00000970   0x0000005c   Code   RO         1764    .text.AT24CXX_ReadOneByte  bsp_eeprom.o
    0x000009cc   0x000009cc   0x0000004e   Code   RO         1776    .text.AT24CXX_WriteOneByte  bsp_eeprom.o
    0x00000a1a   0x00000a1a   0x00000002   PAD
    0x00000a1c   0x00000a1c   0x000003b0   Code   RO         2249    .text.Air_Ground_Extinguish_Fire_System_Basic  subtask_demo.o
    0x00000dcc   0x00000dcc   0x000001bc   Code   RO         2200    .text.Auto_Flight_Ctrl  developer_mode.o
    0x00000f88   0x00000f88   0x00000114   Code   RO         2243    .text.Auto_Takeoff  subtask_demo.o
    0x0000109c   0x0000109c   0x000000a8   Code   RO         1699    .text.Bling_Process  bsp_led.o
    0x00001144   0x00001144   0x00000056   Code   RO         1697    .text.Bling_Set     bsp_led.o
    0x0000119a   0x0000119a   0x00000002   PAD
    0x0000119c   0x0000119c   0x0000006c   Code   RO         1703    .text.Bling_Working  bsp_led.o
    0x00001208   0x00001208   0x00000048   Code   RO         2009    .text.Byte2Float    nclink.o
